S01800006275696C642F6D6963617A2F6D61696E2E73726563E5
S11300000C9446010C9463010C9463010C94F60166
S11300100C9463010C9463010C9463010C94882286
S11300200C9463010C94C6240C9463010C941F0279
S11300300C94F6230C9463010C9463010C94151C2A
S11300400C9463010C9463010C944E020C946301B0
S11300500C9478020C949D020C9463010C9463013B
S11300600C9463010C9463010C9463010C9463017C
S11300700C9463010C9463010C9463010C9463016C
S11300800C9463010C9463010C946301000021102F
S1130090422063308440A550C660E77008812991EE
S11300A04AA16BB18CC1ADD1CEE1EFF13112100296
S11300B073325222B5529442F772D662399318833E
S11300C07BB35AA3BDD39CC3FFF3DEE36224433462
S11300D020040114E664C774A44485546AA54BB58E
S11300E028850995EEE5CFF5ACC58DD55336722636
S11300F011163006D776F6669556B4465BB77AA7DE
S113010019973887DFF7FEE79DD7BCC7C448E55881
S11301108668A7784008611802282338CCC9EDD92D
S11301208EE9AFF9488969990AA92BB9F55AD44AD5
S1130130B77A966A711A500A333A122AFDDBDCCB7D
S1130140BFFB9EEB799B588B3BBB1AABA66C877CA1
S1130150E44CC55C222C033C600C411CAEED8FFDCD
S1130160ECCDCDDD2AAD0BBD688D499D977EB66E75
S1130170D55EF44E133E322E511E700E9FFFBEEF1D
S1130180DDDFFCCF1BBF3AAF599F788F8891A981DF
S1130190CAB1EBA10CD12DC14EF16FE18010A100C9
S11301A0C230E3200450254046706760B9839893B9
S11301B0FBA3DAB33DC31CD37FE35EF3B102901219
S11301C0F322D2323542145277625672EAB5CBA585
S11301D0A89589856EF54FE52CD50DC5E234C32469
S11301E0A01481046674476424540544DBA7FAB759
S11301F09987B8975FE77EF71DC73CD7D326F236B9
S11302009106B01657667676154634564CD96DC9A4
S11302100EF92FE9C899E9898AB9ABA94458654808
S113022006782768C018E1088238A3287DCB5CDBF8
S11302303FEB1EFBF98BD89BBBAB9ABB754A545A58
S1130240376A167AF10AD01AB32A923A2EFD0FEDC4
S11302506CDD4DCDAABD8BADE89DC98D267C076CA8
S1130260645C454CA23C832CE01CC10C1FEF3EFF98
S11302705DCF7CDF9BAFBABFD98FF89F176E367EF8
S1130280554E745E932EB23ED10EF01E11241FBE45
S1130290CFEFD0E1DEBFCDBF11E0A0E0B1E0E4E5F7
S11302A0F9E600E00BBF02C007900D92A832B10737
S11302B0D9F714E0A8E2B1E001C01D92A437B10758
S11302C0E1F70C94EA020C94000010922D011092B4
S11302D02C010E948C01109204020E948A0181E088
S11302E090E090930C0480930B040E948C01109274
S11302F0FD010E948A010E948C0110920402109256
S113030014021092540310925504109254040E9443
S11303108A0108958FBF08958FB7F8949927089597
S1130320AF92BF92CF92DF92EF92FF920F931F93FF
S1130330CF93DF9306EEA0905004B0905104C09088
S11303405204D0905304A114B104C104D104C1F1E6
S113035010E068EA72E0EE24FF2481E090E0A0E07F
S1130360B0E00E2C04C0880F991FAA1FBB1F0A946B
S1130370D2F78A219B21AC21BD210097A105B105AB
S113038079F0202F332744275527FB018581968157
S1130390A781B08582179307A407B5070CF40581DC
S11303A01F5F0894E11CF11C675F7F4F1B30A8F2AC
S11303B00E948C0112B71D5F011720F4012F02C0A7
S11303C00E948C010093D60301BF109226030E9461
S11303D08A010E94810BDF91CF911F910F91FF90B1
S11303E0EF90DF90CF90BF90AF9008951F920F923F
S11303F00FB60F9211242F933F934F935F936F93F4
S11304007F938F939F93AF93BF93EF93FF9389B79A
S11304108B7F89BF89EB9CE20E94C402FF91EF911C
S1130420BF91AF919F918F917F916F915F914F9108
S11304303F912F910F900FBE0F901F9018951F9210
S11304400F920FB60F9211240F931F932F933F9384
S11304504F935F936F937F938F939F93AF93BF93C8
S1130460EF93FF930E948C0106B517B50E948A0191
S1130470C8010E943324FF91EF91BF91AF919F91E6
S11304808F917F916F915F914F913F912F911F9128
S11304900F910F900FBE0F901F9018951F920F92FF
S11304A00FB60F9211242F933F934F935F936F9343
S11304B07F938F939F93AF93BF93EF93FF935F9B30
S11304C006C08CB140E050E060E00E947E26FF91BF
S11304D0EF91BF91AF919F918F917F916F915F91B8
S11304E04F913F912F910F900FBE0F901F90189531
S11304F078941F920F920FB60F9211242F933F936B
S11305004F935F936F937F938F939F93AF93BF9317
S1130510EF93FF930E945628FF91EF91BF91AF9103
S11305209F918F917F916F915F914F913F912F9107
S11305300F900FBE0F901F9018951F920F920FB639
S11305400F9211242F933F934F935F936F937F9355
S11305508F939F93AF93BF93EF93FF9384B195B120
S113056078940E944129FF91EF91BF91AF919F919F
S11305708F917F916F915F914F913F912F910F9048
S11305800FBE0F901F901895CF93DF93EC010E943C
S11305908C01382F20911403E22FFF27EE0FFF1F49
S11305A0E35DFD4F80819181892B61F42F5F27707A
S11305B020931403C083D183832F0E948A0181E096
S11305C090E005C0832F0E948A0180E090E0DF91D3
S11305D0CF910895CAEFD0E1DEBFCDBFD29AD09AB1
S11305E0D19AA79AA69AA59AA49AA39AA29AA19AEA
S11305F0A09ABB98BA9AB99AD69AD59AB8981698E6
S11306008E988C98BF988E98D498DC98D39A8B9AAD
S11306108D9ADB9ADA9AD89AD99A83E08C5F8739D3
S1130620E8F390E08AE08093090290931403909396
S11306304D028DE292E0FC019C01225F3F4F11923A
S11306401192029628173907D4F70E943E040E949B
S113065070040E949B1980E0E5EEF3E01082359669
S11306608F5F8330D8F310922602109222021092E8
S1130670160281E08093B10380E098E090934602F3
S113068080934502909343028093420280914702F3
S11306909091440282609260827E80934702927EAF
S11306A090934402D39ADB9A95988D9A939A8B9A55
S11306B092988A9889B78B7F89BF80916A008063FA
S11306C080936A008E010F5F1F4F45E050E0B80130
S11306D080EE9FE00E94850463E0C8010E94AF0B96
S11306E09C018C819D818217930781F48B81809377
S11306F022010E948C01282F89819A819093010103
S113070080930001822F0E948A0102C00E94EF1A86
S1130710109254020E94700461E0862F0E945E1BB6
S11307200E943E040E948C011092B6031092B503FD
S11307300E948A010E948C01109273041092720428
S113074010920A0410920904109253021092520259
S11307500E948A010E94921B61E082E00E945E1B5B
S11307600E943E040E948C0110920C0310920B0311
S11307700E948A010E948C011092730410927204E8
S113078010920A0410920904109253021092520219
S11307900E948A010E94921B0E949B190E9465017B
S11307A00E943E040E948C0110920204D29AD09AB4
S11307B0D19ADA9AD89AD99A0E948A0101E010E073
S11307C080919702823011F40E944C160093970294
S11307D080E090E00E940B150E949D1B80915402C2
S11307E0882341F420E230E040E050E0602F82E0D2
S11307F00E940A0B80919702823011F40E944C16D9
S11308000093970280E090E00E940B1528EE33E0FD
S113081040E050E0602F89E00E940A0B0E949D1B7B
S113082080910B0490910C04019741F428EE33E07D
S113083040E050E060E0862F0E940A0B78940E940A
S11308408C0190914D02E92FFF27EE0FFF1FE35D0E
S1130850FD4F008111810115110529F478948895C3
S113086000000000ECCF108211829F5F977090937C
S11308704D020E948A01F8010995E1CF1F9310925D
S11308805004109251041092520410925304109286
S113089026038FEF80935E048093DB0110922B027A
S11308A083E08093270316EE1093D6030E948C01F5
S11308B0982F87B78E7F87BF87B78D7F87BF80B715
S11308C0886080BF8BE083BF12BE11BF87B7826090
S11308D087BF892F0E948A0181E090E01F910895CB
S11308E0109297024AE050E06FE574E086EE9FE0D4
S11308F00E94850480E00E94B5048FEF8093490232
S113090080939C0281E090E00895CF92DF92EF9271
S1130910FF920F931F93CF93DF938A01EC016B0136
S1130920840F951F8150904118F080E090E014C02E
S1130930EE24FF24E416F50668F4CE010E94423446
S1130940F60181936F0121960894E11CF11CE016D5
S1130950F10698F381E090E0DF91CF911F910F9120
S1130960FF90EF90DF90CF900895CF93C82F8230FF
S1130970A0F48091DD01833011F0853071F4109280
S11309802A0199278230910519F0049721F005C0B6
S11309900E94D10402C00E941F19C093DD01CF91AF
S11309A00895DF92EF92FF920F931F93CF93DF93FB
S11309B0CDB7DEB722970FB6F894DEBF0FBECDBF1A
S11309C02091DD01822F8250823008F084C0809112
S11309D025029927FC01EE0FFF1FEE0FFF1FE80F02
S11309E0F91FE80FF91FE453FE4F80818160808373
S11309F0223051F580912A01082F1127002309F094
S1130A006AC081E080932A0183E00E94B50440918A
S1130A102502242F33278CE090E0289FF001299FA2
S1130A20F00D389FF00D1124E45DFC4F8481958115
S1130A3090933E0180933D0140933F0180914B048C
S1130A40809340010093410180914101992720E363
S1130A5030E040E952E0BC01CE0101960E947905E4
S1130A60882321F481E00E94B50435C019811093D4
S1130A704101D090250280914B049927AA27BB27D6
S1130A80BC01CD0120E534E040E050E00E94553443
S1130A909B01AC0187E1189FC0011124AA27BB2741
S1130AA0280F391F4A1F5B1F205F3F4F4F4F5F4F77
S1130AB087E1E82EF12C02E411E06D2D85E00E941F
S1130AC0BC05882341F420E130E040E050E061E0DF
S1130AD083E00E940A0B22960FB6F894DEBF0FBE85
S1130AE0CDBFDF91CF911F910F91FF90EF90DF90D9
S1130AF00895CF92DF92EF92FF920F931F93CF93BB
S1130B00DF936C018B017A01E9012115310539F478
S1130B1029C0F6016083718321E030E023C0FB012A
S1130B2043E0F695E7954A95E1F7EE0DFF1D8081C8
S1130B30282F3327CB018770907002C035952795F5
S1130B408A95E2F7F901E170F07020FDE2CF6F5F62
S1130B507F4FCB01BE010E947434BC018017910702
S1130B60F1F69F01C901DF91CF911F910F91FF9081
S1130B70EF90DF90CF900895CF92DF92EF92FF92A3
S1130B800F931F93CF93C82F862FBA01A901980101
S1130B90870190E0E82FFF27EE0FFF1FE45EFE4F72
S1130BA0E08180912801823019F080E090E0C3C098
S1130BB0AC2FBB27A630B10509F446C0A730B10558
S1130BC054F4A430B10509F43FC0A530B105E4F4F0
S1130BD01397D1F0AAC0A830B10541F0A830B105EF
S1130BE00CF44DC0199709F45DC09FC040931302E3
S1130BF0842F9927880F991F4096AC016627772781
S1130C0020E532E002E010E06801EE24FF24FF2733
S1130C10E130F10571F0E230F1051CF4EF2B21F025
S1130C2082C0329759F07FC089019A01AB0160E01C
S1130C3009C089019A01AB0161E004C089019A01EC
S1130C40AB0162E086E06CC0C801AA27BB277C0127
S1130C508D01FF27E130F10559F0E230F1051CF474
S1130C60EF2B21F060C0329729F05DC080E003C013
S1130C7081E001C082E00E946E18682F55C0FF27F2
S1130C80E130F10559F0E230F1051CF4EF2B21F0CD
S1130C904AC0329721F047C0892F01C081E00E94E9
S1130CA0BB18EBCF0E2F112701301105C9F002300C
S1130CB0110524F40115110529F035C00230110580
S1130CC0F9F031C0C090DF01D090E001E090E10183
S1130CD0F090E20120E030E040E050E0692F1FC0D6
S1130CE0C090E301D090E401E090E501F090E601CA
S1130CF000E010E020E030E040E050E061E00FC0B0
S1130D00C090E701D090E801E090E901F090EA0199
S1130D1000E010E020E030E040E050E0682F83E0A5
S1130D200E94A306AACF60E0962F913011F4C093DD
S1130D302801892F9927CF911F910F91FF90EF9050
S1130D40DF90CF900895CF92DF92EF92FF920F93AE
S1130D501F93982F80912901882319F080E090E057
S1130D6006C06093A1029093290181E090E088235A
S1130D7019F480E090E024C0209350033093510391
S1130D8040935203509353031093050400930404B7
S1130D90C092A202D092A302E092A402F092A50211
S1130DA0C092F903D092FA03E092FB03F092FC03A1
S1130DB010921603109215030E94E70681E090E05A
S1130DC01F910F91FF90EF90DF90CF900895AF9215
S1130DD0BF92CF92DF92EF92FF920F931F93CF9324
S1130DE0DF93C0900404D0900504C0915003D091C7
S1130DF05103E0915203F09153038D2F9E2FAF2F97
S1130E00BB277C01AFEFAA2EB12CAC22BD2200E09F
S1130E1011E00A191B09C801AA27BB272091F9036D
S1130E203091FA034091FB035091FC0328173907D2
S1130E304A075B0720F40091F9031091FA03C801F3
S1130E40AA27BB27281B390B4A0B5B0B2093F903FA
S1130E503093FA034093FB035093FC03C80FD91F4C
S1130E60EA1FFB1FC0935003D0935103E093520336
S1130E70F0935303C601800F911F90930504809350
S1130E80040480912901E82FFF27E630F10509F4D5
S1130E9051C0E730F1053CF4E130F10549F03397F6
S1130EA009F48BC0D0C03897329708F0CCC085C005
S1130EB09091A10280911502882319F080E090E0BE
S1130EC004C09F5F90931502CF01009779F1809140
S1130ED015028150833011F4B7010EC09927FC012B
S1130EE0EE0FFF1FEE0FFF1FE80FF91FEB51FC4F32
S1130EF0618172816E0D7F1DEE24FF249601A50190
S1130F0083E00E94180D9927882311F0992704C0C3
S1130F108093980280E090E09927882311F0992724
S1130F2004C08093150280E090E09927882309F09B
S1130F308AC085C09091A10280911502882319F07E
S1130F4080E090E005C09F5F9093150281E090E0FF
S1130F50009779F1809115028150833011F4B70123
S1130F600EC09927FC01EE0FFF1FEE0FFF1FE80FC5
S1130F70F91FEB51FC4F618172816E0D7F1DEE24D0
S1130F80FF249601A50181E00E94180D992788236A
S1130F9011F0992704C08093980280E090E099278B
S1130FA0882311F0992704C08093150280E090E013
S1130FB09927882309F047C042C09091A10220914B
S1130FC015033091160380911502882319F080E0EF
S1130FD090E005C09F5F9093150281E090E0009738
S1130FE061F1809115028150833011F4C7010EC064
S1130FF09927FC01EE0FFF1FEE0FFF1FE80FF91FEB
S1131000EB51FC4F818192818E0D9F1DA801B5018A
S11310100E94B2139927882311F0992704C0809362
S1131020980280E090E09927882311F0992704C062
S11310308093150280E090E09927882321F48FE2C1
S11310409CE20E94C402DF91CF911F910F91FF9007
S1131050EF90DF90CF90BF90AF900895CF92DF9242
S1131060EF92FF920F931F93682F20912901109202
S11310702901C090A202D090A302E090A402F090B3
S1131080A5028091F9039091FA03A091FB03B0911A
S1131090FC03C81AD90AEA0AFB0A8091500390910A
S11310A05103A0915203B09153038C199D09AE09C9
S11310B0BF098093500390935103A0935203B093BC
S11310C0530380910404909105048C199D09909315
S11310D00504809304043327263031056CF423304F
S11310E031050CF06DC02130310509F469C022309E
S11310F0310509F465C075C0293031052CF4273059
S113110031050CF06EC004C02930310521F169C0ED
S11311108091A102209150033091510340915203D8
S113112050915303009104041091050499278130D0
S1131130910559F0823091051CF4892B21F051C09E
S1131140029729F04EC080E003C081E001C082E034
S11311500E94FA0846C08091A10240911503509163
S11311601603282F33272130310559F02230310559
S113117024F421153105B1F034C02230310581F059
S113118030C0E0E0F0E080915002909151024817A5
S1131190590709F4F901F0935102E09350021EC07B
S11311A020E030E080915002909151024817590795
S11311B011F421E030E030935102209350020EC02C
S11311C08091A10299278130910541F082309105E7
S11311D01CF4892B19F005C0029719F4862F0E947C
S11311E0540981E090E01F910F91FF90EF90DF9000
S11311F0CF900895CF92DF92EF92FF920F931F93B7
S1131200CF93082FC62F80911302882339F420E04E
S113121031E040E050E060E573E00FC09927AA2771
S1131220BB27BC01CD0120E534E040E050E00E9442
S113123055349B01AC0160E574E0CC2351F58091F9
S11312402801853031F1205F3F4F4F4F5F4F6B01D5
S1131250EE24FF2411270130110569F00230110535
S113126024F40115110529F011C00230110539F0DB
S11312700DC06C2F07C000E010E061E003C000E087
S113128010E062E089E00E94A30601C080E08823A8
S113129019F48C2F0E945409CF911F910F91FF9044
S11312A0EF90DF90CF900895DF92EF92FF920F932B
S11312B01F93CF93DF93CDB7DEB722970FB6F89481
S11312C0DEBF0FBECDBF182F8091280102E0D02EC3
S11312D0D092280199278530910509F457C08630AA
S11312E091055CF483309105C1F0843091050CF0D4
S11312F06AC1019709F474C17FC18730910509F46B
S1131300C4C0873091050CF461C08830910509F49C
S1131310D6C0099709F435C16FC1112309F033C14F
S113132090914F028CE0989FC0011124845D9C4FE2
S11313300E94930B882399F040914F02242F332766
S11313408CE090E0289FF001299FF00D389FF00D6C
S11313501124E45DFC4F8681841709F4D0C04091C8
S11313604F02242F33278CE090E0289FF001299F1F
S1131370F00D389FF00D1124E45DFC4F8FEF9FEFCB
S113138084839583468317831287BCC00091DD0153
S1131390033009F031C1112321F081E00E94B5042A
S11313A02BC18091A6029091A70223E331E04CE186
S11313B0BC0183EA0E945A16882309F01DC120E16A
S11313C030E040E050E061E0802FE3C080910A0209
S11313D0482F55278CE190E0489FF001499FF00D7C
S11313E0589FF00D1124E85AFD4F2481822F8695D1
S11313F086958695E82FFF27E95AFB4F277081E0F1
S113140090E002C0880F991F2A95E2F7982F9095D3
S11314108081892380834F5F5F4FCA019A012E7FA9
S11314203370821B930B80930A0280915D04815078
S113143080935D0420E330E047E554E060E070E031
S1131440CE0101960E9479058823B9F4909149024E
S11314509093190480915402823049F4933038F403
S113146085E08093540290934F020E94E10B81E047
S11314700E94B50410925D04BFC080915D0488236E
S113148009F4BAC00E942218B7C0112309F07BC026
S113149060914F028CE0689FC0011124845D9C4FD1
S11314A01CE0E12EF12C8C0120E030E040E050E023
S11314B084E00E94BC05882309F09EC064C090911A
S11314C05002112309F05FC0809154028130E9F485
S11314D09923C1F080914F02282F33278CE090E0AC
S11314E0289FF001299FF00D389FF00D1124E45D31
S11314F0FC4F82858F5F82879781891718F40E9439
S11315007B147AC00E94C60B77C060914F02992366
S113151081F4262F33278CE090E0289FF001299F47
S1131520F00D389FF00D1124E45DFC4F128784E028
S113153047C0262F33278CE090E0289FF001299F95
S1131540F00D389FF00D1124E45DFC4F4285242FEB
S113155033272F5F3F4F878199272817390774F066
S1131560EE24FF24870120E030E040E050E089E0F1
S11315700E94BC05882309F03FC005C04F5F428725
S113158022C0112349F020E032E040E050E061E065
S11315908D2D0E940A0B30C040914F02242F332717
S11315A08CE090E0289FF001299FF00D389FF00D0A
S11315B01124E45DFC4F87818287442321F486E073
S11315C08093540217C0D0925402909119048091D0
S11315D06504981711F40E94A9140E94CC140CC03D
S11315E0112311F410932801113021F410924F02A9
S11315F0109354020E94E10B22960FB6F894DEBFBA
S11316000FBECDBFDF91CF911F910F91FF90EF904F
S1131610DF900895AF92BF92CF92DF92EF92FF9244
S11316200F931F93CF9359016A018B3048F46230B2
S11316303CF4662341F4233031054105510518F487
S113164080E090E054C0E82EFF24870183E0000F7F
S1131650111F8A95E1F70E0D1F1D08551D4FF80146
S1131660A182B282C382D48260830E948C01C82F7B
S113167082B7A80EB11CC11CD11CF801A582B68288
S1131680C782D08621E030E040E050E004C0220F61
S1131690331F441F551FEA94D2F780915004909150
S11316A05104A0915204B0915304822B932BA42B88
S11316B0B52B8093500490935104A0935204B0939B
S11316C053048091D6039927AA27BB27A816B906E5
S11316D0CA06DB0638F4A092D603A1BE10922603F4
S11316E00E94810B8C2F0E948A0181E090E0CF91AF
S11316F01F910F91FF90EF90DF90CF90BF90AF902C
S113170008958091250118162CF081EF9BE20E9428
S1131710C40206C085B7837E85BF85B7806285BF56
S113172080E090E008950F931F93CF93DF93EC0133
S113173000E010E068E00E94AF0B28853985281787
S1131740390739F4232B29F08E81833010F401E01A
S113175010E0C801DF91CF911F910F910895DC0132
S113176020E030E0662381F08D91ECE8F0E08327FF
S1131770880FF11DE80FF11DC895322F202D3196E9
S1131780C8953025615081F7C901089581E080939F
S1131790540280914F028F5F80934F02833018F47C
S11317A00E94E10B089582E0809354028091970295
S11317B0813011F40E944C1681E090E0809306047D
S11317C00895EF92FF920F931F9310E080915402BB
S11317D0282F33272330310509F479C0243031050B
S11317E044F42115310591F02130310509F45DC02F
S11317F091C02530310509F47DC0253031050CF444
S11318006BC02630310509F479C084C08091280169
S1131810882311F0C9017DC01093290280911C0115
S113182060911D01992781309105B9F082309105AD
S11318301CF4892B21F02FC00297E9F02CC0E62F6D
S1131840FF27EE0FFF1FEE0FFF1FE152FE4F108226
S1131850118212821382812F1BC0E62FFF27EE0F05
S1131860FF1FEE0FFF1FE152FE4F10821182128202
S1131870138281E00DC0E62FFF27EE0FFF1FEE0F4E
S1131880FF1FE152FE4F108211821282138282E006
S11318900E949B0C01C080E09927282F813011F40D
S11318A080932801822F992734C060914F028CE0E5
S11318B0689FC0011124845D9C4F2CE0E22EF12C22
S11318C08C0120E030E040E050E083E010C000E014
S11318D010E08CEB9CE216C080914F02EE24FF24B2
S11318E0870120E030E040E050E0682F87E00E946C
S11318F0BC050FC00E947B1411E00CC000E010E096
S113190082EC9CE20E94C402882311F001E010E002
S1131910802F182F112341F420E032E040E050E002
S113192061E082E00E940A0B812F99271F910F9199
S1131930FF90EF900895382F20911F0222FD0DC0D3
S11319409927FC01EE0FFF1FEE0FFF1FE80FF91F91
S1131950EB51FC4FE081EE2319F080E090E0089514
S1131960246020931F023093200260930F04E093BD
S1131970170283E39CE20E94C40281E090E0089590
S1131980262F662311F080E04CC0E0912902EF5F1E
S1131990E0932902E33008F047C0FF27EE0FFF1F52
S11319A0E45EFE4F80816181992781309105B9F011
S11319B0823091051CF4892B21F02FC00297E9F0A5
S11319C02CC0E62FFF27EE0FFF1FEE0FFF1FE15283
S11319D0FE4F1082118212821382822F1BC0E62FC7
S11319E0FF27EE0FFF1FEE0FFF1FE152FE4F108285
S11319F011821282138281E00DC0E62FFF27EE0FC1
S1131A00FF1FEE0FFF1FE152FE4F10821182128260
S1131A10138282E00E949B0C01C080E099278823F6
S1131A2031F40E945409089581E00E9454090895F4
S1131A30EF92FF920F931F93E82F88E060307807AE
S1131A4090F4F1E048305F0770F481E00930180742
S1131A5050F4CA01800F911F8950914020F4809165
S1131A602602882319F080E090E040C0E09326022B
S1131A70E091D503EE2329F08CEA9CE20E94C40293
S1131A8033C030935602209355021093690100939A
S1131A906801709306026093050250936E044093AC
S1131AA06D04F092D803E092D703809142029091A2
S1131AB043026817790719F4E093FB0113C080917E
S1131AC04502909146026817790721F481E08093DA
S1131AD0FB0108C09E2F8091FB01882309F491E04B
S1131AE09093FB010E94451081E090E01F910F91BB
S1131AF0FF90EF9008950F931F93CF93282F809119
S1131B0026021092260299278430910509F434C1E3
S1131B10853091055CF48230910509F4C7C08330A7
S1131B2091050CF002C1019749F032C1873091054B
S1131B300CF415C109970CF02BC11BC1C0911502FF
S1131B4010921502C1508091A102C817A1F480918E
S1131B50F9039091FA03A091FB03B091FC03009761
S1131B60A105B10511F0222321F4822F0E94CC0E8D
S1131B7002C00E94E706C33009F00AC190911F0217
S1131B8090FD66C080910F0295E0899FA001112409
S1131B904F5F5F4F80911502882319F080E090E039
S1131BA005C084E08093150281E090E0009779F10C
S1131BB0809115028150833019F48FEF97E00EC0A5
S1131BC09927FC01EE0FFF1FEE0FFF1FE80FF91F0F
S1131BD0EB51FC4F818192818150984F20E030E09D
S1131BE062E070E00E94B2139927882311F09927CC
S1131BF004C08093980280E090E09927882311F034
S1131C00992704C08093150280E090E09927282F3B
S1131C103327222309F0BCC080911F028B7F80935D
S1131C201F028091200240910F0499278130910571
S1131C3059F0823091051CF4892B21F0A9C0029738
S1131C4029F0A6C061E028C061E029C061E02AC093
S1131C5080912002282F3327F901EE0FFF1FEE0F8A
S1131C60FF1FE20FF31FEB51FC4F408180910F04E3
S1131C70481709F057C09B7F90931F02213031050C
S1131C8069F0223031051CF4232B29F081C0223065
S1131C90310539F07DC060E080E005C060E081E09E
S1131CA002C060E082E00E94C00C72C00091D703C1
S1131CB01091D803C091150210921502C150809161
S1131CC0A102C817C1F41093160300931503809161
S1131CD0F9039091FA03A091FB03B091FC030097E0
S1131CE0A105B10511F0222321F4822F0E94CC0E0C
S1131CF002C00E94E706C33009F04AC020911F02C7
S1131D00216020931F0230E080910D0290910E0219
S1131D100817190709F031E0330F822F8D7F832BC9
S1131D2080931F020E94D51333C090911502109224
S1131D30150291508091A102981751F58091F903F1
S1131D409091FA03A091FB03B091FC030097A105C5
S1131D50B105D9F02223C9F00E94E70619C0909179
S1131D6015021092150291508091A102981781F4E6
S1131D700CC0109215020CC090911502109215021D
S1131D8091508091A102981719F4822F0E94CC0ED1
S1131D90CF911F910F910895CF92DF92EF92FF920E
S1131DA00F931F93813009F02CC180912901992749
S1131DB08430910509F489C0853091051CF403979A
S1131DC049F01CC18730910509F4ACC0089709F4A7
S1131DD0FDC014C1809115038093600180911503A7
S1131DE090911603892F9927809361016091A10234
S1131DF0E62FFF27EE0FFF1FEE0FFF1FE152FE4FEE
S1131E008081809362012081318142815381BB278B
S1131E10A52F942F832F80936301CA01AA27BB2780
S1131E2080936401852F9927AA27BB278093650196
S1131E3081EB809366018CE08093670184E080935A
S1131E40290180911502882319F080E090E005C0F3
S1131E506F5F6093150281E090E0009791F18091AB
S1131E6015028150833019F460E070E00CC09927AA
S1131E70FC01EE0FFF1FEE0FFF1FE80FF91FEB51E0
S1131E80FC4F61817281EE24FF2408E010E020E61B
S1131E9031E040E051E083E00E94180D9927882347
S1131EA011F0992704C08093980280E090E099276C
S1131EB0882311F0992704C08093150280E090E0F4
S1131EC09927882309F0A1C09CC085E0809329014B
S1131ED09091A10280911502882319F080E090E08E
S1131EE005C09F5F9093150281E090E00097B1F0E8
S1131EF086E00E940C109927882311F0992704C0CA
S1131F008093980280E090E09927882311F0992724
S1131F1004C08093150280E090E09927882309F09B
S1131F2074C06FC080916601813B09F04DC08091FF
S1131F3067018C3009F048C06091A102E62FFF27A9
S1131F40EE0FFF1FEE0FFF1FE152FE4F8091620163
S1131F50282F332744275527809163019927AA27DF
S1131F60BB27BA2FA92F982F8827282B392B4A2B28
S1131F705B2B809164019927AA27BB27DC01992751
S1131F808827282B392B4A2B5B2B809165019927B5
S1131F90AA27BB27B82FAA2799278827282B392BAC
S1131FA04A2B5B2B20833183428353831092290174
S1131FB069017A0100E010E020E030E040E050E008
S1131FC088E00E94A30621C082E015C080916001D0
S1131FD0282F3327809161019927982F8827282B50
S1131FE0392B80911503909116038217930711F4EE
S1131FF080E001C083E00E942E0807C08BE29CE2CF
S113200002C08FE29CE20E94C4021F910F91FF90D4
S1132010EF90DF90CF900895982F80912602882327
S113202019F080E090E00895909326028091D50302
S1132030882319F08CEA9CE213C080914402982F03
S1132040927081FD03C09093FB010FC08091470201
S113205081FD04C081E08093FB0107C088EA9CE213
S11320600E94C40281E090E008958091FB019927C9
S1132070FC01EE0FFF1FE80FF91FEC5BFD4F8081A1
S1132080877E80830E944510EDCF0F931F9340916C
S1132090FB01842F9927FC01EE0FFF1FE80FF91FA6
S11320A0DF01AE5BBD4F20910502309106028D9198
S11320B09C9111972817390709F0D4C05091260232
S11320C0852F992784309105B1F08530910564F40A
S11320D08230910509F471C0833091050CF091C0F0
S11320E0019709F458C0E8C08730910574F1099745
S11320F00CF0E2C035C080916D0490916E04813083
S1132100910599F08130910518F0029749F0D4C0F7
S113211086E08093A00200E010E040E061E8C9C0DE
S1132120EC5BFD4F808184608083842F9927FC01C0
S1132130EE0FFF1FE80FF91FEC5BFD4F80818260FB
S1132140808381E00E947B0DB7C0EC5BFD4F8081F2
S113215081FF06C0869586958695837009F08FC0A9
S1132160842F9927FC01EE0FFF1FE80FF91FEC5B8A
S1132170FD4F808181FF7BC0573011F0553029F429
S113218088EA9CE20E94C40297C010922602852F1E
S11321900E940C1091C08091550290915602909328
S11321A013048093120480916801909169019093C3
S11321B028028093270281E009C0809168019091F0
S11321C06901909328028093270282E08093A00201
S11321D0442311F064ED01C066ED20916D0430914B
S11321E06E04842F9927FC01EE0FFF1FE80FF91FDF
S11321F0EC5BFD4F80818170890120E030E042E09A
S113220059C0809155029091560290931304809383
S1132210120480916801909169019093280280933F
S1132220270283E08093A002EC5BFD4F8081857ED2
S11322308083442311F064E801C067E820916D04B1
S113224030916E04842F9927FC01EE0FFF1FE80FD5
S1132250F91FEC5BFD4F80818170890120E030E043
S113226040E028C0EC5BFD4F808181FD03C00E94EB
S1132270851322C0869586958695837021F0842FD8
S11322800E94F91219C080912602843019F42D930A
S11322903C93FDCE85E08093A002442311F063E5D6
S11322A001C065E500E010E02091050230910602CE
S11322B040E081E00E945F111F910F9108950F93F8
S11322C01F93782F862F642FA80180932803C901B8
S11322D0880F892F881F990B919580932903220FCA
S11322E0852F9927282B20932A0340932B036C5F77
S11322F060932A02772339F08091B103882319F07F
S11323000E94881102C00E941A131F910F91089510
S1132310CF9381E0809316029598DB9887ED0E9415
S1132320CF110E948C01282F84E088BF89B7846074
S113233089BF959882E090E0000000000000000052
S11323400000000000000000019718161906A4F30D
S1132350829B05C089B78B7F89BFC0E001C0C1E003
S1132360822F0E948A01CC23C1F48091A00288307C
S113237061F4959A95980000000080E090E08299BD
S113238002C081E090E08093B40381E08093220254
S1132390DB9A80EB9CE20E94C402CF9108950F93D4
S11323A01F93082F10E00E948C01982F82B3877D21
S11323B082BB07FD939A959A8299106882BB06FDA9
S11323C0939A959A8299106482BB05FD939A959A83
S11323D08299106282BB04FD939A959A8299106146
S11323E082BB03FD939A959A8299186082BB02FD81
S11323F0939A959A8299146082BB01FD939A959A57
S11324008299126082BB00FD939A959A8299116019
S1132410892F0E948A01812F99271F910F91089576
S1132420809116022091A002882309F44AC0909159
S11324304702892F8E7F8093470230914402832F75
S11324408E7F809344021092B103109216022830BA
S113245039F52091B40380910802222359F0992779
S1132460FC01EE0FFF1FE80FF91FEC5BFD4F8081AD
S1132470877E9FC09927FC01EE0FFF1FE80FF91F0D
S1132480EC5BFD4F9081892F8695869586958370A8
S1132490823010F49D7F4BC081E08093D50326C029
S11324A0387111F4987151F02750223038F080E0DF
S11324B0332309F481E00E94F91208950E941A134B
S11324C00895822F992784309105B1F085309105C4
S11324D01CF401975CF00CC08630910509F46BC0C4
S11324E0863091050CF44BC0079729F180E001C0B8
S11324F081E00E947B0D089581E08093B103809177
S1132500FB019927FC01EE0FFF1FE80FF91FEC5B9D
S1132510FD4F90819360892F86958695869583706B
S11325208F5F8370880F880F880F937E982B90831A
S11325300E944510089588E08093A00281E0809372
S1132540B103809108029927FC01EE0FFF1FE80FE9
S1132550F91FEC5BFD4F8081816080838AE090E00D
S11325600000000000000000000000000000000067
S1132570019718161906A4F30E948811089581E0A2
S11325808093B1038091FB0199279C01220F331F93
S1132590280F391FF901EE5BFD4F809105029091E0
S11325A0060280839183F901EC5BFD4F8081836097
S11325B08B7F8083BDCF41E04093B1038091FB01C9
S11325C099279C0102C0220F331F4A95E2F7280F76
S11325D0391FF901EE5BFD4F8091050290910602CF
S11325E080839183F901EC5BFD4F80818660808359
S11325F07FCF0F931F93282F87E08093A00220930F
S11326000802822F9927FC01EE0FFF1FE80FF91F24
S1132610EE5BFD4F222311F060E601C061E600E0AD
S113262010E02081318140E081E00E945F111F9120
S11326300F910895CF92DF92EF92FF920F931F9321
S1132640CF93DF9390E0C92EC8E2EC2EC3E0FC2EBA
S113265080912A02C82FDD270091D7031091D80357
S1132660D92E9598DB9882E0D816A9F4ECE8F0E02E
S11326709127990FF11DE90FF11DC895302F202DD9
S11326803196C89530258901219749F53093D803AF
S11326902093D70329C0DD2081F4F701C1907F0185
S11326A02197E9F4D090A002E0901204F090130472
S11326B0C0912702D091280212C0F1E0DF1631F454
S11326C0F70191937F01219751F40EC0F3E0DF16D7
S11326D059F4209749F0F701C1907F0121978C2D7F
S11326E00E94CF11982FBFCF81E080932202DB9A02
S11326F080EB9CE20E94C402DF91CF911F910F9165
S1132700FF90EF90DF90CF9008950F931F9384E094
S11327108093A0024091FB01242F3327C901880F25
S1132720991F820F931FDC01AE5BBD4FFC01EC5B74
S1132730FD4F808182FF06C0442311F068E807C082
S113274069E805C0442311F063E801C066E800E0CD
S113275010E02D913C9140E081E00E945F111F91B7
S11327600F910895EF92FF920F931F938A017901BD
S1132770452B71F482E0809326023093D803209392
S1132780D70388EA9CE20E94C40281E090E008C07A
S113279020E030E0AB01BC0182E00E94180D9927D3
S11327A01F910F91FF90EF900895EF92FF920F9376
S11327B01F9320911F0221FD06C090911702809162
S11327C00F02981709F5809120029927FC01EE0F5A
S11327D0FF1FEE0FFF1FE80FF91FEB51FC4F108294
S11327E02B7F20931F0240910F048130910509F43F
S11327F076C08230910524F4892B09F46DC076C02B
S1132800029709F46FC072C085E0989FA00111245B
S11328104D5F5F4F9F5F9093170290912002989FA6
S1132820900111242B513C4F80911502882319F0FB
S113283080E090E005C084E08093150281E090E0A0
S1132840009781F1809115028150833019F46FEF64
S113285077E00EC09927FC01EE0FFF1FEE0FFF1F5C
S1132860E80FF91FEB51FC4F618172816150784F81
S1132870EE24FF2405E010E081E00E94180D992762
S1132880882311F0992704C08093980280E090E097
S11328909927882311F0992704C08093150280E0BA
S11328A090E09927282F3327222301F580911F02D6
S11328B08B7F80931F028091200240910F049927FF
S11328C08130910561F0823091051CF4892B21F04F
S11328D00DC0029739F00AC061E080E005C061E0F4
S11328E0862F02C061E082E00E94C00C1F910F910C
S11328F0FF90EF900895EF92FF920F931F936091D2
S11329004F02262F33278CE090E0289FF001299F67
S1132910F00D389FF00D1124E45DFC4F828599275A
S1132920AA27BB27EE24FF2487019C01AD0188E080
S11329300E94BC05882341F420E032E040E050E0EE
S113294061E082E00E940A0B1F910F91FF90EF90CB
S11329500895909165048CE0989FF0011124E45D42
S1132960FC4F2091610430916204409163045091C2
S1132970640480819181A281B381281739074A07B1
S11329805B0749F492858781981729F4992319F0F4
S113299084E080931704089520E030E0D9018CE0AE
S11329A0289FF0011124E45DFC4F878192858917EB
S11329B0D1F02093490290939C024FEF50E0E7E559
S11329C0F4E085E090E0419301976FEF8F3F960725
S11329D0D1F7A20FB31FA453BE4F84E08C93C90157
S11329E00E940B1508952F5F3F4F15962330310534
S11329F0B4F28FEF8093490280939C022FEF30E072
S1132A00E7E5F4E085E090E0219301974FEF8F3FF5
S1132A109407D1F708959C01833091059CF4FC013F
S1132A20EE0FFF1FEE0FFF1FE80FF91FE80FF91F4E
S1132A30E953FE4F8481893029F089E08483C901F8
S1132A400E9423150895CF92DF92EF92FF920F9385
S1132A501F9377ECC72E71E0D72E7C01EE0CFF1C80
S1132A60EE0CFF1CE80EF91EE80EF91E87010C0D92
S1132A701D1DF8018481282F33272150304081E027
S1132A8090E0A0E0B0E004C0880F991FAA1FBB1F0C
S1132A902A95D2F780839183A283B3830E949315EE
S1132AA09C0144275527F80180819181A281B3813B
S1132AB00197A109B109282339234A235B230196ED
S1132AC0A11DB11D820F931FA41FB51F8083918385
S1132AD0A283B383F701E453FE4F80818E7F80830A
S1132AE00E94BF158C0181E00E94F41571E0F80189
S1132AF0EE0FFF1FEE0FFF1FE00FF11FE00FF11F9E
S1132B00EC0DFD1D80819181A281B3819C01AD01F9
S1132B10672F872F0E940A0B1F910F91FF90EF9050
S1132B20DF90CF900895EF92FF92CF93DF930E94AE
S1132B308C01282FC091F603D091F7037E018F2DCD
S1132B40881F8827881FCC0FDD1F882321F08BE086
S1132B5090E1C827D9272196D093F703C093F603B1
S1132B6080910B0290910C02C827D927822F0E94D2
S1132B708A01CE01DF91CF91FF90EF9008950F93DA
S1132B801F93CF93DF93C0E0D0E061E070E005E0F5
S1132B9010E0D801A60FB71FA953BE4FFE01EE0FD8
S1132BA0FF1FEE0FFF1FEC0FFD1FEC0FFD1FE9537E
S1132BB0FE4F2D913D914D915C9180819181A28137
S1132BC0B381281739074A075B0708F4EB016F5FE5
S1132BD07F4F0B5F1F4F63307105DCF2CE01DF9135
S1132BE0CF911F910F910895EF92FF920F931F932E
S1132BF08B3008F04AC091E0E92EF12C012D112D03
S1132C0004C0EE0CFF1C001F111F8A95D2F780919F
S1132C10500490915104A0915204B09153048E2118
S1132C209F21A023B1230097A105B10571F10E9452
S1132C308C01E094F094009510952091500430910B
S1132C40510440915204509153042E213F214023BA
S1132C5051232093500430935104409352045093D1
S1132C6053040E948A018091500490915104A091D0
S1132C705204B09153040097A105B10519F481E001
S1132C808093260381E090E002C080E090E01F91F1
S1132C900F91FF90EF9008950E94CC1481E00E9460
S1132CA0B50481E090E00E940B1582E090E00E9460
S1132CB00B150895DF92EF92FF920F931F93CF931A
S1132CC0DF93D82E7B01042FE90110914F041123C7
S1132CD021F581E080934F044E3130F480ED9CE285
S1132CE00E94C402882319F410934F0416C0D09391
S1132CF02402C09323020883EE82FF82D886E091E7
S1132D002302F0912402809122018187812F815F27
S1132D108D32E8F381E090E002C080E090E0DF9142
S1132D20CF911F910F91FF90EF90DF9008951F9323
S1132D30CF93C1E010E00E948C01282F80911404ED
S1132D40882391F580917004992781FF08C083EB53
S1132D5093E090934C0280934B0280E41AC082FF6C
S1132D600FC0E091D901F091DA01F0934C02E093A5
S1132D704B0282E48093DE01808199270A960DC07C
S1132D8083FF12C08CEF91E090934C0280934B022E
S1132D908FEF8093DE0181E090E0909300028093B6
S1132DA0FF011C2FC0931404822F0E948A01112357
S1132DB009F10E948C0110926B0110926A0126E0C5
S1132DC030E03093100320930F030E948A018EE7B2
S1132DD00E94FF16C82F813069F00E948C01982F41
S1132DE088E080931404892F0E948A018BE197E183
S1132DF00E94C4028C2F9927CF911F9108951F938D
S1132E00CF93C82F0E948C011091B00391E090934E
S1132E10B0030E948A01112319F080E090E008C0F9
S1132E200E948C01CCB95E9A0E948A0181E090E0F4
S1132E30CF911F910895CF93C1E00E948C01982FE8
S1132E4080911404883019F4C0E0C0931404892FCD
S1132E500E948A018091DE01803449F40E948C0131
S1132E609091700422E092279093700419C00E94FC
S1132E708C01282F8091700494E08927809370043A
S1132E80822F0E948A018091D9019091DA016C2FDE
S1132E900E9456170E948C011092DA011092D901F7
S1132EA00E948A010E949716CF910895FC01109206
S1132EB04F0480859927823A910591F0833A9105D0
S1132EC044F48A30910509F448C0813A9105A9F186
S1132ED044C0833A910589F0843A910571F13DC06B
S1132EE08091DD018530C9F580911A048150809369
S1132EF01A0480E00E94B01730C020914101822F53
S1132F00869586958695E82FFF27E057FD4F277015
S1132F1081E090E002C0880F991F2A95E2F7982F6C
S1132F20909580818923808322E030E040E050E066
S1132F3061E083E00E940A0B10C010922A01809184
S1132F40DD0199278230910519F0049721F005C01D
S1132F500E94D10402C00E941F1981E090E00895EC
S1132F60882359F00E94931590709C01442755279B
S1132F70205F3F4F4F4F5F4F0BC00E9493158F77D9
S1132F8090709C014427552720583F4F4F4F5F4F67
S1132F9061E083E00E940A0B0895EF92FF920F9381
S1132FA01F937B018C010E948C01982FE0921802E0
S1132FB0F092190200931A0210931B0281E080938D
S1132FC04E04892F0E948A018FEFE816F10401054F
S1132FD0110521F018F064E08FEF02C064E08E2D3B
S1132FE00E94F91781E090E01F910F91FF90EF90FC
S1132FF008951F93CF93182FC62F683018F080E0E0
S113300090E01DC0C8600E948C01982F15BC87B742
S11330108F7787BF87B78F7B87BFC0939B0210933F
S11330200E0314BC13BD86B7806886BF87B780685B
S113303087BFC5BD892F0E948A0181E090E0CF91AE
S11330401F910895DF92EF92FF920F931F93D090F8
S1133050490200910A02202F33278CE190E0289F37
S1133060F001299FF00D389FF00D1124E85AFD4F0F
S1133070838114819927AA27BB27BC01CD0120E5B0
S113308034E040E050E00E9455349B01AC0187E1FC
S1133090189FC0011124AA27BB27280F391F4A1FD4
S11330A05B1F205F3F4F4F4F5F4F8CE1089FC00174
S11330B01124835A9D4F67E1E62EF12C8C016D2D6E
S11330C086E00E94BC059927882311F480935D044F
S11330D01F910F91FF90EF90DF9008954F925F92B0
S11330E06F927F928F929F92AF92BF92CF92DF9214
S11330F0EF92FF920F931F93CF93C82F2A013B01A6
S1133100470158016701780189019A01AB016C2FCD
S113311081E00E94A306282F8823D9F0730162015D
S1133120C80CD91CEA1CFB1CEC2FFF27EE0FFF1F59
S1133130EE0FFF1FE152FE4F80819181A281B38186
S11331408C159D05AE05BF0520F4C082D182E282B4
S1133150F382822F9927CF911F910F91FF90EF90C7
S1133160DF90CF90BF90AF909F908F907F906F90A3
S11331705F904F900895EF92FF920F931F93982FB3
S113318080912901882319F080E090E007C0909392
S1133190A10282E08093290181E090E0882319F460
S11331A080E090E047C09091A102809115028823AD
S11331B019F080E090E005C09F5F9093150281E0D4
S11331C090E0009779F1809115028150833019F4D1
S11331D060E070E00CC09927FC01EE0FFF1FEE0FBA
S11331E0FF1FE80FF91FEB51FC4F61817281EE2440
S11331F0FF2487019701A80184E00E94180D9927F4
S1133200882311F0992704C08093980280E090E00D
S11332109927882311F0992704C08093150280E030
S113322090E09927882321F48FE29CE20E94C40253
S113323081E090E01F910F91FF90EF9008958091AD
S1133240DD018430B1F580912A01882309F05FC043
S113325081E080932A0185E00E94B5048091A60252
S11332609091A70290933E0180933D0180910001CB
S1133270909101019093400180933F018091490214
S113328080934301282F33278CE090E0289FF0019E
S1133290299FF00D389FF00D1124E45DFC4F8481CB
S11332A09581909342018093410180919C02809387
S11332B044018091DD01853051F5809121028823FC
S11332C031F080E00E94B01710922102089580919D
S11332D01A04882321F481E00E94B504089546E08D
S11332E050E067E574E085E491E00E9488198091DC
S11332F03D0190913E0123E331E04EE0BC0182EABE
S11333000E945A169927882311F40E94B017089531
S11333109C01D901FB01415050408FEF4F3F5807AA
S113332041F081918D93415050408FEF4F3F5807AA
S1133330C1F7C90108950F931F93CF930E943E04D0
S11333400E94A91A0E948C011092B0030E948A0163
S113335001E010E00E948C01282F1092FF031092CC
S1133360AF031092960210924E028DE194E0909376
S11333701A038093190310921D04822F0E948A015C
S11333800E948C01482F209100013091010181E5B8
S113339097E3289FB001299F700D389F700D112469
S11333A0CB018F5A984C9093F7038093F603909334
S11333B06A048093690485E89FE0289FB001299FEF
S11333C0700D389F700D1124CB018B57904F909343
S11333D00C0280930B02842F0E948A0180910001C9
S11333E0909101019093160480931504C0E00E940B
S11333F08C01982F80912B01882319F400932B01C1
S1133400C02F892F0E948A01CC2319F480E090E018
S113341091C000930E04BB98BA9AB99AD69AD59AD9
S1133420B89A16988E988C98BF980E948C01B99A75
S1133430BB98BA9A709A6C9A6B986A9869986898CB
S11334406E9A0E948A010E943E040E948C01282FD9
S113345084E0809357028FEF90E090936C04809304
S11334606B04822F0E948A0180E098EF9093B80346
S11334708093B70382EE92E09093BA038093B903EA
S113348080E095E09093BC038093BB0380E890EECA
S11334909093BE038093BD038FE097EA9093C0039B
S11334A08093BF03809103019927806E9066909367
S11334B0C2038093C10385EE92E19093C403809389
S11334C0C30386E59AE09093C6038093C503909165
S11334D0020185E0989FC0011124825D9E4F906493
S11334E09093C8038093C70384EC91E09093CA033C
S11334F08093C9031092CC031092CB031092CE0395
S11335001092CD038FE792E09093D0038093CF0382
S11335101092D2031092D1030E948C01982F82E062
S113352080932B01892F0E948A0189E39EE20E94E5
S1133530C402C80110924F0410921C0410921B0480
S113354010929E0210929D029927CF911F910F9184
S113355008950E948C01682F80E090E04CE651E0D1
S11335609C01F901E80FF91FE752FC4F448355838E
S113357012821382118201962B5F3F4F435D5F4F8E
S11335808230910574F31092140410921003109277
S11335900F03109200021092FF0110926B0110921F
S11335A06A011092DA011092D90110920D0410925E
S11335B0B2031092180410921D0210921C02109271
S11335C04102109240028091DD039091DE039093BA
S11335D0010480930004862F0E948A0108950F93AA
S11335E01F93CF93DF93CDB7DEB725970FB6F8942B
S11335F0DEBF0FBECDBF8E010F5F1F4F45E050E011
S1133600B80180EE9FE00E948504809100019091B2
S1133610010189839A83809122018B8363E0C8012D
S11336200E94AF0B9C018C819D818217930749F006
S11336302C833D8345E050E0B80180EE9FE00E947A
S11336402C1B25960FB6F894DEBF0FBECDBFDF91BD
S1133650CF911F910F910895CF92DF92EF92FF9235
S11336600F931F93CF93DF938A01EC016B01840FB7
S1133670951F8150904118F080E090E016C0EE2430
S1133680FF24E416F50668F4F60161916F01CE019A
S11336900E944A3421960894E11CF11CE016F106BC
S11336A098F3E199FECF81E090E0DF91CF911F91F3
S11336B00F91FF90EF90DF90CF9008950F931F9399
S11336C0CF93C82F062F8A3080F40E948C01182FC4
S11336D00E947B1BEC2FFF27E55EFC4F0083812FAC
S11336E00E948A0181E090E002C080E090E0CF91E6
S11336F01F910F9108950E948C01282F80917104CD
S1133700882361F480E090E0EBE1F3E0819301969B
S11337108A309105DCF381E080937104822F0E944A
S11337208A0108950E947B1B84E086B93698349AF6
S1133730339A379881E090E008950F931F93CF93C5
S11337400E94A91A109290008FE089B982E08BB987
S113375086E08093950088ED8AB900E00E948C0190
S1133760C82F8091FF03882359F480E99DE20E94C9
S1133770C402882329F001E081E090E08093FF03F4
S11337808C2F0E948A01112728EE33E040E050E09C
S113379060E084E00E940A0BC82F10924F040E943C
S11337A0810B002319F08C2F992702C080E090E050
S11337B09927CF911F910F9108950F931F93CF9342
S11337C0DF93182FEB010E948C01282F10920E0416
S11337D0C0981FB9779BFECF0FB11F3040F08D2FDB
S11337E099278FB9779BFECFCFB9779BFECF81E026
S11337F080930E04822F0E948A01C09A802F9927F9
S1133800DF91CF911F910F9108951F93182F0E945C
S11338108C01C0981FB9779BFECF1FB10E948A010B
S1133820C09A812F99271F91089578941F920F921F
S11338300FB60F9211242F933F934F935F936F937F
S11338407F938F939F93AF93BF93CF93EF93FF9304
S11338500E948C01982F80912C02882369F080911A
S113386011038093FE0388608093110383BF8091CA
S11338703D0281BF10922C02892F0E948A010E946E
S11338808C01C82F8091120390911303892B21F48A
S11338908DE19BE20E94C40221B7809112039091B2
S11338A01303820F911D01969093130380931203C7
S11338B08C2F0E948A01FF91EF91CF91BF91AF911C
S11338C09F918F917F916F915F914F913F912F9134
S11338D00F900FBE0F901F901895CF93C82F0E9482
S11338E08C01982FEC2FFF27E55EFC4F808187B970
S11338F08081883019F4C83009F4AA9A379A369A24
S1133900892F0E948A0181E090E0CF910895FF926F
S11339100F931F93CF93DF93FF240E948C01482FB2
S113392080910304882311F011E0F12E2091B50356
S11339303091B6032115310541F480910B03909128
S11339400C03892B11F4C1E0FC2E232B11F41092EB
S1133950320180910B0390910C03892B19F481E0BF
S113396080933201842F0E948A01FF2009F0E7C06E
S113397000913201002309F469C0C0911002D09172
S11339801102C230D10591F1C330D10530F4209732
S113399059F0219709F4D3C059C0C330D10509F4B3
S11339A0CEC0249709F052C081E090E090931102B8
S11339B0809310021D9A159AA898A0988AE00E94F4
S11339C0F4150E948C0111E0109303040E948A01F3
S11339D0109232012AE030E040E050E0612F8AE0AA
S11339E00E940A0B811709F4AAC06BC00E948C01C3
S11339F011E0109303040E948A010E948C01082F95
S1133A002091520230915302C9018C239D23892BAA
S1133A1011F01F2D12C0C22BD32BD0935302C0938D
S1133A205202232B51F481E090E09093730480932D
S1133A307204812F0E946D1C182F802F0E948A010E
S1133A40113009F071C01092320179C0002309F0DD
S1133A5070C0C0911002D0911102C230D10589F01A
S1133A60C330D10530F4209761F0219709F467C081
S1133A7060C0C330D10509F462C0C430D10531F14E
S1133A8058C083E090E090931102809310021D9837
S1133A901598A89AA09A8AE00E94F4150E948C01B5
S1133AA011E0109303040E948A01109332012AE06A
S1133AB030E040E050E0612F8AE00E940A0B811759
S1133AC0F1F110921102109210022EC00E948C018A
S1133AD011E0109303040E948A010E948C01F82EC5
S1133AE02091520230915302C9018C239D23892BCA
S1133AF011F0102F12C0C22BD32BD0935302C093BA
S1133B005202232B51F482E090E09093730480934B
S1133B10720482E00E946D1C182F8F2D0E948A016E
S1133B20812F9927813049F087E89CE10E94C402E3
S1133B3006C080E0002309F481E080933201DF9124
S1133B40CF911F910F91FF900895CF930E948C0104
S1133B50109273041092720410920A0410920904D1
S1133B6010925302109252020E948A010E94921BE8
S1133B70C82F6EE187E00E945E1B882319F08C2F0A
S1133B80992702C080E090E09927CF9108950F9380
S1133B901F93CF930E948C01C09107020E948A0157
S1133BA0CC2319F511E00E948C01082F20915202B8
S1133BB03091530227FF02C01C2F12C0C901806834
S1133BC09093530280935202232B51F487E090E0A8
S1133BD0909373048093720487E00E946D1C182FE5
S1133BE0802F0E948A01112319F480E090E00BC019
S1133BF00E948C01982F81E080930702892F0E94F4
S1133C008A0181E090E0CF911F910F9108951F9355
S1133C10CF93DF93182F0E948C01282F10920E044B
S1133C20C09810641FB9779BFECF8FB11FB8779BE4
S1133C30FECF8FB1C82FDD271FB8779BFECFDC2FB7
S1133C40CC278FB19927C82BD92BC09A81E08093B8
S1133C500E04822F0E948A01CE01DF91CF911F9121
S1133C600895882319F08EB5806402C08EB58F7BC9
S1133C708EBD86B7806286BF0895EF92FF920F9340
S1133C801F93CF93DF938C017B019CE0899FE0011C
S1133C901124C45DDC4F80912A01282F332722236D
S1133CA009F04EC0809100019091010190933E0172
S1133CB080933D0182E080933F01922F809106041E
S1133CC0882309F491E0909340018FE594E00E94E9
S1133CD0A71E882361F42FEF30E0EFE5F4E089E0DC
S1133CE090E0219301974FEF8F3F9407D1F74AE07B
S1133CF050E06FE574E081E491E00E948819CE0100
S1133D000E94930B882329F48FEF9FEF8C839D836C
S1133D100E834CE050E0BE018BE491E00E948819D0
S1133D2083E0EDE3F1E0828F23E331E04CE1B7017E
S1133D3081EA0E945A169927813011F480932A014E
S1133D40DF91CF911F910F91FF90EF9008950F9302
S1133D501F93CF93DF93EC0100E010E068E00E9432
S1133D60AF0B9C01888599858217930729F0888178
S1133D7099818F5F9F4F11F401E010E0C801DF913A
S1133D80CF911F910F9108958091A002883061F422
S1133D90959A95980000000080E090E0829902C016
S1133DA081E090E08093B40381E080932202DB9A67
S1133DB080EB9CE20E94C40281E090E008957F922F
S1133DC08F929F92AF92BF92CF92DF92EF92FF9227
S1133DD00F931F93CF93DF937C01209100013091C7
S1133DE0010180919D0290919E02019690939E0202
S1133DF080939D02F70181A5813009F016C3918556
S1133E0080912201981709F010C386819781FFEFF2
S1133E108F3F9F0721F08217930709F006C3F7012C
S1133E20908580E0815F8D32E8F3892F9927823A6B
S1133E30910509F408C2833A910544F4803291054E
S1133E4071F0813A910509F4CDC0EFC2833A91052E
S1133E5009F463C2843A910509F4BFC2E6C20E9420
S1133E608C01C82F8091020482FF08C00E948C013B
S1133E70982FD89A809102048B7F07C00E948C01EE
S1133E80982FD89880910204846080930204892F2B
S1133E900E948A018C2F0E948A010E948C01C82FE3
S1133EA0D7011A96F70182858093260110922F017B
S1133EB010922E0199278230910509F449C083306C
S1133EC091052CF4009751F0019769F087C0833075
S1133ED0910549F1049709F440C080C090932D01E5
S1133EE080932C0175C020910B0430910C04213077
S1133EF0310509F073C080912C0190912D01892B1B
S1133F0009F06CC030932D0120932C0112968D91F1
S1133F109C911397AA27BB279C01AD0160E087E021
S1133F200E940A0B5BC080910B0490910C040297D1
S1133F3009F054C081E090E090930C0480930B044A
S1133F4028EE33E040E050E060E0862F0E940A0B48
S1133F500E94A51D0E94C71D41C080910B04909131
S1133F600C040197D9F510922D0110922C0182E0D6
S1133F7090E090930C0480930B0480E00E94F4156D
S1133F800E948C01982FDA9A809102048E7F80938C
S1133F900204892F0E948A010E948C01982FD99AC9
S1133FA0809102048D7F80930204892F0E948A01EC
S1133FB00E948C01982FD89A809102048B7F809361
S1133FC00204892F0E948A010E94A51D0E94C71D18
S1133FD087E00E94F41588E00E94F4158C2F0E945B
S1133FE08A0123C2E7012A968C8868E1A62EB12CA7
S1133FF0AE0CBF1C77248A81823009F016C2C70137
S11340000E960E94A71E882309F40FC2809197027E
S1134010813009F00AC28CE0889E80011124045D7D
S11340201C4F4B81442349F1433079F0F50124813D
S11340303581F8018481958128173907B9F4F50190
S11340409285F8018285981789F4882D9927F701BC
S1134050628573850E943D1E2C813D8180915F04A1
S1134060909160042817390741F4DFC1443029F4E2
S11340702E96CE010E942422D8C12C813D818091AC
S11340805F049091600428173907C1F12F5F3F4FF7
S1134090A9F18A85833090F599270E940B158C81AC
S11340A09D8120915F0430916004821B930B18164C
S11340B0190624F5CE0104964AE050E0BC018FE5D0
S11340C094E00E9488194AE050E06FE574E086EEBF
S11340D09FE00E942C1B80916504882321F484E0D6
S11340E08093170402C00E94A9148B81823031F49A
S11340F0882D9927688179810E943D1E5EE0C52E36
S1134100D12CCC0EDD1EC6010E94930B882309F42A
S11341108CC19090970241E0941609F086C18820E2
S113412051F48B81823009F080C1888199818E3766
S1134130910509F07AC1F50124813581F801848162
S113414095812817390721F1FFEF8F3F9F0759F019
S11341504FEF2F3F340709F46EC0281B390B12169A
S113416013060CF068C0C6010E9424228FEF8093CE
S1134170490280939C022FEF30E0E7E5F4E085E00C
S113418090E0219301974FEF8F3F9407D1F753C0ED
S1134190F5013285F8012285231750F5882D9927DA
S11341A0FC01EE0FFF1FEE0FFF1FE80FF91FE80FD2
S11341B0F91FE453FE4F10811695E9F50990D88153
S11341C0C02D8091DD018130B1F5809149028815BF
S11341D091F584E00E94B504D093A702C093A6028F
S11341E090921A0410932102892D0E94B01723C0C3
S11341F0882D9927321780F4FC01EE0FFF1FEE0F74
S1134200FF1FE80FF91FE80FF91FE453FE4F8081E9
S11342108170846080830FC0FC01EE0FFF1FEE0FDE
S1134220FF1FE80FF91FE80FF91FE453FE4F8081C9
S113423081608083792C772009F0F7C0882D992735
S11342400E940B15F2C0E7012A968091DD018823B4
S113425009F4EBC01E81133008F0E7C00F81602F12
S1134260812F0E945822F701228533858091000115
S1134270909101012817390709F0D7C0212F33275E
S11342808CE090E0289FF001299FF00D389FF00DFD
S11342901124E45DFC4F248135818C819D8182173A
S11342A0930709F0C2C08285081708F0BEC02091A8
S11342B0DD01213061F0822F82508230B0F4809190
S11342C02502181791F480914B04081771F4D70153
S11342D05296E0E9F2E0AF014B5F5F4F80819D9120
S11342E0892B81934E175F07CCF7213009F09DC0CD
S11342F082E00E94B5041093250200934B048A8146
S11343009B818E37910511F08FEF9FEF9093A70259
S11343108093A6020E94D10488C0E7012A96809166
S1134320DD01882309F481C08A81833008F07DC0CF
S11343306B810E9458224A81242F33278CE090E01D
S1134340289FF001299FF00D389FF00D1124E45DA2
S1134350FC4F24813581F701828593858217930769
S113436009F063C080914902481709F05EC09B813F
S113437080919C02981709F058C02C81822F869551
S113438086958695E82FFF27E95AFB4F8081992768
S1134390277002C0959587952A95E2F780FF45C05E
S11343A090915D04923008F040C080910A02892700
S11343B09CE1899FC0011124885A9D4F4CE150E033
S11343C0BE010E94881980915D048F5F80935D0413
S11343D0813059F50E94221828C0E7012A96888D59
S11343E0998D8E37910519F08F5F9F4FF1F480916D
S11343F02A018823D1F4309356012093550148E1D2
S113440050E064E071E08DE391E00E948819888DAA
S1134410998D23E331E04AE1BC0184EA0E945A16F3
S11344209927813011F480932A01C701DF91CF913C
S11344301F910F91FF90EF90DF90CF90BF90AF90BE
S11344409F908F907F900895FC0180915402823058
S113445019F080E090E00895868180934F028823CC
S113446011F483E001C084E08093540290914F02E0
S11344708CE0989FC0011124845D9C4F4CE050E077
S1134480BF010E94881980914F02282F33278CE0A6
S113449090E0289FF001299FF00D389FF00D112422
S11344A0E45DFC4F12860E94E10B81E090E00895E8
S11344B0282F9091DD01892F82508230C0F48091A1
S11344C02502281730F0281711F580914B0468173E
S11344D0F0F481E00E94B504E0E9F2E085E090E0C8
S11344E0119201972FEF8F3F9207D1F708959450BF
S11344F0923068F480914902281730F0281739F473
S113450080919C02861718F081E08093210208951F
S11345101F920F920FB60F9211242F933F934F9334
S11345205F936F937F938F939F93AF93BF93CF9337
S1134530EF93FF9380919602882371F18091FF039A
S1134540853051F580914E04882331F10E948C010D
S1134550982F10924E0487B78F7787BF892F0E94B8
S11345608A010E9493159C012F7330702F5F3F4F77
S1134570C90173E0880F991F7A95E1F7820F931FA1
S1134580820F931F855B9F4FAA2797FDA095BA2F93
S1134590BC01CD010E94CD1780E090E0B79981E085
S11345A0892B19F40E94F92212C00E948C01C82F91
S11345B086E39EE20E94C402882321F089B78F7BA0
S11345C089BF02C00E94F9228C2F0E948A01FF91A8
S11345D0EF91CF91BF91AF919F918F917F916F9107
S11345E05F914F913F912F910F900FBE0F901F90AD
S11345F018951F9389B78F7B89BF8FE30E94071E8D
S113460018E0812F0E94051C812F0E94051C0E9426
S11346108C0110924E020E948A010E948C01982FF4
S11346208AB780628ABF8AB78F7E8ABF89B780645F
S113463089BF892F0E948A011F9108950F931F93A8
S1134640CF93DF9380E090E0B79981E0892B11F458
S11346500E9B93C00E948C01182FC0914E02CC2354
S113466049F086E39EE20E94C402882331F40E944A
S1134670F92203C081E080934E02812F0E948A01B7
S1134680CC2309F07AC00091190310911A030E94F7
S11346908C01982F80912503882311F0C1E003C079
S11346A081E080932503892F0E948A01CC2309F09D
S11346B04FC00E948C01282FC0931E021093EC015E
S11346C00093EB01C0988FE78FB9779BFECF8FB132
S11346D01FB8779BFECF8FB180936F04882321F19D
S11346E0E091EB01F091EC01808380916F048F5F86
S11346F080936F048A3218F089E280936F0491E00A
S113470080916F04981780F41FB8779BFECFE091D7
S1134710EB01F091EC01E90FF11D8FB180839F5FF4
S113472080916F04981780F381E080931E02822F9A
S11347300E948A01C09A83E49EE20E94C402C82FA8
S1134740882349F40E948C01C09325030E948A01A6
S113475080E090E002C081E090E0C82FDD27CC2308
S113476061F40E948C01C0934E020E948A0186E388
S11347709EE20E94C402882311F40E94F922DF9170
S1134780CF911F910F9108950F931F930E948C0155
S1134790982F82E08093FF030091F4031091F503B6
S11347A0F80180818B508083892F0E948A0161E007
S11347B0C8010E9456171F910F9108950E948C0101
S11347C0982F82E08093FF03892F0E948A01E09151
S11347D0F403F091F50380818B5080838091F4037E
S11347E09091F50360E00E945617089578941F9203
S11347F00F920FB60F9211242F933F934F935F9311
S11348006F937F938F939F93AF93BF93EF93FF9394
S11348100E948C01282F80910D03882381F08091C0
S11348204A0280935702886080934A028EBD809129
S11348306B0490916C049BBD8ABD10920D03822F72
S11348400E948A01FF91EF91BF91AF919F918F9147
S11348507F916F915F914F913F912F910F900FBE78
S11348600F901F9018951F93CF93DF93EC018091C5
S1134870FF0399278330910519F0049799F176C0C5
S11348800E948C01182F87B78F7D87BF86B78062FF
S113489086BF80E00E94311E86B7846086BF8EB5D5
S11348A08F7E8EBD8EB5877F8EBD87B7806287BFB2
S11348B0812F0E948A01849907C087B78F7D87BFA3
S11348C086B7806286BF03C084E08093FF03E091D3
S11348D0F403F091F503C3A7D4A78091FF038430B8
S11348E009F44AC086E08093FF0387B78F7D87BFB2
S11348F086B7806286BF0E948C01182F87B78F7D90
S113490087BF86B7806286BF81E00E94311E86B76A
S1134910846086BF8EB58F7E8EBD8EB5877F8EBD3B
S113492087B7806287BF812F0E948A018091960297
S1134930882399F0E091F403F091F503868197813F
S11349408F5F9F4F51F082E0809312026BE470E01E
S113495080E090E00E94CD1704C084EC93E20E94B2
S1134960C402882349F40E94DE2306C0E09119039F
S1134970F0911A03C3A7D4A706B601FE03C086B7F5
S1134980846086BFDF91CF911F91089578941F9220
S11349900F920FB60F9211242F933F934F935F936F
S11349A06F937F938F939F93AF93BF93CF93DF9333
S11349B0EF93FF930E948C01982F8091FA01882332
S11349C059F08091560488608093560485BD809187
S11349D00E0383BD1092FA01892F0E948A010E945E
S11349E08C01C0911802D09119020E948A01CF3F14
S11349F0D10508F041C087B78F7787BF0E948C012B
S1134A0010924E040E948A010E948C01C091FF03FF
S1134A100E948A018091120299278130910581F0C8
S1134A20823091051CF4892B21F03DC0029759F086
S1134A303AC086E695E20E94C4028823A1F519C013
S1134A400E94D02530C0C63071F50E948C01982F89
S1134A50E091F403F091F50312A687E08093FF033D
S1134A60892F0E948A0184EC93E20E94C402882365
S1134A70D1F40E94DE2317C0CD2FDD270E948C01C4
S1134A80282FCE01AA27BB278093180290931902DE
S1134A90A0931A02B0931B02822F0E948A0164E041
S1134AA08C2F0E94F917FF91EF91DF91CF91BF9165
S1134AB0AF919F918F917F916F915F914F913F91B2
S1134AC02F910F900FBE0F901F901895EF92FF92A9
S1134AD01F93CF9389E00E94051C882309F459C0D1
S1134AE0C091C601CF5FE090F403F090F50310E0AD
S1134AF00E948C01982F8091ED01882311F011E020
S1134B0003C081E08093ED01892F0E948A01112363
S1134B10C9F50E948C01382F10931E02C093FD0327
S1134B20F0923F02E0923E02C0988EE38FB9779BE9
S1134B30FECF1FB190E02091FD03921778F4E0912D
S1134B403E02F0913F0281918FB9F0933F02E093CE
S1134B503E02779BFECF9F5F921788F381E080939C
S1134B601E02832F0E948A01C09A8AE39EE20E9459
S1134B70C402C82F882349F40E948C01C093ED011C
S1134B800E948A0180E090E002C0812F9927882347
S1134B9011F40E94DE23CF911F91FF90EF900895AE
S1134BA01F930E948C011091FF030E948A0115300B
S1134BB009F0A2C080E090E0B79981E0892B21F44C
S1134BC00E9902C00E94F922869B5CC00E948C014F
S1134BD0982F83E08093FF03892F0E948A0115E0B8
S1134BE0812F0E94051C80E00E94051C86958695F5
S1134BF0869580FF1CC00E948C01182F87B78F7D7B
S1134C0087BF86B7806286BF81E00E94311E86B767
S1134C10846086BF8EB58F7E8EBD8EB5877F8EBD38
S1134C2087B7806287BF812F0E948A0165C00E9476
S1134C308C011093FF030E948A010E9493158F73C5
S1134C40907001969C01A3E0220F331FAA95E1F70F
S1134C50280F391F280F391F81E080931202211574
S1134C60310529F462E070E080E090E005C0C901FC
S1134C70AA27BB27BC01CD010E94CD179927882301
S1134C80D9F538C08091EE01982F81508093EE01C0
S1134C90992361F40E94F92288E08093EE0186E66C
S1134CA095E20E94C402882339F524C00E9493151A
S1134CB08F73907001969C01F3E0220F331FFA95D5
S1134CC0E1F7280F391F280F391F81E08093120262
S1134CD02115310529F462E070E080E090E005C020
S1134CE0C901AA27BB27BC01CD010E94CD17992772
S1134CF0882311F40E94DE231F9108950F931F93BC
S1134D00082F80910D0499278230910509F46BC016
S1134D10833091052CF4009759F0019781F1B3C1C8
S1134D208330910509F49AC0049709F455C1ABC1C5
S1134D300E3709F0AAC18091B2039927FC01EE0F46
S1134D40FF1FEE0FFF1FE80FF91FE80FF91FE752CF
S1134D50FC4F82819381009709F097C1118290934F
S1134D6041028093400290931D0280931C0284812F
S1134D709581909301048093000481E081C10E37F2
S1134D8009F483C18091B2039927FC01EE0FFF1F40
S1134D90EE0FFF1FE80FF91FE80FF91FE752FC4F52
S1134DA000838091400290914102ECE8F0E0202FD2
S1134DB02927220FF11DE20FF11DC895982F802D90
S1134DC03196C89590259093410280934002802F9C
S1134DD099278134910529F08234910509F44FC152
S1134DE052C182E04DC10E3709F44DC18091B20326
S1134DF00D3779F49927FC01EE0FFF1FEE0FFF1F0B
S1134E00E80FF91FE80FF91FE752FC4F80E2818396
S1134E103CC19927FC01EE0FFF1FEE0FFF1FE80FA7
S1134E20F91FE80FF91FE752FC4F21812027218346
S1134E308091400290914102ECE8F0E02927220F92
S1134E40F11DE20FF11DC895982F802D3196C8955C
S1134E509025909341028093400211C180911C02DD
S1134E6090911D028932910508F0B8C00D3711F4F4
S1134E7084E006C10E3709F079C0029708F45AC0DD
S1134E8080911C0281500E944A28A0910004B09194
S1134E900104FD01E80FF11D80819927182F0027D7
S1134EA080911C0290911D02A80FB91F12978C913A
S1134EB00E944A289927082B192B1093410200932A
S1134EC040028091B2039927FC01EE0FFF1FEE0F01
S1134ED0FF1FE80FF91FE80FF91FE752FC4F8091FD
S1134EE01C0290911D0202978283938387E59FE2BF
S1134EF00E94C4028091B2038F5F81708093B203D9
S1134F009927FC01EE0FFF1FEE0FFF1FE80FF91F9B
S1134F10E80FF91FE752FC4F82819381892BD9F462
S1134F2084819581909301048093000481E08093AF
S1134F300D0413C08091B2039927FC01EE0FFF1FEB
S1134F40EE0FFF1FE80FF91FE80FF91FE752FC4FA0
S1134F5012821382118210920D0410924102109257
S1134F60400210921D0210921C028FC080911C02FC
S1134F700E944A28E0910004F0910104E80FF11D19
S1134F80008340911C0250911D0242305105E8F00B
S1134F902091400230914102E0910004F09101041B
S1134FA0E40FF51F32978081ECE8F0E08327880F47
S1134FB0F11DE80FF11DC895322F202D3196C895AB
S1134FC0302530934102209340024F5F5F4F50934E
S1134FD01D0240931C0259C00E37D1F410924102B5
S1134FE01092400210921D0210921C028091B20392
S1134FF09927FC01EE0FFF1FEE0FFF1FE80FF91FAB
S1135000E80FF91FE752FC4F1282138211823BC052
S113501080E2082780911C020E944A28E091000443
S1135020F0910104E80FF11D008340911C0250919E
S11350301D0242305105E8F02091400230914102B6
S1135040E0910004F0910104E40FF51F3297808190
S1135050ECE8F0E08327880FF11DE80FF11DC895F7
S1135060322F202D3196C89530253093410220935C
S113507040024F5F5F4F50931D0240931C0283E038
S113508080930D0402C010920D0481E090E01F9102
S11350900F910895843010F48A5F06C0843019F4A7
S11350A080E090E008958B5F992708951F930E94F4
S11350B08C011091B0031092B0030E948A01112355
S11350C009F4C2C080911404873031F4109214049E
S11350D08BE197E10E94C40221E080911404992796
S11350E08430910509F48CC08530910554F48230E4
S11350F0910561F1833091050CF076C0019749F078
S11351009AC08630910509F48FC006970CF481C0CB
S113511092C082E08093140420916A0130916B0163
S11351208091DE01ECE8F0E08327880FF11DE80FA1
S1135130F11DC895322F202D3196C8953025309316
S11351406B0120936A018091DE0172C08091DE01BF
S113515020916A0130916B014CE850E0E0914B02E0
S1135160F0914C0260910F0370911003803411F0A0
S1135170E60FF71F6081762FFA017327770FF11D71
S1135180E70FF11DC895922F802D3196C895902573
S113519090936B0180936A0180910F0390911003A7
S11351A001969093100380930F030A9721F41092B1
S11351B0100310920F0380910F0390911003019735
S11351C031F48AE090E09093100380930F032091D0
S11351D00F03309110038091FF0190910002281772
S11351E0390798F084E00FC080914A0490E289273F
S11351F00E94FF16282F8091F803809314041BC08B
S113520060916A0185E080931404862F0E94282906
S113521011C080916A0190916B01292F332786E098
S113522080931404822FF2CF87E0809314048EE7D6
S11352300E94FF16282F213039F088E0809314044F
S11352408BE197E10E94C40281E090E01F910895F0
S1135250CF93C82F8D57823070F40E948C019091A7
S113526014049093F80393E090931404C0934A04B5
S11352700E948A01CDE78C2F0E94FF169927CF91B7
S11352800895EF92FF920F931F93CF93DF937C01C6
S11352900E948C01182F80917204C82FDD2721E011
S11352A030E00C2E02C0220F331F0A94E2F78091E3
S11352B0090490910A0482239323892B69F4379873
S11352C0209530958091520290915302822393232A
S11352D09093530280935202409152025091530290
S11352E04115510511F120917204309173042F5F1F
S11352F03F4F2C30310511F0C90102C080E090E02D
S11353009C0181E090E0022E02C0880F991F0A944C
S1135310E2F784239523892B51F33093730420936C
S11353207204809172040E946D1C812F0E948A0174
S1135330C230D10509F442C0C330D10524F4C130D0
S1135340D10531F09AC0C730D10509F46FC095C0BA
S11353500E948C01109203042091B5033091B6038E
S11353602230310518F02230310521F01092B603B5
S11353701092B5030E948A0187E89CE10E94C4024E
S11353800E948C01182FF0920302E09202020E9404
S11353908C011092B6031092B5030E948A01809189
S11353A02E0190912F01019690932F0180932E014D
S11353B0029709F05DC083EC9AE258C00E948C0108
S11353C01092030420910B0330910C032230310519
S11353D018F02230310521F010920C0310920B03C7
S11353E00E948A0187E89CE10E94C4020E948C0109
S11353F0182FF0921803E092170380912E019091D8
S11354002F01019690932F0180932E01029721F48E
S113541083EC9AE20E94C402812F0E948A010E94B6
S11354208C0110920C0310920B0323C00E948C0178
S1135430F0921104E09210040E948A018BEC9FE226
S11354400E94C402182F8823B1F40E948C01109387
S113545007020E948A010E948C01182F8FEF9FEF90
S113546090934D0480934C048AE69AE20E94C4020D
S1135470812F0E948A0101E001C000E011270E94EF
S11354808C01682F0023D1F441E050E002C0440FA6
S1135490551FCA95E2F72091090430910A04C90105
S11354A084239523892B51F03798CA0180959095D0
S11354B02823392330930A0420930904862F0E9459
S11354C08A0181E090E0DF91CF911F910F91FF90CD
S11354D0EF9008950E948C01282F10922F011092B2
S11354E02E01809114029DE2899FF0011124E15A5A
S11354F0FC4F81E0808380910B0490910C048130F7
S1135500910511F082E090E08783908780913001CB
S1135510909131018383948380914C0490914D0444
S1135520818792871092030210920202109218034C
S11355301092170381E090E08583968380910001A7
S11355409091010181839283822F0E948A0190911C
S113555014028DE2989FC00111248B5A9C4F9C0128
S11355604FE060E070E08AE00E945A16882351F010
S11355700E948C019091140221E0922790931402CE
S11355800E948A0108951F930E948C01482F109253
S11355902F0110922E0120913001309131012F5FA3
S11355A03F4F3093310120933001809114021DE26A
S11355B0819FF0011124E15AFC4F10828091020274
S11355C09091030287839087809117039091180329
S11355D081879287238334831092030210920202FC
S11355E0109218031092170382E090E0858396834B
S11355F0809100019091010181839283842F0E9404
S11356008A0180911402819FC00111248B5A9C4FFE
S11356109C014FE060E070E08AE00E945A16882303
S113562051F00E948C019091140221E092279093F2
S113563014020E948A011F9108959F92AF92BF9213
S1135640CF92DF92EF92FF920F931F93CF93DF934A
S113565081E0809326030E948C01C0901203D090B5
S1135660130310921303109212030E948A01809173
S1135670500490915104A0915204B09153040097A6
S1135680A105B10509F495C09924C8EAD2E0AA2479
S1135690BB24F1E0EF2EF12C012D112D0A2C04C0B6
S11356A0EE0CFF1C001F111F0A94D2F780915004C6
S11356B090915104A0915204B09153048E219F21E2
S11356C0A023B1230097A105B10509F469C096018F
S11356D0442755278D819E81AF81B885821B930B0A
S11356E0A40BB50B8D839E83AF83B8870397A10565
S11356F0B1050CF055C08FEF9FE20E94C4028823CD
S113570009F445C08881882389F48D819E81AF8105
S1135710B88529813A814B815C81820F931FA41F34
S1135720B51F8D839E83AF83B8871AC0A8019701E4
S11357302095309540955095809150049091510456
S1135740A0915204B091530482239323A423B5233C
S11357508093500490935104A0935204B093530443
S113576080915E048A3019F48FEF80935E049091E7
S11357705E049F5F90935E0480912B028F5F809301
S11357802B02E92FFF27E151FE4F908209C080913F
S1135790D6039927AA27BB278D839E83AF83B88717
S11357A093940894A11CB11C29968AE0891508F0E9
S11357B070CF0E948C01C0901203D09013030E94FA
S11357C08A01CD2811F40E949001DF91CF911F919D
S11357D00F91FF90EF90DF90CF90BF90AF909F908C
S11357E0089587B799278C7F009719F080E090E09F
S11357F01AC06F9918C0379B03C088E090E013C0AB
S113580087B7992783709070892B59F081B792B725
S1135810891B803118F48CE190E005C088E190E0A8
S113582002C080E190E0382F8093DC0125B7237E0D
S11358308C3121F0883111F008C0000080B799271D
S113584087709070892BC9F7237E232B25BF85B7DA
S1135850806285BF089580E00E942E08089581E04B
S11358600E942E080895EF92FF920F931F93809148
S11358701F0280FD66C080911502882319F080E024
S113588090E005C084E08093150281E090E00097E9
S113589099F1809115028150833019F46FEF77E00C
S11358A00EC09927FC01EE0FFF1FEE0FFF1FE80F3C
S11358B0F91FEB51FC4F618172816150784FEE24E6
S11358C0FF2403E010E02DE032E0A70181E00E9414
S11358D0180D9927882311F0992704C08093980202
S11358E080E090E09927882311F0992704C08093E1
S11358F0150280E090E09927282F3327222319F5F9
S113590080911F028B7F80931F028091200240911F
S11359100F0499278130910561F0823091051CF4C0
S1135920892B21F010C0029739F00DC061E0822F5D
S113593005C061E0862F02C061E082E00E94C00CD5
S113594002C00E94D5131F910F91FF90EF9008950C
S113595081E00E947B0D089580E00E947B0D0895F4
S113596080912202882321F0109222020E941012B8
S113597008950E94C41E089584E0809354020E94F6
S1135980E10B089582E08093540290911904809170
S11359906504981711F40E94A9140E94CC14089568
S11359A0CF92DF92EF92FF921F93CF93DF93CDB705
S11359B0DEB722970FB6F894DEBF0FBECDBFE090DE
S11359C02302F0902402F701868197818E37910596
S11359D0C9F411E00E948C019091700492FD08C0FA
S11359E0946090937004F092DA01E092D90101C0BE
S11359F010E00E948A01113019F40E949716182FA2
S1135A00612F78C00E948C011091FF030E948A01CB
S1135A10123009F06CC088E0F7018283809196020D
S1135A20882311F081E202C081E0F70181838FEFC6
S1135A309FEFF701848395832681378181E08983F1
S1135A401A8240E050E089819A818130910509F4FD
S1135A50AC01452B19F4C32ED22E01C06901F70104
S1135A60C682D7828081855F80838091AF038F5FF8
S1135A708093AF03838313A614A6808182508093FE
S1135A80C601F092F503E092F40388E08093EE01FE
S1135A900E9493158F70907001969C01B3E0220FC1
S1135AA0331FBA95E1F7280F391F280F391F1092B9
S1135AB012022115310529F462E070E080E090E0E3
S1135AC005C0C901AA27BB27BC01CD010E94CD177F
S1135AD09927882361F00E948C01982F85E0809398
S1135AE0FF03892F0E948A0181E090E002C080E0D8
S1135AF090E0682F662331F4809123029091240270
S1135B000E94561722960FB6F894DEBF0FBECDBF83
S1135B10DF91CF911F91FF90EF90DF90CF90089588
S1135B20EF92FF920F931F93CF9300E00E948C019A
S1135B309091FF03913019F40093FF03092F0E9401
S1135B408A01013009F08CC00E948C01C091FF03CE
S1135B500E948A01CC2309F083C00E948C01982FF3
S1135B608AE08093FF03C093EE01E0911903F09162
S1135B701A03C083892F0E948A010E948C01C0935A
S1135B804E040E948A011C2F0E948C01982F809140
S1135B902B01823021F483E080932B01102F892F75
S1135BA00E948A01112309F45BC00E948C01E090D9
S1135BB06B04F0906C04109157020E948A011770D4
S1135BC018600E948C01982FCFBD87B78F7E87BF46
S1135BD087B78B7F87BF87B78F7D87BF1DBC1CBCF2
S1135BE0FBBCEABC86B7806186BF1EBD892F0E94BC
S1135BF08A01DD9A88E592E00000000000000000C0
S1135C000000000000000000019718161906A4F314
S1135C10DE9800000000DE9A0000000068E170E0F9
S1135C208DE10E94DD1B11E00E948C0110939F0204
S1135C300E948A0180B39927C6E096958795CA95F4
S1135C40E1F7817090708093480221E030E040E0F9
S1135C5050E0612F86E00E940A0B812F0E94051CF0
S1135C60CF911F910F91FF90EF9008950E941E23F2
S1135C70089508950E948C011092ED010E948A01FA
S1135C800E94D02508958F929F92AF92BF92CF9297
S1135C90DF92EF92FF920F931F93CF93DF93CDB7D1
S1135CA0DEB722970FB6F894DEBF0FBECDBF8824AF
S1135CB099240E948C01E0906F04A090EB01B090B5
S1135CC0EC01109225030E948A010E948C0110911C
S1135CD0FF030E948A01C401B79981E0892B11F462
S1135CE00E9B71C0EE2009F46EC089E28E1508F493
