S01800006275696C642F6D6963617A2F6D61696E2E73726563E5
S11300000C9446010C9463010C9463010C94030258
S11300100C9463010C9463010C9463010C94942676
S11300200C9463010C94F62B0C9463010C94BB02A6
S11300300C94262B0C9463010C9463010C94F22011
S11300400C9463010C9463010C94EA020C94630114
S11300500C9414030C9439030C9463010C94630101
S11300600C9463010C9463010C9463010C9463017C
S11300700C9463010C9463010C9463010C9463016C
S11300800C9463010C9463010C946301000021102F
S1130090422063308440A550C660E77008812991EE
S11300A04AA16BB18CC1ADD1CEE1EFF13112100296
S11300B073325222B5529442F772D662399318833E
S11300C07BB35AA3BDD39CC3FFF3DEE36224433462
S11300D020040114E664C774A44485546AA54BB58E
S11300E028850995EEE5CFF5ACC58DD55336722636
S11300F011163006D776F6669556B4465BB77AA7DE
S113010019973887DFF7FEE79DD7BCC7C448E55881
S11301108668A7784008611802282338CCC9EDD92D
S11301208EE9AFF9488969990AA92BB9F55AD44AD5
S1130130B77A966A711A500A333A122AFDDBDCCB7D
S1130140BFFB9EEB799B588B3BBB1AABA66C877CA1
S1130150E44CC55C222C033C600C411CAEED8FFDCD
S1130160ECCDCDDD2AAD0BBD688D499D977EB66E75
S1130170D55EF44E133E322E511E700E9FFFBEEF1D
S1130180DDDFFCCF1BBF3AAF599F788F8891A981DF
S1130190CAB1EBA10CD12DC14EF16FE18010A100C9
S11301A0C230E3200450254046706760B9839893B9
S11301B0FBA3DAB33DC31CD37FE35EF3B102901219
S11301C0F322D2323542145277625672EAB5CBA585
S11301D0A89589856EF54FE52CD50DC5E234C32469
S11301E0A01481046674476424540544DBA7FAB759
S11301F09987B8975FE77EF71DC73CD7D326F236B9
S11302009106B01657667676154634564CD96DC9A4
S11302100EF92FE9C899E9898AB9ABA94458654808
S113022006782768C018E1088238A3287DCB5CDBF8
S11302303FEB1EFBF98BD89BBBAB9ABB754A545A58
S1130240376A167AF10AD01AB32A923A2EFD0FEDC4
S11302506CDD4DCDAABD8BADE89DC98D267C076CA8
S1130260645C454CA23C832CE01CC10C1FEF3EFF98
S11302705DCF7CDF9BAFBABFD98FF89F176E367EF8
S1130280554E745E932EB23ED10EF01E11241FBE45
S1130290CFEFD0E1DEBFCDBF11E0A0E0B1E0E4EDEF
S11302A0FDE700E00BBF02C007900D92A832B10732
S11302B0D9F71AE0A8E2B1E001C01D92AA32B10751
S11302C0E1F70C9486030C94000010922D01109217
S11302D02C010E94990110927A090E94970181E0F1
S11302E090E090936305809362050E9499011092B7
S11302F027020E9497010895EAE7F6E08FE292E070
S11303009F01225E3F4F819391938D962E173F0755
S1130310D4F71092720610926F05089510926A062F
S113032010928409109234091092330908958FBFF2
S113033008958FB7F89499270895AF92BF92CF92FA
S1130340DF92EF92FF920F931F93CF93DF9306EE0A
S1130350A090000AB090010AC090020AD090030A4B
S1130360A114B104C104D104C1F110E06CE976E038
S1130370EE24FF2481E090E0A0E0B0E00E2C04C065
S1130380880F991FAA1FBB1F0A94D2F78A219B21A9
S1130390AC21BD210097A105B10579F0202F3327A9
S11303A044275527FB0185819681A781B085821753
S11303B09307A407B5070CF405811F5F0894E11C9B
S11303C0F11C675F7F4F1D30A8F20E94990112B79C
S11303D01D5F011720F4012F02C00E9499010093B0
S11303E0570901BF1092FE080E9497010E94D60E81
S11303F0DF91CF911F910F91FF90EF90DF90CF90FD
S1130400BF90AF9008951F920F920FB60F921124D0
S11304102F933F934F935F936F937F938F939F9308
S1130420AF93BF93EF93FF9389B78B7F89BF8DE21F
S113043094E30E946003FF91EF91BF91AF919F916C
S11304408F917F916F915F914F913F912F910F9079
S11304500FBE0F901F901895FF920F931F93CF9389
S1130460DF938C01F62EEC0180916F05992701969C
S11304709C01807F9170281B390B8091720699270B
S113048028173907F9F0C8010E94842A8130D1F471
S11304908E819F8148819801BC018F2D0E94A920E3
S11304A0813081F480916F05E82FFF27EE0FFF1F45
S11304B0E658F94FC081D181008311838F5F8F701B
S11304C080936F05CE01DF91CF911F910F91FF9023
S11304D008950F931F93CF93FC01C62F042F4091CF
S11304E08409842F992701969C018C7F9170281B85
S11304F0390B80916A0699272817390719F11DE2EB
S1130500419F9001112423583A4F862F9927AC011B
S1130510BF01C9010E94771E80918409819FC00197
S113052011248D589A4F9C014C2F6FEF7FEF802F31
S11305300E94A920813031F4809184098F5F8370F7
S113054080938409CF911F910F91089520913309CD
S113055030913409821B930B181619064CF42F5F43
S11305603F4F309334092093330981E090E008959C
S113057080E090E008951F920F920FB60F9211241D
S11305800F931F932F933F934F935F936F937F9397
S11305908F939F93AF93BF93EF93FF930E9499011F
S11305A006B517B50E949701C8010E94632BFF91FD
S11305B0EF91BF91AF919F918F917F916F915F91D7
S11305C04F913F912F911F910F910F900FBE0F905C
S11305D01F9018951F920F920FB60F9211242F930C
S11305E03F934F935F936F937F938F939F93AF93B7
S11305F0BF93EF93FF935F9B06C08CB140E050E044
S113060060E00E94AE2DFF91EF91BF91AF919F9159
S11306108F917F916F915F914F913F912F910F90A7
S11306200FBE0F901F90189578941F920F920FB6DB
S11306300F9211242F933F934F935F936F937F9364
S11306408F939F93AF93BF93EF93FF930E94862F53
S1130650FF91EF91BF91AF919F918F917F916F9196
S11306605F914F913F912F910F900FBE0F901F906C
S113067018951F920F920FB60F9211242F933F9348
S11306804F935F936F937F938F939F93AF93BF9396
S1130690EF93FF9384B195B178940E947130FF91E8
S11306A0EF91BF91AF919F918F917F916F915F91E6
S11306B04F913F912F910F900FBE0F901F9018955F
S11306C0CF93DF93EC010E949901382F2091FC070E
S11306D0E22FFF27EE0FFF1FEA5BFA4F8081918123
S11306E0892B61F42F5F27702093FC07C083D1838B
S11306F0832F0E94970181E090E005C0832F0E9420
S1130700970180E090E0DF91CF910895CAEFD0E1A6
S1130710DEBFCDBFD29AD09AD19AA79AA69AA59AAB
S1130720A49AA39AA29AA19AA09ABB98BA9AB99A9F
S1130730D69AD59AB89816988E988C98BF988E9811
S1130740D498DC98D39A8B9A8D9ADB9ADA9AD89AB1
S1130750D99A83E08C5F8739E8F390E08AE080934C
S113076010029093FC079093680586E495E0FC01E1
S11307709C01225F3F4F119211920296281739076C
S1130780D4F761E0862F0E94B9050E94ED050E940E
S1130790990110923709109236090E9497010E941C
S11307A099011092290A1092280A10929009109225
S11307B08F0910926E0510926D050E9497010E9498
S11307C01F060E942A060E94650181E090E0682FBE
S11307D00E94B9050E94ED050E9499011092370903
S11307E0109236090E9497010E9499011092290AD9
S11307F01092280A1092900910928F0910926E0597
S113080010926D050E9497010E941F060E948E019E
S11308100E944C060E9468060E947C010E946806A1
S11308200E944C06EFEFF7E08FEE90E011920197F3
S11308302FEF8F3F9207D1F78EE790E09093380522
S11308408093370590933A058093390581E080932E
S113085041051092430510920202109201028FEF9B
S113086080932D0210926706109266061092FD087E
S11308701092FC0880E29EE4A0E0B0E08093040AB9
S11308809093050AA093060AB093070A10922502D2
S11308908091000190910101892B41F487E395E057
S11308A0909302028093010210922D020E944C0642
S11308B00E94ED050E9468060E94C5070E94C507B4
S11308C00E94ED050E9488060E94990110922D094C
S11308D00E9497010E94CE061092FF091092CD0942
S11308E01092CC09109271061092700680E0E7E62F
S11308F0F9E0108235968F5F8330D8F31092FF04AD
S113090010922A0210921C0281E080932E0980E04A
S113091098E090935F0580935E0590935C058093C7
S11309205B058091600590915D0582609260827E96
S113093080936005927E90935D05D39ADB9A959897
S11309408D9A939A8B9A92988A9889B78B7F89BF4C
S113095080916A00806380936A008E010F5F1F4F4D
S113096045E050E0B80180EE9FE00E94DA0763E0C2
S1130970C8010E94040F9C018C819D8182179307FA
S113098081F48B81809322010E949901282F89810F
S11309909A819093010180930001822F0E94970114
S11309A002C00E948A1E109270050E94C50761E071
S11309B0862F0E94B9050E94ED050E9499011092AC
S11309C03709109236090E9497010E9499011092EA
S11309D0290A1092280A1092900910928F091092F5
S11309E06E0510926D050E9497010E941F060E94D9
S11309F02A060E9465010E94ED050E949901109249
S1130A008809D29AD09AD19ADA9AD89AD99A0E9415
S1130A10970181E0B82E28EE33E040E050E06B2DE2
S1130A2089E00E945F0E0E9499011092370910928A
S1130A3036090E9497010E94F91E0E94F91E8FE94F
S1130A409FE10E9460038091040A9091050AA0919D
S1130A50060AB091070A9C01AD0160E08CE00E9497
S1130A605F0EB092F1070E94F91E809169068230F0
S1130A7011F40E94A319B092690680E090E00E94EC
S1130A80621880916906823011F40E94A319B09211
S1130A90690680E090E00E9462180E9488060E9425
S1130AA0281FC82EDD240E94361FE82EFF2428EEBE
S1130AB033E040E050E060E084E00E945F0E082FE5
S1130AC011271092FF090E94D60E202F4E2D6C2D57
S1130AD081E00E94891F80917005882341F420E2FF
S1130AE030E040E050E06B2D82E00E945F0E809188
S1130AF06906823011F40E94A319B092690680E05D
S1130B0090E00E94621828EE33E040E050E06B2D44
S1130B1089E00E945F0E80916205909163050197C0
S1130B2041F428EE33E040E050E060E0862F0E947C
S1130B305F0E78940E94990190916805E92FFF2730
S1130B40EE0FFF1FEA5BFA4F0081118101151105B9
S1130B5029F47894889500000000ECCF108211826B
S1130B609F5F9770909368050E949701F80109951B
S1130B70E1CF0F931F93CF93C82F062F8A3080F4B1
S1130B800E949901182F0E94D605EC2FFF27EF50E1
S1130B90F74F0083812F0E94970181E090E002C00B
S1130BA080E090E0CF911F910F9108950E949901E8
S1130BB0282F8091270A882361F480E090E0E1EFF8
S1130BC0F8E0819301968A309105DCF381E080930B
S1130BD0270A822F0E94970108951F931092000AFA
S1130BE01092010A1092020A1092030A1092FE084F
S1130BF08FEF8093120A8093DD011092350583E014
S1130C008093FF0816EE109357090E949901982FBC
S1130C1087B78E7F87BF87B78D7F87BF80B7886090
S1130C2080BF8BE083BF12BE11BF87B7826087BFCE
S1130C30892F0E94970181E090E01F9108950E94FE
S1130C40D60584E086B93698349A339A379881E089
S1130C5090E0089561E082E00E94B9050E94ED05EC
S1130C600E9499011092F4071092F3070E949701D1
S1130C700E9499011092290A1092280A1092900950
S1130C8010928F0910926E0510926D050E949701C3
S1130C900E941F0699270895E1E1F7E0CF018752EA
S1130CA09F4F12821582168237968E179F07CCF7B4
S1130CB01092F20710923401109233011092100A2C
S1130CC010920F0A81E08093CE0981E090E00895AC
S1130CD00E94ED050E9488060E94990110922D0938
S1130CE00E9497010E94CE06282F10925809109254
S1130CF005021092040210923305109232051092EC
S1130D00F10781E090E080930002822F99270895F3
S1130D100E949901682F80E090E04EE651E09C012A
S1130D20F901E80FF91FE55AF64F448355831282FF
S1130D301382118201962B5F3F4F435D5F4F8230D8
S1130D40910574F3109298091092F8071092F7071E
S1130D50109208021092070210926D0110926C0119
S1130D601092DC011092DB011092910910922F096C
S1130D701092C909109223021092220210925A056D
S1130D801092590580915F099091600990938709A9
S1130D9080938609862F0E9497010895CF930E941D
S1130DA09901282F1092850910922C091092680637
S1130DB0109269058FEC99E09093F0088093EF0806
S1130DC01092CF09822F0E9497010E949901482F07
S1130DD0209100013091010181E597E3289FB00142
S1130DE0299F700D389F700D1124CB018F5A984C98
S1130DF0909379098093780990931E0A80931D0A31
S1130E0085E89FE0289FB001299F700D389F700DE1
S1130E101124CB018B57904F9093130280931202AD
S1130E20842F0E9497018091000190910101909379
S1130E30C7098093C609C0E00E949901982F809148
S1130E402B01882321F481E080932B01C82F892F63
S1130E500E949701CC2319F480E090E093C081E0D4
S1130E6080939209BB98BA9AB99AD69AD59AB89AA5
S1130E7016988E988C98BF980E949901B99ABB983D
S1130E80BA9A709A6C9A6B986A98699868986E9AEC
S1130E900E9497010E94ED050E949901282F84E089
S1130EA0809327068FEF90E09093220A8093210A83
S1130EB0822F0E94970180E098EF909339098093E4
S1130EC0380982EE92E090933B0980933A0980E0DE
S1130ED095E090933D0980933C0980E890EE9093CF
S1130EE03F0980933E098FE097EA909341098093EC
S1130EF04009809103019927806E9066909343097D
S1130F008093420985EE92E19093450980934409C8
S1130F1086E59AE0909347098093460990910201EF
S1130F2085E0989FC0011124825D9E4F9064909348
S1130F3049098093480984EC91E090934B0980938C
S1130F404A0910924D0910924C0910924F091092BF
S1130F504E098FE792E090935109809350091092C3
S1130F605309109252090E949901982F82E08093AC
S1130F702B01892F0E94970187E095E30E9460036B
S1130F8081E090E09927CF910895109269064AE094
S1130F9050E063E17AE086EE9FE00E94DA0780E0A9
S1130FA00E940A088FEF8093640580936F0681E0A6
S1130FB090E00895CF92DF92EF92FF920F931F93E8
S1130FC0CF93DF938A01EC016B01840F951F81504D
S1130FD0904118F080E090E014C0EE24FF24E41661
S1130FE0F50668F4CE010E94EB3BF60181936F0194
S1130FF021960894E11CF11CE016F10698F381E0B7
S113100090E0DF91CF911F910F91FF90EF90DF90CF
S1131010CF900895CF93C82F8230A0F48091DF0140
S1131020833011F0853071F410922A0199278230AF
S1131030910519F0049721F005C00E94260802C00A
S11310400E940E1EC093DF01CF910895DF92EF92AC
S1131050FF920F931F93CF93DF93CDB7DEB7229701
S11310600FB6F894DEBF0FBECDBF2091DF01822FF3
S11310708250823008F084C080912E029927FC01AE
S1131080EE0FFF1FEE0FFF1FE80FF91FE80FF91F08
S1131090E253FE4F808181608083223051F580913C
S11310A02A01082F1127002309F06AC081E08093E8
S11310B02A0183E00E940A0840912E02242F33273C
S11310C08CE090E0289FF001299FF00D389FF00DEF
S11310D01124EC5FF64F84819581909340018093B5
S11310E03F01409341018091FD09809342010093A7
S11310F0430180914301992720E330E040E656E024
S1131100BC01CE0101960E94CE08882321F481E01F
S11311100E940A0835C0198110934301D0902E0211
S11311208091FD099927AA27BB27BC01CD0120E5A1
S113113034E040E050E00E94893E9B01AC0187E12D
S1131140189FC0011124AA27BB27280F391F4A1F43
S11311505B1F205F3F4F4F4F5F4F97E1E92EF12C0C
S113116004E411E06D2D85E00E941109882341F407
S113117020E130E040E050E061E083E00E945F0E57
S113118022960FB6F894DEBF0FBECDBFDF91CF918C
S11311901F910F91FF90EF90DF900895CF92DF920F
S11311A0EF92FF920F931F93CF93DF936C018B0108
S11311B07A01E9012115310539F429C0F60160836A
S11311C0718321E030E023C0FB0143E0F695E7950D
S11311D04A95E1F7EE0DFF1D8081282F3327CB01BF
S11311E08770907002C0359527958A95E2F7F901CA
S11311F0E170F07020FDE2CF6F5F7F4FCB01BE0145
S11312000E94B43EBC0180179107F1F69F01C90109
S1131210DF91CF911F910F91FF90EF90DF90CF90CE
S11312200895CF92DF92EF92FF920F931F93CF9383
S1131230C82F862FBA01A9019801870190E0E82FF1
S1131240FF27EE0FFF1FE45EFE4FE081809128012F
S1131250823019F080E090E0C3C0AC2FBB27A630E9
S1131260B10509F446C0A730B10554F4A430B10562
S113127009F43FC0A530B105E4F41397D1F0AAC036
S1131280A830B10541F0A830B1050CF44DC0199750
S113129009F45DC09FC040931A02842F9927880FD8
S11312A0991F4096AC01662777272BE635E002E0CC
S11312B010E06801EE24FF24FF27E130F10571F00E
S11312C0E230F1051CF4EF2B21F082C0329759F083
S11312D07FC089019A01AB0160E009C089019A01CC
S11312E0AB0161E004C089019A01AB0162E086E0D0
S11312F06CC0C801AA27BB277C018D01FF27E13000
S1131300F10559F0E230F1051CF4EF2B21F060C037
S1131310329729F05DC080E003C081E001C082E023
S11313200E945D1D682F55C0FF27E130F10559F07B
S1131330E230F1051CF4EF2B21F04AC0329721F082
S113134047C0892F01C081E00E94AA1DEBCF0E2F58
S1131350112701301105C9F00230110524F40115DB
S1131360110529F035C002301105F9F031C0C090E3
S1131370E101D090E201E090E301F090E40120E08B
S113138030E040E050E0692F1FC0C090E501D090EC
S1131390E601E090E701F090E80100E010E020E0D1
S11313A030E040E050E061E00FC0C090E901D0902F
S11313B0EA01E090EB01F090EC0100E010E020E0A5
S11313C030E040E050E0682F83E00E94F809AACFA3
S11313D060E0962F913011F4C0932801892F99274A
S11313E0CF911F910F91FF90EF90DF90CF900895D0
S11313F0CF92DF92EF92FF920F931F93982F8091D9
S11314002901882319F080E090E006C060937506F6
S11314109093290181E090E0882319F480E090E022
S113142024C0209328093093290940932A09509312
S11314302B0910938B0900938A09C0927606D092E7
S11314407706E0927806F0927906C0927C09D092F1
S11314507D09E0927E09F0927F091092FE071092B6
S1131460FD070E943C0A81E090E01F910F91FF90DC
S1131470EF90DF90CF900895AF92BF92CF92DF921A
S1131480EF92FF920F931F93CF93DF93C0908A093B
S1131490D0908B09C0912809D0912909E0912A099B
S11314A0F0912B098D2F9E2FAF2FBB277C01AFEF1F
S11314B0AA2EB12CAC22BD2200E011E00A191B09AE
S11314C0C801AA27BB2720917C0930917D0940914E
S11314D07E0950917F09281739074A075B0720F4D2
S11314E000917C0910917D09C801AA27BB27281BFC
S11314F0390B4A0B5B0B20937C0930937D09409395
S11315007E0950937F09C80FD91FEA1FFB1FC093A0
S11315102809D0932909E0932A09F0932B09C601DD
S1131520800F911F90938B0980938A0980912901E0
S1131530E82FFF27E630F10509F451C0E730F10543
S11315403CF4E130F10549F0339709F48BC0D0C085
S11315503897329708F0CCC085C090917506809179
S11315601B02882319F080E090E004C09F5F9093F1
S11315701B02CF01009779F180911B0281508330C7
S113158011F4B7010EC09927FC01EE0FFF1FEE0FF7
S1131590FF1FE80FF91FE959F64F618172816E0D43
S11315A07F1DEE24FF249601A50183E00E946D10A7
S11315B09927882311F0992704C080936B0680E053
S11315C090E09927882311F0992704C080931B0287
S11315D080E090E09927882309F08AC085C0909123
S11315E0750680911B02882319F080E090E005C005
S11315F09F5F90931B0281E090E0009779F18091C6
S11316001B028150833011F4B7010EC09927FC01ED
S1131610EE0FFF1FEE0FFF1FE80FF91FE959F64FFA
S1131620618172816E0D7F1DEE24FF249601A50158
S113163081E00E946D109927882311F0992704C036
S113164080936B0680E090E09927882311F0992716
S113165004C080931B0280E090E09927882309F05E
S113166047C042C0909175062091FD073091FE0756
S113167080911B02882319F080E090E005C09F5FF1
S113168090931B0281E090E0009761F180911B022E
S11316908150833011F4C7010EC09927FC01EE0F6D
S11316A0FF1FEE0FFF1FE80FF91FE959F64F818165
S11316B092818E0D9F1DA801B5010E9407179927DD
S11316C0882311F0992704C080936B0680E090E092
S11316D09927882311F0992704C080931B0280E086
S11316E090E09927882321F483EA93E30E9460031E
S11316F0DF91CF911F910F91FF90EF90DF90CF90EA
S1131700BF90AF900895CF92DF92EF92FF920F9324
S11317101F93682F2091290110922901C090760609
S1131720D0907706E0907806F090790680917C0955
S113173090917D09A0917E09B0917F09C81AD90AB8
S1131740EA0AFB0A8091280990912909A0912A09A3
S1131750B0912B098C199D09AE09BF098093280902
S113176090932909A0932A09B0932B0980918A099F
S113177090918B098C199D0990938B0980938A0908
S11317803327263031056CF4233031050CF06DC05D
S11317902130310509F469C02230310509F465C0EE
S11317A075C0293031052CF4273031050CF06EC09A
S11317B004C02930310521F169C08091750620915A
S11317C028093091290940912A0950912B09009147
S11317D08A0910918B0999278130910559F082303B
S11317E091051CF4892B21F051C0029729F04EC0B9
S11317F080E003C081E001C082E00E944F0C46C03B
S1131800809175064091FD075091FE07282F3327DC
S11318102130310559F02230310524F421153105E8
S1131820B1F034C02230310581F030C0E0E0F0E0A6
S113183080916B0590916C054817590709F4F901DB
S1131840F0936C05E0936B051EC020E030E08091BE
S11318506B0590916C054817590711F421E030E0AD
S113186030936C0520936B050EC080917506992703
S11318708130910541F0823091051CF4892B19F0D7
S113188005C0029719F4862F0E94A90C81E090E00C
S11318901F910F91FF90EF90DF90CF900895CF921A
S11318A0DF92EF92FF920F931F93CF93082FC62FCF
S11318B080911A02882339F420E031E040E050E0BE
S11318C060E573E00FC09927AA27BB27BC01CD01AF
S11318D020E534E040E050E00E94893E9B01AC01E9
S11318E060E574E0CC2351F580912801853031F115
S11318F0205F3F4F4F4F5F4F6B01EE24FF241127B2
S11319000130110569F00230110524F401151105A7
S113191029F011C00230110539F00DC06C2F07C039
S113192000E010E061E003C000E010E062E089E064
S11319300E94F80901C080E0882319F48C2F0E94CA
S1131940A90CCF911F910F91FF90EF90DF90CF9052
S11319500895DF92EF92FF920F931F93CF93DF933B
S1131960CDB7DEB722970FB6F894DEBF0FBECDBF5A
S1131970182F8091280102E0D02ED09228019927B7
S11319808530910509F457C0863091055CF48330A5
S11319909105C1F0843091050CF06AC1019709F4F6
S11319A074C17FC18730910509F4C4C087309105A3
S11319B00CF461C08830910509F4D6C0099709F484
S11319C035C16FC1112309F033C190916A058CE0D0
S11319D0989FC00111248C5F964F0E94E80E8823C3
S11319E099F040916A05242F33278CE090E0289FDA
S11319F0F001299FF00D389FF00D1124EC5FF64F94
S1131A008681841709F4D0C040916A05242F3327B6
S1131A108CE090E0289FF001299FF00D389FF00D95
S1131A201124EC5FF64F8FEF9FEF848395834683F9
S1131A3017831287BCC00091DF01033009F031C164
S1131A40112321F081E00E940A082BC180919A069B
S1131A5090919B0625E331E04CE1BC0183EA0E94AE
S1131A60B119882309F01DC120E130E040E050E0C5
S1131A7061E0802FE3C080911102482F55278CE14B
S1131A8090E0489FF001499FF00D589FF00D1124FC
S1131A90E85DF94F2481822F869586958695E82FF7
S1131AA0FF27E75FF54F277081E090E002C0880FC1
S1131AB0991F2A95E2F7982F909580818923808336
S1131AC04F5F5F4FCA019A012E7F3370821B930BC5
S1131AD0809311028091110A81508093110A20E3AE
S1131AE030E049E05AE060E070E0CE0101960E94E7
S1131AF0CE088823B9F4909164059093CA09809123
S1131B007005823049F4933038F485E08093700591
S1131B1090936A050E94360F81E00E940A08109291
S1131B20110ABFC08091110A882309F4BAC00E9427
S1131B30111DB7C0112309F07BC060916A058CE0C8
S1131B40689FC00111248C5F964F1CE0E12EF12C9C
S1131B508C0120E030E040E050E084E00E94110974
S1131B60882309F09EC064C090916B05112309F08D
S1131B705FC0809170058130E9F49923C1F08091B0
S1131B806A05282F33278CE090E0289FF001299FD5
S1131B90F00D389FF00D1124EC5FF64F82858F5FB6
S1131BA082879781891718F40E94D0177AC00E94FF
S1131BB01B0F77C060916A05992381F4262F332780
S1131BC08CE090E0289FF001299FF00D389FF00DE4
S1131BD01124EC5FF64F128784E047C0262F332789
S1131BE08CE090E0289FF001299FF00D389FF00DC4
S1131BF01124EC5FF64F4285242F33272F5F3F4F8C
S1131C00878199272817390774F0EE24FF24870168
S1131C1020E030E040E050E089E00E941109882390
S1131C2009F03FC005C04F5F428722C0112349F02D
S1131C3020E032E040E050E061E08D2D0E945F0E34
S1131C4030C040916A05242F33278CE090E0289F10
S1131C50F001299FF00D389FF00D1124EC5FF64F31
S1131C6087818287442321F486E08093700517C01E
S1131C70D09270059091CA098091190A981711F4AD
S1131C800E94FE170E9421180CC0112311F4109316
S1131C902801113021F410926A05109370050E94F6
S1131CA0360F22960FB6F894DEBF0FBECDBFDF917C
S1131CB0CF911F910F91FF90EF90DF900895AF9215
S1131CC0BF92CF92DF92EF92FF920F931F93CF9325
S1131CD059016A018D3048F462303CF4662341F4C2
S1131CE0233031054105510518F480E090E054C0DB
S1131CF0E82EFF24870183E0000F111F8A95E1F786
S1131D000E0D1F1D0456194FF801A182B282C38221
S1131D10D48260830E949901C82F82B7A80EB11C97
S1131D20C11CD11CF801A582B682C782D08621E0ED
S1131D3030E040E050E004C0220F331F441F551F21
S1131D40EA94D2F78091000A9091010AA091020AC4
S1131D50B091030A822B932BA42BB52B8093000AFA
S1131D609093010AA093020AB093030A8091570941
S1131D709927AA27BB27A816B906CA06DB0638F492
S1131D80A0925709A1BE1092FE080E94D60E8C2F75
S1131D900E94970181E090E0CF911F910F91FF90F5
S1131DA0EF90DF90CF90BF90AF9008958091250180
S1131DB018162CF085E693E30E94600306C085B7ED
S1131DC0837E85BF85B7806285BF80E090E00895FB
S1131DD00F931F93CF93DF93EC0100E010E068E0D2
S1131DE00E94040F288539852817390739F4232BD5
S1131DF029F08E81833010F401E010E0C801DF91F6
S1131E00CF911F910F910895DC0120E030E066230B
S1131E1081F08D91ECE8F0E08327880FF11DE80F45
S1131E20F11DC895322F202D3196C895302561506B
S1131E3081F7C901089581E08093700580916A0556
S1131E408F5F80936A05833018F40E94360F0895DB
S1131E5082E08093700580916906813011F40E94BC
S1131E60A31981E090E080938C090895EF92FF928A
S1131E700F931F9310E080917005282F3327233090
S1131E80310509F479C02430310544F421153105B4
S1131E9091F02130310509F45DC091C02530310540
S1131EA009F47DC0253031050CF46BC026303105B2
S1131EB009F479C084C080912801882311F0C901F4
S1131EC07DC010932F0580911C0160911D019927FD
S1131ED081309105B9F0823091051CF4892B21F0F1
S1131EE02FC00297E9F02CC0E62FFF27EE0FFF1F4B
S1131EF0EE0FFF1FEF51FE4F1082118212821382E8
S1131F00812F1BC0E62FFF27EE0FFF1FEE0FFF1FD1
S1131F10EF51FE4F108211821282138281E00DC0B4
S1131F20E62FFF27EE0FFF1FEE0FFF1FEF51FE4FAF
S1131F30108211821282138282E00E94F00F01C08B
S1131F4080E09927282F813011F480932801822F73
S1131F50992734C060916A058CE0689FC001112400
S1131F608C5F964F2CE0E22EF12C8C0120E030E0C7
S1131F7040E050E083E010C000E010E080E394E330
S1131F8016C080916A05EE24FF24870120E030E02A
S1131F9040E050E0682F87E00E9411090FC00E94C2
S1131FA0D01711E00CC000E010E086E394E30E9437
S1131FB06003882311F001E010E0802F182F112313
S1131FC041F420E032E040E050E061E082E00E9431
S1131FD05F0E812F99271F910F91FF90EF90089525
S1131FE0382F2091260222FD0DC09927FC01EE0F07
S1131FF0FF1FEE0FFF1FE80FF91FE959F64FE081AD
S1132000EE2319F080E090E00895246020932602E6
S11320103093280260939309E0931D0287EA93E3C7
S11320200E94600381E090E00895262F662311F05A
S113203080E04CC0E0912F05EF5FE0932F05E33083
S113204008F047C0FF27EE0FFF1FE45EFE4F8081BC
S11320506181992781309105B9F0823091051CF492
S1132060892B21F02FC00297E9F02CC0E62FFF271F
S1132070EE0FFF1FEE0FFF1FEF51FE4F1082118274
S113208012821382822F1BC0E62FFF27EE0FFF1F41
S1132090EE0FFF1FEF51FE4F108211821282138246
S11320A081E00DC0E62FFF27EE0FFF1FEE0FFF1F8D
S11320B0EF51FE4F108211821282138282E00E943D
S11320C0F00F01C080E09927882331F40E94A90C05
S11320D0089581E00E94A90C0895EF92FF920F9356
S11320E01F93E82F88E06030780790F4F1E04830DF
S11320F05F0770F481E00930180750F4CA01800FBB
S1132100911F8950914020F48091FF04882319F095
S113211080E090E040C0E093FF04E0915609EE2394
S113212029F080E294E30E94600333C03093720587
S11321302093710510936B0100936A0170930B0255
S113214060930A025093240A4093230AF0925A0996
S1132150E092590980915B0590915C0568177907B5
S113216019F4E093FF0113C080915E0590915F051F
S11321706817790721F481E08093FF0108C09E2F3E
S11321808091FF01882309F491E09093FF010E945C
S11321909A1381E090E01F910F91FF90EF900895C2
S11321A00F931F93CF93282F8091FF041092FF0465
S11321B099278430910509F434C1853091055CF484
S11321C08230910509F4C7C0833091050CF002C137
S11321D0019749F032C1873091050CF415C1099774
S11321E00CF02BC11BC1C0911B0210921B02C150E9
S11321F080917506C817A1F480917C0990917D099E
S1132200A0917E09B0917F090097A105B10511F055
S1132210222321F4822F0E94211202C00E943C0A30
S1132220C33009F00AC19091260290FD66C08091E6
S1132230160295E0899FA00111244F5F5F4F8091A2
S11322401B02882319F080E090E005C084E08093AD
S11322501B0281E090E0009779F180911B0281508C
S1132260833019F48FEF97E00EC09927FC01EE0F2D
S1132270FF1FEE0FFF1FE80FF91FE959F64F818189
S113228092818150984F20E030E062E070E00E943B
S113229007179927882311F0992704C080936B06A8
S11322A080E090E09927882311F0992704C0809357
S11322B01B0280E090E09927282F3327222309F07E
S11322C0BCC0809126028B7F8093260280912802D5
S11322D04091930999278130910559F082309105F5
S11322E01CF4892B21F0A9C0029729F0A6C061E053
S11322F028C061E029C061E02AC080912802282F0B
S11323003327F901EE0FFF1FEE0FFF1FE20FF31F3C
S1132310E959F64F408180919309481709F057C055
S11323209B7F909326022130310569F022303105DC
S11323301CF4232B29F081C02230310539F07DC0F3
S113234060E080E005C060E081E002C060E082E01F
S11323500E94151072C00091590910915A09C09138
S11323601B0210921B02C15080917506C817C1F45C
S11323701093FE070093FD0780917C0990917D09DD
S1132380A0917E09B0917F090097A105B10511F0D4
S1132390222321F4822F0E94211202C00E943C0AAF
S11323A0C33009F04AC020912602216020932602FE
S11323B030E080911402909115020817190709F072
S11323C031E0330F822F8D7F832B809326020E946E
S11323D02A1733C090911B0210921B0291508091D6
S11323E07506981751F580917C0990917D09A0910B
S11323F07E09B0917F090097A105B105D9F0222388
S1132400C9F00E943C0A19C090911B0210921B0251
S1132410915080917506981781F40CC010921B029C
S11324200CC090911B0210921B0291508091750672
S1132430981719F4822F0E942112CF911F910F91A6
S11324400895CF92DF92EF92FF920F931F93813002
S113245009F02CC18091290199278430910509F450
S113246089C0853091051CF4039749F01CC187305D
S1132470910509F4ACC0089709F4FDC014C180911A
S1132480FD07809362018091FD079091FE07892FDB
S113249099278093630160917506E62FFF27EE0F5D
S11324A0FF1FEE0FFF1FEF51FE4F808180936401E9
S11324B02081318142815381BB27A52F942F832F03
S11324C080936501CA01AA27BB2780936601852FE3
S11324D09927AA27BB278093670181EB8093680122
S11324E08CE08093690184E08093290180911B0230
S11324F0882319F080E090E005C06F5F60931B02B1
S113250081E090E0009791F180911B02815083302B
S113251019F460E070E00CC09927FC01EE0FFF1F76
S1132520EE0FFF1FE80FF91FE959F64F6181728121
S1132530EE24FF2408E010E022E631E040E051E020
S113254083E00E946D109927882311F0992704C015
S113255080936B0680E090E09927882311F09927F7
S113256004C080931B0280E090E09927882309F03F
S1132570A1C09CC085E0809329019091750680914B
S11325801B02882319F080E090E005C09F5F9093C0
S11325901B0281E090E00097B1F086E00E94611395
S11325A09927882311F0992704C080936B0680E053
S11325B090E09927882311F0992704C080931B0287
S11325C080E090E09927882309F074C06FC080915F
S11325D06801813B09F04DC0809169018C3009F09C
S11325E048C060917506E62FFF27EE0FFF1FEE0F20
S11325F0FF1FEF51FE4F80916401282F332744279A
S11326005527809165019927AA27BB27BA2FA92F9F
S1132610982F8827282B392B4A2B5B2B8091660116
S11326209927AA27BB27DC0199278827282B392B30
S11326304A2B5B2B809167019927AA27BB27B82FC8
S1132640AA2799278827282B392B4A2B5B2B2083F1
S11326503183428353831092290169017A0100E096
S113266010E020E030E040E050E088E00E94F8090B
S113267021C082E015C080916201282F3327809108
S113268063019927982F8827282B392B8091FD07E0
S11326909091FE078217930711F480E001C083E054
S11326A00E94830B07C08FE993E302C083EA93E39C
S11326B00E9460031F910F91FF90EF90DF90CF90E5
S11326C00895982F8091FF04882319F080E090E00A
S11326D008959093FF0480915609882319F080E2AD
S11326E094E313C080915D05982F927081FD03C01F
S11326F09093FF010FC08091600581FD04C081E0CB
S11327008093FF0107C08CE194E30E94600381E0A1
S113271090E008958091FF019927FC01EE0FFF1FBF
S1132720E80FF91FE35AFA4F8081877E80830E9465
S11327309A13EDCF0F931F934091FF01842F992794
S1132740FC01EE0FFF1FE80FF91FDF01A55ABA4F76
S113275020910A0230910B028D919C9111972817B8
S1132760390709F0D4C05091FF04852F992784308C
S11327709105B1F08530910564F48230910509F436
S113278071C0833091050CF091C0019709F458C0D1
S1132790E8C08730910574F109970CF0E2C035C0A8
S11327A08091230A9091240A8130910599F0813017
S11327B0910518F0029749F0D4C086E0809374061E
S11327C000E010E040E061E8C9C0E35AFA4F8081BC
S11327D084608083842F9927FC01EE0FFF1FE80F8C
S11327E0F91FE35AFA4F80818260808381E00E945E
S11327F0D010B7C0E35AFA4F808181FF06C0869596
S113280086958695837009F08FC0842F9927FC01E3
S1132810EE0FFF1FE80FF91FE35AFA4F808181FF83
S11328207BC0573011F0553029F48CE194E30E94B9
S1132830600397C01092FF04852F0E94611391C01A
S113284080917105909172059093970980939609F0
S113285080916A0190916B0190930105809300052A
S113286081E009C080916A0190916B019093010508
S11328708093000582E080937406442311F064ED94
S113288001C066ED2091230A3091240A842F9927F0
S1132890FC01EE0FFF1FE80FF91FE35AFA4F808186
S11328A08170890120E030E042E059C080917105D7
S11328B090917205909397098093960980916A018B
S11328C090916B01909301058093000583E08093C0
S11328D07406E35AFA4F8081857E8083442311F085
S11328E064E801C067E82091230A3091240A842F08
S11328F09927FC01EE0FFF1FE80FF91FE35AFA4F67
S113290080818170890120E030E040E028C0E35AF2
S1132910FA4F808181FD03C00E94DA1622C0869599
S113292086958695837021F0842F0E944E1619C0D7
S11329308091FF04843019F42D933C93FDCE85E0FF
S113294080937406442311F063E501C065E500E05B
S113295010E020910A0230910B0240E081E00E94D5
S1132960B4141F910F9108950F931F93782F862FFE
S1132970642FA80180930009C901880F892F881F3B
S1132980990B919580930109220F852F9927282B64
S113299020930209409303096C5F60933405772305
S11329A039F080912E09882319F00E94DD1402C0A9
S11329B00E946F161F910F910895CF9381E0809329
S11329C01C029598DB9887ED0E9424150E949901BA
S11329D0282F84E088BF89B7846089BF959882E0F6
S11329E090E0000000000000000000000000000073
S11329F00000019718161906A4F3829B05C089B735
S1132A008B7F89BFC0E001C0C1E0822F0E94970183
S1132A10CC23C1F480917406883061F4959A95981A
S1132A200000000080E090E0829902C081E090E024
S1132A308093350981E080932A02DB9A84E294E34F
S1132A400E946003CF9108950F931F93082F10E005
S1132A500E949901982F82B3877D82BB07FD939AC8
S1132A60959A8299106882BB06FD939A959A8299E9
S1132A70106482BB05FD939A959A8299106282BB79
S1132A8004FD939A959A8299106182BB03FD939AEF
S1132A90959A8299186082BB02FD939A959A8299BD
S1132AA0146082BB01FD939A959A8299126082BB4D
S1132AB000FD939A959A82991160892F0E9497013B
S1132AC0812F99271F910F91089580911C022091C5
S1132AD07406882309F44AC090916005892F8E7F7B
S1132AE08093600530915D05832F8E7F80935D0513
S1132AF010922E0910921C02283039F520913509C4
S1132B0080910F02222359F09927FC01EE0FFF1F39
S1132B10E80FF91FE35AFA4F8081877E9FC09927F7
S1132B20FC01EE0FFF1FE80FF91FE35AFA4F9081E3
S1132B30892F8695869586958370823010F49D7FC3
S1132B404BC081E08093560926C0387111F4987106
S1132B5051F02750223038F080E0332309F481E02B
S1132B600E944E1608950E946F160895822F992789
S1132B7084309105B1F0853091051CF401975CF027
S1132B800CC08630910509F46BC0863091050CF4B5
S1132B904BC0079729F180E001C081E00E94D0106A
S1132BA0089581E080932E098091FF019927FC010B
S1132BB0EE0FFF1FE80FF91FE35AFA4F908193605D
S1132BC0892F86958695869583708F5F8370880F8D
S1132BD0880F880F937E982B90830E949A130895F0
S1132BE088E08093740681E080932E0980910F021F
S1132BF09927FC01EE0FFF1FE80FF91FE35AFA4F64
S1132C008081816080838AE090E000000000000001
S1132C1000000000000000000000019718161906CB
S1132C20A4F30E94DD14089581E080932E0980911D
S1132C30FF0199279C01220F331F280F391FF90127
S1132C40E55AFA4F80910A0290910B028083918396
S1132C50F901E35AFA4F808183608B7F8083BDCF73
S1132C6041E040932E098091FF0199279C0102C005
S1132C70220F331F4A95E2F7280F391FF901E55A4D
S1132C80FA4F80910A0290910B0280839183F9019B
S1132C90E35AFA4F8081866080837FCF0F931F931E
S1132CA0282F87E08093740620930F02822F9927A0
S1132CB0FC01EE0FFF1FE80FF91FE55AFA4F22231C
S1132CC011F060E601C061E600E010E0208131818E
S1132CD040E081E00E94B4141F910F910895CF92B7
S1132CE0DF92EF92FF920F931F93CF93DF9390E0C5
S1132CF0C92EC0E0EC2EC9E0FC2E80913405C82F0B
S1132D00DD270091590910915A09D92E9598DB981D
S1132D1082E0D816A9F4ECE8F0E09127990FF11DB0
S1132D20E90FF11DC895302F202D3196C895302517
S1132D308901219749F530935A092093590929C0EB
S1132D40DD2081F4F701C1907F012197E9F4D0904F
S1132D507406E0909609F0909709C0910005D0910F
S1132D60010512C0F1E0DF1631F4F70191937F0100
S1132D70219751F40EC0F3E0DF1659F4209749F07F
S1132D80F701C1907F0121978C2D0E942415982F63
S1132D90BFCF81E080932A02DB9A84E294E30E940D
S1132DA06003DF91CF911F910F91FF90EF90DF901F
S1132DB0CF9008950F931F9384E0809374064091FD
S1132DC0FF01242F3327C901880F991F820F931FF6
S1132DD0DC01A55ABA4FFC01E35AFA4F808182FF05
S1132DE006C0442311F068E807C069E805C044231D
S1132DF011F063E801C066E800E010E02D913C9119
S1132E0040E081E00E94B4141F910F910895EF9265
S1132E10FF920F931F938A017901452B71F482E08D
S1132E208093FF0430935A09209359098CE194E369
S1132E300E94600381E090E008C020E030E0AB0134
S1132E40BC0182E00E946D1099271F910F91FF90A1
S1132E50EF900895EF92FF920F931F932091260213
S1132E6021FD06C090911D0280911602981709F564
S1132E70809128029927FC01EE0FFF1FEE0FFF1F20
S1132E80E80FF91FE959F64F10822B7F2093260291
S1132E90409193098130910509F476C082309105FF
S1132EA024F4892B09F46DC076C0029709F46FC02D
S1132EB072C085E0989FA00111244D5F5F4F9F5F12
S1132EC090931D0290912802989F900111242959F2
S1132ED0364F80911B02882319F080E090E005C0F2
S1132EE084E080931B0281E090E0009781F180915F
S1132EF01B028150833019F46FEF77E00EC09927DD
S1132F00FC01EE0FFF1FEE0FFF1FE80FF91FE95939
S1132F10F64F618172816150784FEE24FF2405E001
S1132F2010E081E00E946D109927882311F0992701
S1132F3004C080936B0680E090E09927882311F009
S1132F40992704C080931B0280E090E09927282FE2
S1132F503327222301F5809126028B7F809326025A
S1132F60809128024091930999278130910561F05D
S1132F70823091051CF4892B21F00DC0029739F0A1
S1132F800AC061E080E005C061E0862F02C061E014
S1132F9082E00E9415101F910F91FF90EF90089509
S1132FA0EF92FF920F931F9360916A05262F3327A8
S1132FB08CE090E0289FF001299FF00D389FF00DE0
S1132FC01124EC5FF64F82859927AA27BB27EE24AC
S1132FD0FF2487019C01AD0188E00E941109882328
S1132FE041F420E032E040E050E061E082E00E9401
S1132FF05F0E1F910F91FF90EF9008959091190A21
S11330008CE0989FF0011124EC5FF64F2091150A93
S11330103091160A4091170A5091180A80819181C3
S1133020A281B381281739074A075B0749F49285BF
S11330308781981729F4992319F084E08093C809AB
S113304008950F931F93CF93DF93C0E0D0E08E01D8
S11330508CE0C89FF0011124EC5FF64F87816285F4
S1133060861771F08C2F0E944F180C0F1D1F0253EE
S11330701E4F84E0F8018083CE010E9462180AC0CA
S113308021960B5F1F4FC330D10514F36FEF862FCA
S11330900E944F18DF91CF911F910F910895809353
S11330A0640560936F062FEF30E0E9E0FAE085E015
S11330B090E0219301974FEF8F3F9407D1F781E080
S11330C090E008959C01833091059CF4FC01EE0F7F
S11330D0FF1FEE0FFF1FE80FF91FE80FF91FE7535B
S11330E0FE4F8481893029F089E08483C9010E94DC
S11330F07A180895CF92DF92EF92FF920F931F9365
S113310079ECC72E71E0D72E7C01EE0CFF1CEE0C7F
S1133110FF1CE80EF91EE80EF91E87010C0D1D1D9B
S1133120F8018481282F33272150304081E090E03A
S1133130A0E0B0E004C0880F991FAA1FBB1F2A9506
S1133140D2F780839183A283B3830E94EA189C01FF
S113315044275527F80180819181A281B381019789
S1133160A109B109282339234A235B230196A11D10
S1133170B11D820F931FA41FB51F80839183A28367
S1133180B383F701E253FE4F80818E7F80830E94D8
S113319016198C0181E00E944B1971E0F801EE0FC1
S11331A0FF1FEE0FFF1FE00FF11FE00FF11FEC0DEB
S11331B0FD1D80819181A281B3819C01AD01672FA6
S11331C0872F0E945F0E1F910F91FF90EF90DF9069
S11331D0CF900895EF92FF92CF93DF930E949901CD
S11331E0282FC0917809D09179097E018F2D881FED
S11331F08827881FCC0FDD1F882321F08BE090E106
S1133200C827D9272196D0937909C093780980914A
S1133210120290911302C827D927822F0E94970186
S1133220CE01DF91CF91FF90EF9008950F931F93FC
S1133230CF93DF93C0E0D0E061E070E005E010E000
S1133240D801A60FB71FA753BE4FFE01EE0FFF1FF5
S1133250EE0FFF1FEC0FFD1FEC0FFD1FE753FE4F9A
S11332602D913D914D915C9180819181A281B38199
S1133270281739074A075B0708F4EB016F5F7F4F94
S11332800B5F1F4F63307105DCF2CE01DF91CF91EC
S11332901F910F910895EF92FF920F931F938D301A
S11332A008F04AC091E0E92EF12C012D112D04C043
S11332B0EE0CFF1C001F111F8A95D2F78091000AA3
S11332C09091010AA091020AB091030A8E219F21D4
S11332D0A023B1230097A105B10571F10E949901C2
S11332E0E094F094009510952091000A3091010A21
S11332F04091020A5091030A2E213F214023512379
S11333002093000A3093010A4093020A5093030A5F
S11333100E9497018091000A9091010AA091020AEB
S1133320B091030A0097A105B10519F481E08093D7
S1133330FE0881E090E002C080E090E01F910F91D0
S1133340FF90EF9008950E94211881E00E940A08DE
S113335081E090E00E94621882E090E00E9462188E
S11333600895DF92EF92FF920F931F93CF93DF9311
S1133370D82E7B01042FE9011091FF09112321F5B7
S113338081E08093FF094E3130F484E494E30E9499
S11333906003882319F41093FF0916C0D0932C02FC
S11333A0C0932B020883EE82FF82D886E0912B0221
S11333B0F0912C02809122018187812F815F8D32CF
S11333C0E8F381E090E002C080E090E0DF91CF91EB
S11333D01F910F91FF90EF90DF9008951F93CF936B
S11333E0DF93EC0111E00E9499019091260A92FD6D
S11333F008C094609093260AD093DC01C093DB014B
S113340001C010E00E949701113019F40E940F1AB4
S1133410182F812F9927DF91CF911F9108951F9322
S1133420CF93C1E010E00E949901282F8091980960
S1133430882391F58091260A992781FF08C082E3A9
S113344099E0909367058093660580E41AC082FF33
S11334500FC0E091DB01F091DC01F0936705E0938C
S1133460660582E48093E001808199270A960DC065
S113347083FF12C083E092E0909367058093660512
S11334808FEF8093E00181E090E0909308028093B5
S113349007021C2FC0939809822F0E9497011123C1
S11334A009F10E94990110926D0110926C0126E0BD
S11334B030E03093F8072093F7070E9497018EE7D6
S11334C00E94771AC82F813069F00E949901982FC1
S11334D088E080939809892F0E94970183E99AE1F3
S11334E00E9460038C2F9927CF911F9108951F93F9
S11334F0CF93C82F0E94990110912D0991E09093C8
S11335002D090E949701112319F080E090E008C072
S11335100E949901CCB95E9A0E94970181E090E0E3
S1133520CF911F9108950F931F93CF93C1E00E94F1
S11335309901982F80919809883019F4C0E0C093BC
S11335409809892F0E9497018091E001803449F401
S11335500E9499019091260A22E092279093260ACC
S11335601EC00E949901282F8091260A94E0892781
S11335708093260A822F0E9497010091DB0110910B
S1133580DC016C2FC8010E94D71A6C2FC8010E945D
S11335909E1C0E9499011092DC011092DB010E9492
S11335A097010E940F1ACF911F910F9108951F93B5
S11335B0CF93DF93EC0110925809188580910F0A7C
S11335C09091100AFC0133E0EE0FFF1F3A95E1F7EA
S11335D0E81BF90BEF5EF84F85819681C817D90770
S11335E009F045C08091F207882341F04AA544239D
S11335F029F4808191818E37910511F4462F05C0FD
S113360084818F5F8483863070F1BE01812F0E9494
S11336103D1B20916A068DE2289FC00111248D581C
S11336209A4FC817D90721F42F5F237020936A0695
S11336301A3F11F41092250280910F0A9091100AFA
S1133640FC0123E0EE0FFF1F2A95E1F7E81BF90BBD
S1133650EF5EF84F1582168201968F7190709093E9
S1133660100A80930F0A8BE59BE10E94600381E0BE
S113367090E0DF91CF911F910895582F40917206E9
S1133680E42FFF27EE0FFF1FE658F94F2081318109
S11336906217730729F44F5F4F704093720608C096
S11336A0513131F40E94990110927A090E949701D4
S11336B081E090E00895DF92EF92FF920F931F93C1
S11336C0CF93DF9380910F0A9091100AFC0143E09D
S11336D0EE0FFF1F4A95E1F7E81BF90BEF5EF84F79
S11336E0C581D6812097A9F1D380E080F180028141
S11336F010915809112321F581E0809358090E3166
S113370030F48FE996E30E946003882319F4109340
S1133710580916C0D0933109C09330090883EE824A
S1133720FF82D886E0913009F0913109809122011D
S11337308187812F815F8D32E8F381E090E002C0C0
S113374080E090E0892B41F48BE59BE10E946003CB
S113375003C081E08093CE09DF91CF911F910F9137
S1133760FF90EF90DF900895CF92DF92EF92FF9257
S11337701F93CF93DF93CDB7DEB722970FB6F8949C
S1133780DEBF0FBECDBF7C010E9499011091850957
S11337900E949701123009F06CC088E0F70182831F
S11337A080916806882311F081E202C081E0F7016C
S11337B081838FEF9FEFF70184839583268137817F
S11337C081E089831A8240E050E089819A818130C6
S11337D0910509F4AC01452B19F4C32ED22E01C076
S11337E06901F701C682D7828081855F80838091D9
S11337F02C098F5F80932C09838313A614A68081E0
S113380082508093C801F0927709E092760988E0AB
S11338108093F0010E94EA188F70907001969C01C9
S113382053E0220F331F5A95E1F7280F391F280F51
S1133830391F109219022115310529F462E070E054
S113384080E090E005C0C901AA27BB27BC01CD01D7
S11338500E94491C9927882361F00E949901982F9E
S113386085E080938509892F0E94970181E090E08B
S113387002C080E090E022960FB6F894DEBF0FBE3F
S1133880CDBFDF91CF911F91FF90EF90DF90CF904C
S11338900895EF92FF920F931F937B018C010E9476
S11338A09901982FE0921E02F0921F0200932002C9
S11338B01093210281E08093FE09892F0E949701D1
S11338C08FEFE816F1040105110521F018F064E00A
S11338D08FEF02C064E08E2D0E94751C81E090E0A1
S11338E01F910F91FF90EF9008951F93CF93182F7E
S11338F0C62F683018F080E090E01DC0C8600E94B8
S11339009901982F15BC87B78F7787BF87B78F7BAF
S113391087BFC0936E061093F60714BC13BD86B719
S1133920806886BF87B7806887BFC5BD892F0E941E
S1133930970181E090E0CF911F910895FC011092CE
S1133940FF0980859927823A910571F0833A9105A0
S113395024F4813A9105A9F144C0833A910589F090
S1133960843A910571F13DC08091DF018530C9F53C
S11339708091CB0981508093CB0980E00E94F41C94
S113398030C020914301822F869586958695E82F35
S1133990FF27E05AF94F277081E090E002C0880FBA
S11339A0991F2A95E2F7982F909580818923808327
S11339B022E030E040E050E061E083E00E945F0EEE
S11339C010C010922A018091DF019927823091055D
S11339D019F0049721F005C00E94260802C00E9435
S11339E00E1E81E090E00895882359F00E94EA18A1
S11339F090709C0144275527205F3F4F4F4F5F4FE6
S1133A000BC00E94EA188F7790709C0144275527B9
S1133A1020583F4F4F4F5F4F61E083E00E945F0E9D
S1133A200895DF92EF92FF920F931F93D090640555
S1133A3000911102202F33278CE190E0289FF001A0
S1133A40299FF00D389FF00D1124E85DF94F838113
S1133A5014819927AA27BB27BC01CD0120E534E0B6
S1133A6040E050E00E94893E9B01AC0187E1189F31
S1133A70C0011124AA27BB27280F391F4A1F5B1F27
S1133A80205F3F4F4F4F5F4F8CE1089FC0011124CF
S1133A90835D994F67E1E62EF12C8C016D2D86E054
S1133AA00E9411099927882311F48093110A1F9108
S1133AB00F91FF90EF90DF9008954F925F926F9275
S1133AC07F928F929F92AF92BF92CF92DF92EF92AA
S1133AD0FF920F931F93CF93C82F2A013B014701F5
S1133AE058016701780189019A01AB016C2F81E0CB
S1133AF00E94F809282F8823D9F073016201C80CA9
S1133B00D91CEA1CFB1CEC2FFF27EE0FFF1FEE0F46
S1133B10FF1FEF51FE4F80819181A281B3818C15EB
S1133B209D05AE05BF0520F4C082D182E282F382F6
S1133B30822F9927CF911F910F91FF90EF90DF90E3
S1133B40CF90BF90AF909F908F907F906F905F9039
S1133B504F900895EF92FF920F931F93982F8091A7
S1133B602901882319F080E090E007C0909375063E
S1133B7082E08093290181E090E0882319F480E0B9
S1133B8090E047C09091750680911B02882319F03C
S1133B9080E090E005C09F5F90931B0281E090E07D
S1133BA0009779F180911B028150833019F460E011
S1133BB070E00CC09927FC01EE0FFF1FEE0FFF1FF2
S1133BC0E80FF91FE959F64F61817281EE24FF2451
S1133BD087019701A80184E00E946D10992788232A
S1133BE011F0992704C080936B0680E090E0992738
S1133BF0882311F0992704C080931B0280E090E091
S1133C009927882321F483EA93E30E94600381E0E7
S1133C1090E01F910F91FF90EF9008958091DF0144
S1133C208430B1F580912A01882309F05FC081E0D6
S1133C3080932A0185E00E940A0880919A06909157
S1133C409B069093400180933F01809100019091E5
S1133C500101909342018093410180916405809316
S1133C604501282F33278CE090E0289FF001299FFD
S1133C70F00D389FF00D1124EC5FF64F848195818F
S1133C80909344018093430180916F068093460191
S1133C908091DF01853051F580912902882331F02C
S1133CA080E00E94F41C1092290208958091CB09AF
S1133CB0882321F481E00E940A08089546E050E038
S1133CC069E07AE087E491E00E94771E80913F01E9
S1133CD09091400125E331E04EE0BC0182EA0E946C
S1133CE0B1199927882311F40E94F41C08959C01AA
S1133CF0D901FB01415050408FEF4F3F580741F02D
S1133D0081918D93415050408FEF4F3F5807C1F739
S1133D10C90108950F931F93CF93DF93CDB7DEB7F7
S1133D2025970FB6F894DEBF0FBECDBF8E010F5F8F
S1133D301F4F45E050E0B80180EE9FE00E94DA0793
S1133D40809100019091010189839A8380912201DD
S1133D508B8363E0C8010E94040F9C018C819D81C8
S1133D608217930749F02C833D8345E050E0B80166
S1133D7080EE9FE00E94C71E25960FB6F894DEBF22
S1133D800FBECDBFDF91CF911F910F910895CF92B8
S1133D90DF92EF92FF920F931F93CF93DF938A01E9
S1133DA0EC016B01840F951F8150904118F080E065
S1133DB090E016C0EE24FF24E416F50668F4F6013C
S1133DC061916F01CE010E94F33B21960894E11C9E
S1133DD0F11CE016F10698F3E199FECF81E090E042
S1133DE0DF91CF911F910F91FF90EF90DF90CF90D3
S1133DF00895AF92BF92CF92DF92FF920F931F93D9
S1133E000E9488060E94281FA82EBB240E94361FE9
S1133E10C82EDD24FF2428EE33E040E050E06F2D6F
S1133E208BE00E945F0E082F11270E94D60EF0929D
S1133E305809202F4C2D6A2D81E00E94891F992753
S1133E401F910F91FF90DF90CF90BF90AF90089596
S1133E50109290008FE089B982E08BB986E080935C
S1133E60950088ED8AB981E090E008951F93CF937F
S1133E70C0E00E949901182F80918509882349F494
S1133E808EE594E30E946003882319F0C1E0C09397
S1133E908509812F0E9497018C2F9927CF911F911B
S1133EA008950F931F93CF93DF93182FEB010E9474
S1133EB09901282F10929209C0981FB9779BFECFC1
S1133EC00FB11F3040F08D2F99278FB9779BFECF0C
S1133ED0CFB9779BFECF81E080939209822F0E9415
S1133EE09701C09A802F9927DF91CF911F910F914D
S1133EF008951F93182F0E949901C0981FB9779BAA
S1133F00FECF1FB10E949701C09A812F99271F915C
S1133F100895982F442311F0332702C020E030E0A5
S1133F20662311F0332702C020E030E0992311F01A
S1133F30332702C020E030E0822F992708953F9272
S1133F404F925F926F927F928F929F92AF92BF92A5
S1133F50CF92DF92EF92FF920F931F93CF93DF9351
S1133F60DD248091FC089091FD08019665E070E0E5
S1133F700E94B43E9093FD088093FC08CFEFD7E0F5
S1133F808A85282F332720FF4CC08091FC0890910C
S1133F90FD08892B09F045C042E0E42EF12CE22211
S1133FA0F32221FD3EC00E949901482F2E813F81BA
S1133FB06C817D81620F731F6530710510F465E0BB
S1133FC070E08FEF90E0289FF001299FF00D389F5B
S1133FD0F00D1124CF010E94B43E8B01EC82FD82CE
S1133FE0EE82FF828B85823018F48E85880F8E874F
S1133FF01B86842F0E9497019A8592FF0EC0C801E8
S1134000880F991F800F911F2D85820F911D969502
S11340108795969587958D8704C00D8784E09827AA
S11340209A87D3942F96FFE0FD1508F0A9CF1FEFD0
S1134030412E1FEF512E1FEF612E1FEF712EAA2468
S1134040BB24CFEFCC2E809000019090010181140D
S1134050910409F468C03324CFEFD7E08A8580FF48
S11340604EC08A819B818815990509F448C08F3F09
S1134070910509F444C0DC848FEFD81609F43FC0DD
S11340802E852931E0F1DD2019F08D858931B8F1D3
S11340908D85332744275527E82EFF240027112731
S11340A0CA01B901A80197010E94893E9B01AC0194
S11340B0611571058105910529F420E030E041E0A6
S11340C050E006C060E070E080E091E00E94C83EED
S11340D0DD2041F02130E6E03E07E0E04E07E0E07D
S11340E05E0768F4DC1438F0DC1449F42415350553
S11340F04605570520F429013A015E01CD2C33947D
S11341002F96FFE0F31508F0A9CFA114B10459F0DC
S11341100E949901B0920202A0920102C394C0923B
S11341202D020E94970189EB96E30E946003DF91C0
S1134130CF911F910F91FF90EF90DF90CF90BF90A0
S1134140AF909F908F907F906F905F904F903F9033
S11341500895CF93DF93582FE901A0913301B091D3
S11341603401CD0101968F71907020910F0A309126
S1134170100A8217930711F04E3118F020E030E056
S11341802DC0209711F49E0129C0FD0183E0EE0F9C
S1134190FF1F8A95E1F7EA1BFB0BEF5EF84F608384
S11341A0718342835383C583D68314821AA6809174
S11341B033019091340101968F7190709093340182
S11341C0809333018091CE09882331F01092CE0977
S11341D08BE59BE10E94600321E030E0C901DF919F
S11341E0CF91089578941F920F920FB60F921124D5
S11341F02F933F934F935F936F937F938F939F93EB
S1134200AF93BF93CF93EF93FF930E949901982F9D
S113421080913605882369F08091F907809381099C
S113422088608093F90783BF8091560581BF1092FF
S11342303605892F0E9497010E949901C82F809109
S1134240FA079091FB07892B21F481E992E30E94FC
S1134250600321B78091FA079091FB07820F911DAB
S113426001969093FB078093FA078C2F0E94970185
S1134270FF91EF91CF91BF91AF919F918F917F91DA
S11342806F915F914F913F912F910F900FBE0F90BF
S11342901F901895CF93C82F0E949901982FEC2F47
S11342A0FF27EF50F74F808187B98081883019F458
S11342B0C83009F4AA9A379A369A892F0E9497012E
S11342C081E090E0CF910895FF920F931F93CF93D5
S11342D0DF93FF240E949901482F80918909882344
S11342E011F021E0F22E2091360930913709211581
S11342F0310541F48091F3079091F407892B11F46F
S113430091E0F92E232B11F4109232018091F307DE
S11343109091F407892B19F481E080933201842F62
S11343200E949701FF2009F0E7C0009132010023A9
S113433009F469C0C0911702D0911802C230D105A6
S113434091F1C330D10530F4209759F0219709F445
S1134350D3C059C0C330D10509F4CEC0249709F0A5
S113436052C081E090E090931802809317021D9A46
S1134370159AA898A0988AE00E944B190E94990166
S113438011E0109389090E949701109232012AE0EA
S113439030E040E050E0612F8AE00E945F0E811718
S11343A009F4AAC06BC00E94990111E01093890915
S11343B00E9497010E949901082F20916D05309168
S11343C06E05C9018C239D23892B11F01F2D12C06A
S11343D0C22BD32BD0936E05C0936D05232B51F4C0
S11343E081E090E09093290A8093280A812F0E940B
S11343F04A21182F802F0E949701113009F071C0B3
S11344001092320179C0002309F070C0C0911702E4
S1134410D0911802C230D10589F0C330D10530F4EF
S1134420209761F0219709F467C060C0C330D105BB
S113443009F462C0C430D10531F158C083E090E082
S113444090931802809317021D981598A89AA09A21
S11344508AE00E944B190E94990111E01093890986
S11344600E949701109332012AE030E040E050E0CE
S1134470612F8AE00E945F0E8117F1F110921802F9
S1134480109217022EC00E94990111E0109389091D
S11344900E9497010E949901F82E20916D05309198
S11344A06E05C9018C239D23892B11F0102F12C096
S11344B0C22BD32BD0936E05C0936D05232B51F4DF
S11344C082E090E09093290A8093280A82E00E9477
S11344D04A21182F8F2D0E949701812F992781300F
S11344E049F084E691E20E94600306C080E0002364
S11344F009F481E080933201DF91CF911F910F91F4
S1134500FF900895CF930E9499011092290A109266
S1134510280A1092900910928F0910926E05109239
S11345206D050E9497010E941F06C82F6EE187E067
S11345300E94B905882319F08C2F992702C080E0C6
S113454090E09927CF9108950F931F93CF930E94E2
S11345509901C0910E020E949701CC2319F511E034
S11345600E949901082F20916D0530916E0527FF57
S113457002C01C2F12C0C901806890936E058093FD
S11345806D05232B51F487E090E09093290A8093E2
S1134590280A87E00E944A21182F802F0E94970141
S11345A0112319F480E090E00BC00E949901982F28
S11345B081E080930E02892F0E94970181E090E0B0
S11345C0CF911F910F9108951F93CF93DF93182FCD
S11345D00E949901282F10929209C09810641FB963
S11345E0779BFECF8FB11FB8779BFECF8FB1C82FBB
S11345F0DD271FB8779BFECFDC2FCC278FB19927FF
S1134600C82BD92BC09A81E080939209822F0E94F3
S11346109701CE01DF91CF911F910895882319F05E
S11346208EB5806402C08EB58F7B8EBD86B78062E6
S113463086BF0895EF92FF920F931F93CF93DF935A
S11346408C017B019CE0899FE0011124CC5FD64F53
S113465080912A01282F3327222309F04EC080910C
S11346600001909101019093400180933F0182E009
S113467080934101922F80918C09882309F491E061
S11346809093420183E19AE00E948423882361F499
S11346902FEF30E0E3E1FAE089E090E02193019725
S11346A04FEF8F3F9407D1F74AE050E063E17AE09F
S11346B083E491E00E94771ECE010E94E80E8823D5
S11346C029F48FEF9FEF8C839D830E834CE050E0A1
S11346D0BE018DE491E00E94771E83E0EFE3F1E0F8
S11346E0828F25E331E04CE1B70181EA0E94B119E0
S11346F09927813011F480932A01DF91CF911F9182
S11347000F91FF90EF9008950F931F93CF93DF9332
S1134710EC0100E010E068E00E94040F9C01888531
S113472099858217930729F0888199818F5F9F4F1C
S113473011F401E010E0C801DF91CF911F910F91B6
S1134740089580917406883061F4959A95980000D4
S1134750000080E090E0829902C081E090E08093C4
S1134760350981E080932A02DB9A84E294E30E9473
S1134770600381E090E008957F928F929F92AF92C0
S1134780BF92CF92DF92EF92FF920F931F93CF933A
S1134790DF938C012091000130910101809170061A
S11347A09091710601969093710680937006F801BA
S11347B081A5813009F045C2918580912201981725
S11347C009F03FC286819781FFEF8F3F9F0721F059
S11347D08217930709F035C2F801908580E0815F64
S11347E08D32E8F3892F9927823A910509F436C16D
S11347F0833A910524F4813A910551F022C2833A17
S1134800910509F496C1843A910509F4F2C119C2DB
S1134810E8012A968C88E8E1AE2EB12CA00EB11ED8
S113482077248A81823009F00CC2C8010E960E9456
S11348308423882309F405C280916906813009F034
S113484000C28CE0889E7001112484E099E0E80E97
S1134850F91E4B81442349F1433079F0F501248159
S11348603581F7018481958128173907B9F4F50159
S11348709285F7018285981789F4882D9927F80184
S1134880628573850E941A232C813D818091130ACD
S11348909091140A2817390741F4D3C1443029F4FC
S11348A02E96CE010E943026CCC12C813D81809170
S11348B0130A9091140A28173907C1F12F5F3F4F4B
S11348C0A9F18A85833090F599270E9462188C811A
S11348D09D812091130A3091140A821B930B1816A0
S11348E0190624F5CE0104964AE050E0BC0183E1A8
S11348F09AE00E94771E4AE050E063E17AE086EE97
S11349009FE00E94C71E8091190A882321F484E045
S11349108093C80902C00E94FE178B81823031F453
S1134920882D9927688179810E941A237EE0C72EF9
S1134930D12CCC0EDD1EC6010E94E80E882309F49A
S113494080C19090690641E0941609F07AC18820EC
S113495051F48B81823009F074C1888199818E373A
S1134960910509F06EC1F50124813581F701848137
S1134970958128173907B9F0FFEF8F3F9F0759F04A
S11349804FEF2F3F340709F461C0281B390B12166F
S113499013060CF05BC0C6010E9430266FEF862F11
S11349A00E944F1853C0F5013285F7012285231761
S11349B050F5882D9927FC01EE0FFF1FEE0FFF1F06
S11349C0E80FF91FE80FF91FE253FE4FF080F69449
S11349D0E9F50990D881C02D8091DF018130B1F5CE
S11349E080916405881591F584E00E940A08D093AB
S11349F09B06C0939A069092CB09F0922902892DC6
S1134A000E94F41C23C0882D9927321780F4FC01DE
S1134A10EE0FFF1FEE0FFF1FE80FF91FE80FF91F3E
S1134A20E253FE4F80818170846080830FC0FC015B
S1134A30EE0FFF1FEE0FFF1FE80FF91FE80FF91F1E
S1134A40E253FE4F808181608083792C772009F0C6
S1134A50F8C0882D99270E946218F3C0E8012A96AD
S1134A608091DF01882309F4ECC0FE80F2E0FF1599
S1134A7008F4E7C0EF806E2D8F2D0E946426F801A4
S1134A80228533858091000190910101281739070F
S1134A9009F0D7C02F2D33278CE090E0289FF00138
S1134AA0299FF00D389FF00D1124EC5FF64F2481FF
S1134AB035818C819D818217930709F0C2C082855C
S1134AC0E81608F0BEC02091DF01213061F0822F8A
S1134AD082508230B0F480912E02F81691F48091C5
S1134AE0FD09E81671F4D8015296E0E6F6E0AF014C
S1134AF04B5F5F4F80819D91892B81934E175F0798
S1134B00CCF7213009F09DC082E00E940A08F0929F
S1134B102E02E092FD098A819B818E37910511F066
S1134B208FEF9FEF90939B0680939A060E9426082E
S1134B3088C0E8012A968091DF01882309F481C0A6
S1134B408A81833008F07DC06B810E9464264A818B
S1134B50242F33278CE090E0289FF001299FF00D4B
S1134B60389FF00D1124EC5FF64F24813581F80154
S1134B70828593858217930709F063C08091640549
S1134B80481709F05EC09B8180916F06981709F061
S1134B9058C02C81822F869586958695E82FFF270D
S1134BA0E75FF54F80819927277002C09595879517
S1134BB02A95E2F780FF45C09091110A923008F0DF
S1134BC040C08091110289279CE1899FC001112472
S1134BD0885D994F4CE150E0BE010E94771E8091A0
S1134BE0110A8F5F8093110A813059F50E94111DBB
S1134BF028C0E8012A96888D998D8E37910519F081
S1134C008F5F9F4FF1F480912A018823D1F4309370
S1134C1058012093570148E150E064E071E08FE3CC
S1134C2091E00E94771E888D998D25E331E04AE159
S1134C30BC0184EA0E94B1199927813011F4809350
S1134C402A01C801DF91CF911F910F91FF90EF903E
S1134C50DF90CF90BF90AF909F908F907F900895FA
S1134C60FC0180917005823019F080E090E0089595
S1134C70868180936A05882311F483E001C084E06F
S1134C808093700590916A058CE0989FC00111246F
S1134C908C5F964F4CE050E0BF010E94771E8091DC
S1134CA06A05282F33278CE090E0289FF001299F84
S1134CB0F00D389FF00D1124EC5FF64F12860E9420
S1134CC0360F81E090E00895282F9091DF01892F1D
S1134CD082508230C0F480912E02281730F02817B9
S1134CE011F58091FD096817F0F481E00E940A082B
S1134CF0E0E6F6E085E090E0119201972FEF8F3F18
S1134D009207D1F708959450923068F48091640525
S1134D10281730F0281739F480916F06861718F099
S1134D2081E08093290208951F920F920FB60F928B
S1134D3011242F933F934F935F936F937F938F939C
S1134D409F93AF93BF93CF93EF93FF9380916806A4
S1134D50882379F180918509853059F58091FE0980
S1134D60882339F10E949901982F1092FE0987B780
S1134D708F7787BF892F0E9497010E94EA189C01B0
S1134D802F7330702F5F3F4FC901880F991F880F11
S1134D90991F880F991F820F931F820F931F855BA2
S1134DA09F4FAA2797FDA095BA2FBC01CD010E9461
S1134DB0491C80E090E0B79981E0892B19F40E94A6
S1134DC0062712C00E949901C82F84E095E30E942F
S1134DD06003882321F089B78F7B89BF02C00E94BA
S1134DE006278C2F0E949701FF91EF91CF91BF91DD
S1134DF0AF919F918F917F916F915F914F913F916F
S1134E002F910F900FBE0F901F9018951F9389B785
S1134E108F7B89BF8FE30E94E42218E0812F0E94D8
S1134E20791F812F0E94791F0E94990110926905B0
S1134E300E9497010E949901982F8AB780628ABFC5
S1134E408AB78F7E8ABF89B7806489BF892F0E9401
S1134E5097011F9108950F931F93CF93DF9380E0E1
S1134E6090E0B79981E0892B11F40E9B93C00E94C6
S1134E709901182FC0916905CC2349F084E095E38A
S1134E800E946003882331F40E94062703C081E056
S1134E9080936905812F0E949701CC2309F07AC081
S1134EA00091EF081091F0080E949901982F8091C9
S1134EB0FB08882311F0C1E003C081E08093FB0864
S1134EC0892F0E949701CC2309F04FC00E949901B9
S1134ED0282FC09324021093EE010093ED01C09893
S1134EE08FE78FB9779BFECF8FB11FB8779BFECF2B
S1134EF08FB18093250A882321F1E091ED01F0918F
S1134F00EE0180838091250A8F5F8093250A8A327F
S1134F1018F089E28093250A91E08091250A981778
S1134F2080F41FB8779BFECFE091ED01F091EE0184
S1134F30E90FF11D8FB180839F5F8091250A981737
S1134F4080F381E080932402822F0E949701C09A0B
S1134F5081E195E30E946003C82F882349F40E94ED
S1134F609901C093FB080E94970180E090E002C081
S1134F7081E090E0C82FDD27CC2361F40E949901E1
S1134F80C09369050E94970184E095E30E94600341
S1134F90882311F40E940627DF91CF911F910F916E
S1134FA00895FF920F931F930E949901982F82E016
S1134FB0809385090091760910917709F801808121
S1134FC08B508083892F0E949701A1E0FA2E6F2DC8
S1134FD0C8010E94D71A6F2DC8010E949E1C1F9100
S1134FE00F91FF900895FF920F931F930E949901D0
S1134FF0982F82E080938509892F0E949701E09180
S11350007609F091770980818B508083009176092D
S113501010917709FF246F2DC8010E94D71A6F2DB4
S1135020C8010E949E1C1F910F91FF900895CF927A
S1135030DF92EF92FF920F931F93CF93DF93CDB73D
S1135040DEB722970FB6F894DEBF0FBECDBF7C014A
S113505080913205909133050196909333058093A6
S11350603205F701918580912201981709F077C1E3
S11350708091F107813071F026813781FFEF2F3F56
S11350803F0741F0809100019091010128173907F1
S113509009F065C180910002882329F0F70181A5F8
S11350A0813009F05CC1F701908580E0815F8D3229
S11350B0E8F3892F99278231910541F183319105D4
S11350C01CF4419731F047C18A3F910509F4E7C0C8
S11350D042C18701F70126813781809100019091B7
S11350E001012817390731F461E1C7010E942C023C
S11350F08C010AC0AE014F5F5F4FF701668577856B
S1135100828593850E94BF29C80126C18701065F55
S11351101F4FF701828593850E94A602882309F414
S11351201AC142E1F7016081C8010E946902870146
S1135130045F1F4F0E949901D82EF8012381348106
S11351403093830920938209FFEF2F3F3F0741F0FB
S113515080910001909101012817390709F09BC043
S1135160F701848580932601109231011092300159
S113517099278230910509F448C0833091052CF4B5
S1135180009751F0019769F086C08330910541F191
S1135190049709F43FC07FC090932D0180932C01A4
S11351A074C020916205309163052130310509F006
S11351B072C080912C0190912D01892B09F06BC054
S11351C030932D0120932C01F80181819281AA272B
S11351D0BB279C01AD0160E087E00E945F0E5BC0CD
S11351E08091620590916305029709F054C081E0B3
S11351F090E0909363058093620528EE33E040E0ED
S113520050E060E0862F0E945F0E0E9482220E947E
S1135210A42241C080916205909163050197D9F55C
S113522010922D0110922C0182E090E0909363057E
S11352308093620580E00E944B190E949901982F87
S1135240DA9A809188098E7F80938809892F0E9439
S113525097010E949901982FD99A809188098D7F8E
S113526080938809892F0E9497010E949901982FA1
S1135270D89A809188098B7F80938809892F0E940E
S113528097010E9482220E94A42287E00E944B1967
S113529088E00E944B198D2D0E9497015CC0870104
S11352A0065F1F4F31E1C32ED12CCE0CDF1CF7015A
S11352B082859385AE014E5F5F4FF80164817581ED
S11352C00E94BF293A81832F9927DC0124E0AA0F89
S11352D0BB1F2A95E1F7A81BB90BA150B84FF701E2
S11352E08189928912968D939C931397F8018681F4
S11352F01C968C9320E0F6018281281760F540917A
S1135300000150910101822F9927DC01AA0FBB1FD4
S1135310A80FB91FAC0DBD1DFD0113968D919C9175
S113532014978417950791F4832F9927BC01B4E04F
S1135330660F771FBA95E1F7681B790B6150784FB8
S11353408581FB01868783858F5F83872F5FF601C5
S113535082812817C0F2C701009709F07C01C701B8
S113536022960FB6F894DEBF0FBECDBFDF91CF916A
S11353701F910F91FF90EF90DF90CF900895AF921F
S1135380BF92CF92DF92EF92FF920F931F93CF932E
S1135390DF937C018B015A01CC24B82FAC2DEFEFA5
S11353A0F7E040E050E0BA01828580FF08C02B2F6F
S11353B03327808191818217930709F451C0AF5F2D
S11353C0AB014F5F5F4F3F96A03168F38FEF90E0E2
S11353D0C82F8F3FC9F440E0582F982FEFEFF7E024
S11353E0242F3327828580FF39C08685581710F013
S11353F0582F942F4F5F3F96403190F3892F992770
S1135400C82FB7010E94662AAC2FBB27DA2E8FE083
S1135410A89FE0011124C150D84F8A2F9927FC017D
S113542054E0EE0FFF1F5A95E1F7E81BF90BE1502A
S1135430F84F808591859801281B390B2150304005
S11354404A8541FF0FC08E819F8101968E839F8381
S11354500887198782E048274A8729C0C901D0CF25
S1135460CA01B6CF37FD0EC08C819D81820F931F78
S11354708C839D838E819F8101968E839F83088771
S1135480198715C02C5E3F4F84F4B7018A2F0E9400
S1135490662A8E819F8101968E839F830887198750
S11354A08A8592E089278A8702C041E0C42EF501EB
S11354B0D0828C2D9927DF91CF911F910F91FF906E
S11354C0EF90DF90CF90BF90AF9008959B01992704
S11354D0FC0164E0EE0FFF1F6A95E1F7E81BF90B8E
S11354E0E150F84F2083318383E0828713868FEF66
S11354F090E0828393838FEF8487148215821682CF
S11355001782158616860895DF92EF92FF920F9305
S11355101F93CF93DF93CDB7DEB721970FB6F894DF
S1135520DEBF0FBECDBF7C018C01065F1F4F71E053
S1135530D72E8091010290910202892B51F5F70137
S11355402285338580910001909101012817390744
S113555031F5F801828193818217930701F5F701F0
S11355608287938780912D02F80186838091660655
S11355709091670684839583019690936706809340
S113558066068FEF9FEFF7018683978381E090E0B3
S11355904FC090912D02F8018681981718F080E091
S11355A090E046C0F70122853385809100019091F7
S11355B001012817390741F4F80182819381821788
S11355C0930711F480E00AC0AE014F5F5F4FF8010A
S11355D064817581808191810E94BF29882329F586
S11355E08091000190910101F80180839183809161
S11355F02D028683A0910102B09102028D919C91AB
S113560011978E37910559F080916606909167063F
S113561084839583019690936706809366068D91A3
S11356209C91F7018683978301C0DD248D2D9927F2
S113563021960FB6F894DEBF0FBECDBFDF91CF9198
S11356401F910F91FF90EF90DF90089578941F922F
S11356500F920FB60F9211242F933F934F935F93A2
S11356606F937F938F939F93AF93BF93EF93FF9326
S11356700E949901282F8091F507882381F0809159
S11356806505809327068860809365058EBD8091AB
S1135690210A9091220A9BBD8ABD1092F507822FA0
S11356A00E949701FF91EF91BF91AF919F918F91CC
S11356B07F916F915F914F913F912F910F900FBE0A
S11356C00F901F9018951F93CF93DF93EC01809157
S11356D0850999278330910519F0049799F176C0CB
S11356E00E949901182F87B78F7D87BF86B7806284
S11356F086BF80E00E940E2386B7846086BF8EB585
S11357008F7E8EBD8EB5877F8EBD87B7806287BF43
S1135710812F0E949701849907C087B78F7D87BF27
S113572086B7806286BF03C084E080938509E091D8
S11357307609F0917709C3A7D4A7809185098430AD
S113574009F44AC086E08093850987B78F7D87BFB7
S113575086B7806286BF0E949901182F87B78F7D14
S113576087BF86B7806286BF81E00E940E2386B71A
S1135770846086BF8EB58F7E8EBD8EB5877F8EBDCD
S113578087B7806287BF812F0E9497018091680646
S1135790882399F0E0917609F091770986819781C1
S11357A08F5F9F4F51F082E0809319026BE470E0A9
S11357B080E090E00E94491C04C081ED97E20E94C1
S11357C06003882349F40E94F32706C0E091EF08A0
S11357D0F091F008C3A7D4A706B601FE03C086B7AC
S11357E0846086BFDF91CF911F91089578941F92B2
S11357F00F920FB60F9211242F933F934F935F9301
S11358006F937F938F939F93AF93BF93CF93DF93C4
S1135810EF93FF930E949901982F8091FE018823B2
S113582059F08091080A88608093080A85BD8091A8
S1135830F60783BD1092FE01892F0E9497010E94F2
S11358409901C0911E02D0911F020E949701CF3F7F
S1135850D10508F041C087B78F7787BF0E949901AF
S11358601092FE090E9497010E949901C091850936
S11358700E9497018091190299278130910581F046
S1135880823091051CF4892B21F03DC0029759F018
S11358903AC086E99CE20E9460038823A1F519C0FE
S11358A00E94002D30C0C63071F50E949901982FD6
S11358B0E0917609F091770912A687E08093850933
S11358C0892F0E94970181ED97E20E94600388234B
S11358D0D1F40E94F32717C0CD2FDD270E94990130
S11358E0282FCE01AA27BB2780931E0290931F0264
S11358F0A0932002B0932102822F0E94970164E0BA
S11359008C2F0E94751CFF91EF91DF91CF91BF9175
S1135910AF919F918F917F916F915F914F913F9143
S11359202F910F900FBE0F901F901895EF92FF923A
S11359301F93CF9389E00E94791F882309F459C0EB
S1135940C091C801CF5FE0907609F090770910E02C
S11359500E949901982F8091EF01882311F011E0A2
S113596003C081E08093EF01892F0E9497011123E6
S1135970C9F50E949901382F10932402C09380091D
S1135980F0925805E0925705C0988EE38FB9779B43
S1135990FECF1FB190E020918009921778F4E09136
S11359A05705F091580581918FB9F0935805E0930C
S11359B05705779BFECF9F5F921788F381E0809312
S11359C02402832F0E949701C09A88E095E30E94E5
S11359D06003C82F882349F40E949901C093EF0102
S11359E00E94970180E090E002C0812F99278823CC
S11359F011F40E94F327CF911F91FF90EF90089527
S1135A001F930E949901109185090E9497011530F6
S1135A1009F0A2C080E090E0B79981E0892B21F4DD
S1135A200E9902C00E940627869B5CC00E949901C1
S1135A30982F83E080938509892F0E94970115E0B0
S1135A40812F0E94791F80E00E94791F8695869598
S1135A50869580FF1CC00E949901182F87B78F7DFF
S1135A6087BF86B7806286BF81E00E940E2386B717
S1135A70846086BF8EB58F7E8EBD8EB5877F8EBDCA
S1135A8087B7806287BF812F0E94970165C00E94FB
S1135A909901109385090E9497010E94EA188F7357
S1135AA0907001969C01A3E0220F331FAA95E1F7A1
S1135AB0280F391F280F391F81E0809319022115FF
S1135AC0310529F462E070E080E090E005C0C9018E
S1135AD0AA27BB27BC01CD010E94491C9927882312
S1135AE0D9F538C08091F001982F81508093F0014E
S1135AF0992361F40E94062788E08093F00186E9E7
S1135B009CE20E946003882339F524C00E94EA18AD
S1135B108F73907001969C01F3E0220F331FFA9566
S1135B20E1F7280F391F280F391F81E080931902EC
S1135B302115310529F462E070E080E090E005C0B1
S1135B40C901AA27BB27BC01CD010E94491C992782
S1135B50882311F40E94F3271F9108950F931F9334
S1135B60082F8091910999278230910509F46BC01F
S1135B70833091052CF4009759F0019781F1B3C15A
S1135B808330910509F49AC0049709F455C1ABC157
S1135B900E3709F0AAC180912F099927FC01EE0F55
S1135BA0FF1FEE0FFF1FE80FF91FE80FF91FE55A5B
S1135BB0F64F82819381009709F097C111829093E7
S1135BC05A0580935905909323028093220284817D
S1135BD09581909387098093860981E081C10E376E
S1135BE009F483C180912F099927FC01EE0FFF1F4F
S1135BF0EE0FFF1FE80FF91FE80FF91FE55AF64FE4
S1135C0000838091590590915A05ECE8F0E0202F2B
S1135C102927220FF11DE20FF11DC895982F802D21
S1135C203196C895902590935A0580935905802FF5
S1135C3099278134910529F08234910509F44FC1E3
S1135C4052C182E04DC10E3709F44DC180912F0934
S1135C500D3779F49927FC01EE0FFF1FEE0FFF1F9C
S1135C60E80FF91FE80FF91FE55AF64F80E2818328
S1135C703CC19927FC01EE0FFF1FEE0FFF1FE80F39
S1135C80F91FE80FF91FE55AF64F218120272183D8
S1135C908091590590915A05ECE8F0E02927220FEC
S1135CA0F11DE20FF11DC895982F802D3196C895EE
S1135CB0902590935A058093590511C18091220231
S1135CC0909123028932910508F0B8C00D3711F480
S1135CD084E006C10E3709F079C0029708F45AC06F
S1135CE08091220281500E947A2FA0918609B0915E
