S01800006275696C642F6D6963617A2F6D61696E2E73726563E5
S11300000C9446010C9463010C9463010C94F60166
S11300100C9463010C9463010C9463010C943322DB
S11300200C9463010C9471240C9463010C941F02CE
S11300300C94A1230C9463010C9463010C94151C7F
S11300400C9463010C9463010C944E020C946301B0
S11300500C9478020C949D020C9463010C9463013B
S11300600C9463010C9463010C9463010C9463017C
S11300700C9463010C9463010C9463010C9463016C
S11300800C9463010C9463010C946301000021102F
S1130090422063308440A550C660E77008812991EE
S11300A04AA16BB18CC1ADD1CEE1EFF13112100296
S11300B073325222B5529442F772D662399318833E
S11300C07BB35AA3BDD39CC3FFF3DEE36224433462
S11300D020040114E664C774A44485546AA54BB58E
S11300E028850995EEE5CFF5ACC58DD55336722636
S11300F011163006D776F6669556B4465BB77AA7DE
S113010019973887DFF7FEE79DD7BCC7C448E55881
S11301108668A7784008611802282338CCC9EDD92D
S11301208EE9AFF9488969990AA92BB9F55AD44AD5
S1130130B77A966A711A500A333A122AFDDBDCCB7D
S1130140BFFB9EEB799B588B3BBB1AABA66C877CA1
S1130150E44CC55C222C033C600C411CAEED8FFDCD
S1130160ECCDCDDD2AAD0BBD688D499D977EB66E75
S1130170D55EF44E133E322E511E700E9FFFBEEF1D
S1130180DDDFFCCF1BBF3AAF599F788F8891A981DF
S1130190CAB1EBA10CD12DC14EF16FE18010A100C9
S11301A0C230E3200450254046706760B9839893B9
S11301B0FBA3DAB33DC31CD37FE35EF3B102901219
S11301C0F322D2323542145277625672EAB5CBA585
S11301D0A89589856EF54FE52CD50DC5E234C32469
S11301E0A01481046674476424540544DBA7FAB759
S11301F09987B8975FE77EF71DC73CD7D326F236B9
S11302009106B01657667676154634564CD96DC9A4
S11302100EF92FE9C899E9898AB9ABA94458654808
S113022006782768C018E1088238A3287DCB5CDBF8
S11302303FEB1EFBF98BD89BBBAB9ABB754A545A58
S1130240376A167AF10AD01AB32A923A2EFD0FEDC4
S11302506CDD4DCDAABD8BADE89DC98D267C076CA8
S1130260645C454CA23C832CE01CC10C1FEF3EFF98
S11302705DCF7CDF9BAFBABFD98FF89F176E367EF8
S1130280554E745E932EB23ED10EF01E11241FBE45
S1130290CFEFD0E1DEBFCDBF11E0A0E0B1E0EAE7EF
S11302A0F8E600E00BBF02C007900D92A632B1073A
S11302B0D9F714E0A6E2B1E001C01D92A237B1075C
S11302C0E1F70C94EA020C94000010922B011092B6
S11302D02A010E948C01109202020E948A0181E08C
S11302E090E090930A04809309040E948C01109278
S11302F0FB010E948A010E948C011092020210925A
S113030012021092520310925304109252040E944B
S11303108A0108958FBF08958FB7F8949927089597
S1130320AF92BF92CF92DF92EF92FF920F931F93FF
S1130330CF93DF9306EEA0904E04B0904F04C0908C
S11303405004D0905104A114B104C104D104C1F1EA
S113035010E066EA72E0EE24FF2481E090E0A0E081
S1130360B0E00E2C04C0880F991FAA1FBB1F0A946B
S1130370D2F78A219B21AC21BD210097A105B105AB
S113038079F0202F332744275527FB018581968157
S1130390A781B08582179307A407B5070CF40581DC
S11303A01F5F0894E11CF11C675F7F4F1B30A8F2AC
S11303B00E948C0112B71D5F011720F4012F02C0A7
S11303C00E948C010093D40301BF109224030E9465
S11303D08A010E94810BDF91CF911F910F91FF90B1
S11303E0EF90DF90CF90BF90AF9008951F920F923F
S11303F00FB60F9211242F933F934F935F936F93F4
S11304007F938F939F93AF93BF93EF93FF9389B79A
S11304108B7F89BF82EA9CE20E94C402FF91EF9124
S1130420BF91AF919F918F917F916F915F914F9108
S11304303F912F910F900FBE0F901F9018951F9210
S11304400F920FB60F9211240F931F932F933F9384
S11304504F935F936F937F938F939F93AF93BF93C8
S1130460EF93FF930E948C0106B517B50E948A0191
S1130470C8010E94DE23FF91EF91BF91AF919F913C
S11304808F917F916F915F914F913F912F911F9128
S11304900F910F900FBE0F901F9018951F920F92FF
S11304A00FB60F9211242F933F934F935F936F9343
S11304B07F938F939F93AF93BF93EF93FF935F9B30
S11304C006C08CB140E050E060E00E942926FF9114
S11304D0EF91BF91AF919F918F917F916F915F91B8
S11304E04F913F912F910F900FBE0F901F90189531
S11304F078941F920F920FB60F9211242F933F936B
S11305004F935F936F937F938F939F93AF93BF9317
S1130510EF93FF930E940128FF91EF91BF91AF9158
S11305209F918F917F916F915F914F913F912F9107
S11305300F900FBE0F901F9018951F920F920FB639
S11305400F9211242F933F934F935F936F937F9355
S11305508F939F93AF93BF93EF93FF9384B195B120
S113056078940E94EC28FF91EF91BF91AF919F91F5
S11305708F917F916F915F914F913F912F910F9048
S11305800FBE0F901F901895CF93DF93EC010E943C
S11305908C01382F20911203E22FFF27EE0FFF1F4B
S11305A0E55DFD4F80819181892B61F42F5F277078
S11305B020931203C083D183832F0E948A0181E098
S11305C090E005C0832F0E948A0180E090E0DF91D3
S11305D0CF910895CAEFD0E1DEBFCDBFD29AD09AB1
S11305E0D19AA79AA69AA59AA49AA39AA29AA19AEA
S11305F0A09ABB98BA9AB99AD69AD59AB8981698E6
S11306008E988C98BF988E98D498DC98D39A8B9AAD
S11306108D9ADB9ADA9AD89AD99A83E08C5F8739D3
S1130620E8F390E08AE0809307029093120390939A
S11306304B028BE292E0FC019C01225F3F4F11923E
S11306401192029628173907D4F70E943E040E949B
S113065070040E949B1980E0E3EEF3E0108235966B
S11306608F5F8330D8F310922402109220021092EC
S1130670140281E08093AF0380E098E090934402F9
S113068080934302909341028093400280914502FB
S11306909091420282609260827E80934502927EB3
S11306A090934202D39ADB9A95988D9A939A8B9A57
S11306B092988A9889B78B7F89BF80916A008063FA
S11306C080936A008E010F5F1F4F45E050E0B80130
S11306D080EE9FE00E94850463E0C8010E94AF0B96
S11306E09C018C819D818217930781F48B81809377
S11306F022010E948C01282F89819A819093010103
S113070080930001822F0E948A0102C00E94EF1A86
S1130710109252020E94700461E0862F0E945E1BB8
S11307200E943E040E948C011092B4031092B30301
S11307300E948A010E948C0110927104109270042C
S11307401092080410920704109251021092500261
S11307500E948A010E94921B61E082E00E945E1B5B
S11307600E943E040E948C0110920A031092090315
S11307700E948A010E948C011092710410927004EC
S11307801092080410920704109251021092500221
S11307900E948A010E94921B0E949B190E9465017B
S11307A00E943E040E948C0110920004D29AD09AB6
S11307B0D19ADA9AD89AD99A0E948A0101E010E073
S11307C080919502823011F40E944C160093950298
S11307D080E090E00E940B150E949D1B80915202C4
S11307E0882341F420E230E040E050E0602F82E0D2
S11307F00E940A0B80919502823011F40E944C16DB
S11308000093950280E090E00E940B1528EE33E0FF
S113081040E050E0602F89E00E940A0B0E949D1B7B
S11308208091090490910A04019741F428EE33E081
S113083040E050E060E0862F0E940A0B78940E940A
S11308408C0190914B02E92FFF27EE0FFF1FE55D0E
S1130850FD4F008111810115110529F478948895C3
S113086000000000ECCF108211829F5F977090937C
S11308704B020E948A01F8010995E1CF1F9310925F
S11308804E0410924F04109250041092510410928E
S113089024038FEF80935C048093D9011092290282
S11308A083E08093250316EE1093D4030E948C01F9
S11308B0982F87B78E7F87BF87B78D7F87BF80B715
S11308C0886080BF8BE083BF12BE11BF87B7826090
S11308D087BF892F0E948A0181E090E01F910895CB
S11308E0109295024AE050E06DE574E086EE9FE0D8
S11308F00E94850480E00E94B5048FEF8093470234
S113090080939A0281E090E00895CF92DF92EF9273
S1130910FF920F931F93CF93DF938A01EC016B0136
S1130920840F951F8150904118F080E090E014C02E
S1130930EE24FF24E416F50668F4CE010E94D533B4
S1130940F60181936F0121960894E11CF11CE016D5
S1130950F10698F381E090E0DF91CF911F910F9120
S1130960FF90EF90DF90CF900895CF93C82F8230FF
S1130970A0F48091DB01833011F0853071F4109282
S1130980280199278230910519F0049721F005C0B8
S11309900E94D10402C00E941F19C093DB01CF91B1
S11309A00895DF92EF92FF920F931F93CF93DF93FB
S11309B0CDB7DEB722970FB6F894DEBF0FBECDBF1A
S11309C02091DB01822F8250823008F084C0809114
S11309D023029927FC01EE0FFF1FEE0FFF1FE80F04
S11309E0F91FE80FF91FE653FE4F80818160808371
S11309F0223051F580912801082F1127002309F096
S1130A006AC081E08093280183E00E94B50440918C
S1130A102302242F33278CE090E0289FF001299FA4
S1130A20F00D389FF00D1124E65DFC4F8481958113
S1130A3090933C0180933B0140933D018091490494
S1130A4080933E0100933F0180913F01992720E369
S1130A5030E04EE852E0BC01CE0101960E947905D7
S1130A60882321F481E00E94B50435C019811093D4
S1130A703F01D0902302809149049927AA27BB27DC
S1130A80BC01CD0120E534E040E050E00E94E833B1
S1130A909B01AC0187E1189FC0011124AA27BB2741
S1130AA0280F391F4A1F5B1F205F3F4F4F4F5F4F77
S1130AB087E1E82EF12C00E411E06D2D85E00E9421
S1130AC0BC05882341F420E130E040E050E061E0DF
S1130AD083E00E940A0B22960FB6F894DEBF0FBE85
S1130AE0CDBFDF91CF911F910F91FF90EF90DF90D9
S1130AF00895CF92DF92EF92FF920F931F93CF93BB
S1130B00DF936C018B017A01E9012115310539F478
S1130B1029C0F6016083718321E030E023C0FB012A
S1130B2043E0F695E7954A95E1F7EE0DFF1D8081C8
S1130B30282F3327CB018770907002C035952795F5
S1130B408A95E2F7F901E170F07020FDE2CF6F5F62
S1130B507F4FCB01BE010E940734BC01801791076F
S1130B60F1F69F01C901DF91CF911F910F91FF9081
S1130B70EF90DF90CF900895CF92DF92EF92FF92A3
S1130B800F931F93CF93C82F862FBA01A901980101
S1130B90870190E0E82FFF27EE0FFF1FE45EFE4F72
S1130BA0E08180912601823019F080E090E0C3C09A
S1130BB0AC2FBB27A630B10509F446C0A730B10558
S1130BC054F4A430B10509F43FC0A530B105E4F4F0
S1130BD01397D1F0AAC0A830B10541F0A830B105EF
S1130BE00CF44DC0199709F45DC09FC040931102E5
S1130BF0842F9927880F991F4096AC016627772781
S1130C002EE432E002E010E06801EE24FF24FF2726
S1130C10E130F10571F0E230F1051CF4EF2B21F025
S1130C2082C0329759F07FC089019A01AB0160E01C
S1130C3009C089019A01AB0161E004C089019A01EC
S1130C40AB0162E086E06CC0C801AA27BB277C0127
S1130C508D01FF27E130F10559F0E230F1051CF474
S1130C60EF2B21F060C0329729F05DC080E003C013
S1130C7081E001C082E00E946E18682F55C0FF27F2
S1130C80E130F10559F0E230F1051CF4EF2B21F0CD
S1130C904AC0329721F047C0892F01C081E00E94E9
S1130CA0BB18EBCF0E2F112701301105C9F002300C
S1130CB0110524F40115110529F035C00230110580
S1130CC0F9F031C0C090DD01D090DE01E090DF0189
S1130CD0F090E00120E030E040E050E0692F1FC0D8
S1130CE0C090E101D090E201E090E301F090E401D2
S1130CF000E010E020E030E040E050E061E00FC0B0
S1130D00C090E501D090E601E090E701F090E801A1
S1130D1000E010E020E030E040E050E0682F83E0A5
S1130D200E94A306AACF60E0962F913011F4C093DD
S1130D302601892F9927CF911F910F91FF90EF9052
S1130D40DF90CF900895CF92DF92EF92FF920F93AE
S1130D501F93982F80912701882319F080E090E059
S1130D6006C060939F029093270181E090E088235E
S1130D7019F480E090E024C020934E0330934F0395
S1130D8040935003509351031093030400930204BF
S1130D90C092A002D092A102E092A202F092A30219
S1130DA0C092F703D092F803E092F903F092FA03A9
S1130DB010921403109213030E94E70681E090E05E
S1130DC01F910F91FF90EF90DF90CF900895AF9215
S1130DD0BF92CF92DF92EF92FF920F931F93CF9324
S1130DE0DF93C0900204D0900304C0914E03D091CD
S1130DF04F03E0915003F09151038D2F9E2FAF2F9D
S1130E00BB277C01AFEFAA2EB12CAC22BD2200E09F
S1130E1011E00A191B09C801AA27BB272091F7036F
S1130E203091F8034091F9035091FA0328173907D8
S1130E304A075B0720F40091F7031091F803C801F7
S1130E40AA27BB27281B390B4A0B5B0B2093F703FC
S1130E503093F8034093F9035093FA03C80FD91F52
S1130E60EA1FFB1FC0934E03D0934F03E09350033C
S1130E70F0935103C601800F911F90930304809354
S1130E80020480912701E82FFF27E630F10509F4D9
S1130E9051C0E730F1053CF4E130F10549F03397F6
S1130EA009F48BC0D0C03897329708F0CCC085C005
S1130EB090919F0280911302882319F080E090E0C2
S1130EC004C09F5F90931302CF01009779F1809142
S1130ED013028150833011F4B7010EC09927FC012D
S1130EE0EE0FFF1FEE0FFF1FE80FF91FED51FC4F30
S1130EF0618172816E0D7F1DEE24FF249601A50190
S1130F0083E00E94180D9927882311F0992704C0C3
S1130F108093960280E090E09927882311F0992726
S1130F2004C08093130280E090E09927882309F09D
S1130F308AC085C090919F0280911302882319F082
S1130F4080E090E005C09F5F9093130281E090E001
S1130F50009779F1809113028150833011F4B70125
S1130F600EC09927FC01EE0FFF1FEE0FFF1FE80FC5
S1130F70F91FED51FC4F618172816E0D7F1DEE24CE
S1130F80FF249601A50181E00E94180D992788236A
S1130F9011F0992704C08093960280E090E099278D
S1130FA0882311F0992704C08093130280E090E015
S1130FB09927882309F047C042C090919F0220914D
S1130FC013033091140380911302882319F080E0F5
S1130FD090E005C09F5F9093130281E090E000973A
S1130FE061F1809113028150833011F4C7010EC066
S1130FF09927FC01EE0FFF1FEE0FFF1FE80FF91FEB
S1131000ED51FC4F818192818E0D9F1DA801B50188
S11310100E94B2139927882311F0992704C0809362
S1131020960280E090E09927882311F0992704C064
S11310308093130280E090E09927882321F488E1CB
S11310409CE20E94C402DF91CF911F910F91FF9007
S1131050EF90DF90CF90BF90AF900895CF92DF9242
S1131060EF92FF920F931F93682F20912701109204
S11310702701C090A002D090A102E090A202F090BB
S1131080A3028091F7039091F803A091F903B09122
S1131090FA03C81AD90AEA0AFB0A80914E0390910E
S11310A04F03A0915003B09151038C199D09AE09CF
S11310B0BF0980934E0390934F03A0935003B093C2
S11310C0510380910204909103048C199D0990931B
S11310D00304809302043327263031056CF4233053
S11310E031050CF06DC02130310509F469C022309E
S11310F0310509F465C075C0293031052CF4273059
S113110031050CF06EC004C02930310521F169C0ED
S113111080919F0220914E0330914F0340915003E0
S113112050915103009102041091030499278130D6
S1131130910559F0823091051CF4892B21F051C09E
S1131140029729F04EC080E003C081E001C082E034
S11311500E94FA0846C080919F0240911303509167
S11311601403282F33272130310559F0223031055B
S113117024F421153105B1F034C02230310581F059
S113118030C0E0E0F0E080914E0290914F024817A9
S1131190590709F4F901F0934F02E0934E021EC07F
S11311A020E030E080914E0290914F024817590799
S11311B011F421E030E030934F0220934E020EC030
S11311C080919F0299278130910541F082309105E9
S11311D01CF4892B19F005C0029719F4862F0E947C
S11311E0540981E090E01F910F91FF90EF90DF9000
S11311F0CF900895CF92DF92EF92FF920F931F93B7
S1131200CF93082FC62F80911102882339F420E050
S113121031E040E050E060E573E00FC09927AA2771
S1131220BB27BC01CD0120E534E040E050E00E9442
S1131230E8339B01AC0160E574E0CC2351F5809167
S11312402601853031F1205F3F4F4F4F5F4F6B01D7
S1131250EE24FF2411270130110569F00230110535
S113126024F40115110529F011C00230110539F0DB
S11312700DC06C2F07C000E010E061E003C000E087
S113128010E062E089E00E94A30601C080E08823A8
S113129019F48C2F0E945409CF911F910F91FF9044
S11312A0EF90DF90CF900895DF92EF92FF920F932B
S11312B01F93CF93DF93CDB7DEB722970FB6F89481
S11312C0DEBF0FBECDBF182F8091260102E0D02EC5
S11312D0D092260199278530910509F457C08630AC
S11312E091055CF483309105C1F0843091050CF0D4
S11312F06AC1019709F474C17FC18730910509F46B
S1131300C4C0873091050CF461C08830910509F49C
S1131310D6C0099709F435C16FC1112309F033C14F
S113132090914D028CE0989FC0011124865D9C4FE2
S11313300E94930B882399F040914D02242F332768
S11313408CE090E0289FF001299FF00D389FF00D6C
S11313501124E65DFC4F8681841709F4D0C04091C6
S11313604D02242F33278CE090E0289FF001299F21
S1131370F00D389FF00D1124E65DFC4F8FEF9FEFC9
S113138084839583468317831287BCC00091DB0155
S1131390033009F031C1112321F081E00E94B5042A
S11313A02BC18091A4029091A50221E331E04CE18C
S11313B0BC0183EA0E945A16882309F01DC120E16A
S11313C030E040E050E061E0802FE3C0809108020B
S11313D0482F55278CE190E0489FF001499FF00D7C
S11313E0589FF00D1124EA5AFD4F2481822F8695CF
S11313F086958695E82FFF27EB5AFB4F277081E0EF
S113140090E002C0880F991F2A95E2F7982F9095D3
S11314108081892380834F5F5F4FCA019A012E7FA9
S11314203370821B930B8093080280915B0481507C
S113143080935B0420E330E045E554E060E070E035
S1131440CE0101960E9479058823B9F49091470250
S11314509093170480915202823049F4933038F407
S113146085E08093520290934D020E94E10B81E04B
S11314700E94B50410925B04BFC080915B04882372
S113148009F4BAC00E942218B7C0112309F07BC026
S113149060914D028CE0689FC0011124865D9C4FD1
S11314A01CE0E12EF12C8C0120E030E040E050E023
S11314B084E00E94BC05882309F09EC064C090911A
S11314C04E02112309F05FC0809152028130E9F489
S11314D09923C1F080914D02282F33278CE090E0AE
S11314E0289FF001299FF00D389FF00D1124E65D2F
S11314F0FC4F82858F5F82879781891718F40E9439
S11315007B147AC00E94C60B77C060914D02992368
S113151081F4262F33278CE090E0289FF001299F47
S1131520F00D389FF00D1124E65DFC4F128784E026
S113153047C0262F33278CE090E0289FF001299F95
S1131540F00D389FF00D1124E65DFC4F4285242FE9
S113155033272F5F3F4F878199272817390774F066
S1131560EE24FF24870120E030E040E050E089E0F1
S11315700E94BC05882309F03FC005C04F5F428725
S113158022C0112349F020E032E040E050E061E065
S11315908D2D0E940A0B30C040914D02242F332719
S11315A08CE090E0289FF001299FF00D389FF00D0A
S11315B01124E65DFC4F87818287442321F486E071
S11315C08093520217C0D0925202909117048091D6
S11315D06304981711F40E94A9140E94CC140CC03F
S11315E0112311F410932601113021F410924D02AD
S11315F0109352020E94E10B22960FB6F894DEBFBC
S11316000FBECDBFDF91CF911F910F91FF90EF904F
S1131610DF900895AF92BF92CF92DF92EF92FF9244
S11316200F931F93CF9359016A018B3048F46230B2
S11316303CF4662341F4233031054105510518F487
S113164080E090E054C0E82EFF24870183E0000F7F
S1131650111F8A95E1F70E0D1F1D0A551D4FF80144
S1131660A182B282C382D48260830E948C01C82F7B
S113167082B7A80EB11CC11CD11CF801A582B68288
S1131680C782D08621E030E040E050E004C0220F61
S1131690331F441F551FEA94D2F780914E04909152
S11316A04F04A0915004B0915104822B932BA42B8E
S11316B0B52B80934E0490934F04A0935004B093A1
S11316C051048091D4039927AA27BB27A816B906E9
S11316D0CA06DB0638F4A092D403A1BE10922403F8
S11316E00E94810B8C2F0E948A0181E090E0CF91AF
S11316F01F910F91FF90EF90DF90CF90BF90AF902C
S113170008958091230118162CF08AED9BE20E9423
S1131710C40206C085B7837E85BF85B7806285BF56
S113172080E090E008950F931F93CF93DF93EC0133
S113173000E010E068E00E94AF0B28853985281787
S1131740390739F4232B29F08E81833010F401E01A
S113175010E0C801DF91CF911F910F910895DC0132
S113176020E030E0662381F08D91ECE8F0E08327FF
S1131770880FF11DE80FF11DC895322F202D3196E9
S1131780C8953025615081F7C901089581E080939F
S1131790520280914D028F5F80934D02833018F482
S11317A00E94E10B089582E0809352028091950299
S11317B0813011F40E944C1681E090E0809304047F
S11317C00895EF92FF920F931F9310E080915202BD
S11317D0282F33272330310509F479C0243031050B
S11317E044F42115310591F02130310509F45DC02F
S11317F091C02530310509F47DC0253031050CF444
S11318006BC02630310509F479C084C0809126016B
S1131810882311F0C9017DC01093270280911C0117
S113182060911D01992781309105B9F082309105AD
S11318301CF4892B21F02FC00297E9F02CC0E62F6D
S1131840FF27EE0FFF1FEE0FFF1FE352FE4F108224
S1131850118212821382812F1BC0E62FFF27EE0F05
S1131860FF1FEE0FFF1FE352FE4F10821182128200
S1131870138281E00DC0E62FFF27EE0FFF1FEE0F4E
S1131880FF1FE352FE4F108211821282138282E004
S11318900E949B0C01C080E09927282F813011F40D
S11318A080932601822F992734C060914D028CE0E9
S11318B0689FC0011124865D9C4F2CE0E22EF12C20
S11318C08C0120E030E040E050E083E010C000E014
S11318D010E085EA9CE216C080914D02EE24FF24BC
S11318E0870120E030E040E050E0682F87E00E946C
S11318F0BC050FC00E947B1411E00CC000E010E096
S11319008BEA9CE20E94C402882311F001E010E0FB
S1131910802F182F112341F420E032E040E050E002
S113192061E082E00E940A0B812F99271F910F9199
S1131930FF90EF900895382F20911D0222FD0DC0D5
S11319409927FC01EE0FFF1FEE0FFF1FE80FF91F91
S1131950ED51FC4FE081EE2319F080E090E0089512
S1131960246020931D0230931E0260930D04E093C3
S113197015028CE19CE20E94C40281E090E008958B
S1131980262F662311F080E04CC0E0912702EF5F20
S1131990E0932702E33008F047C0FF27EE0FFF1F54
S11319A0E45EFE4F80816181992781309105B9F011
S11319B0823091051CF4892B21F02FC00297E9F0A5
S11319C02CC0E62FFF27EE0FFF1FEE0FFF1FE35281
S11319D0FE4F1082118212821382822F1BC0E62FC7
S11319E0FF27EE0FFF1FEE0FFF1FE352FE4F108283
S11319F011821282138281E00DC0E62FFF27EE0FC1
S1131A00FF1FEE0FFF1FE352FE4F1082118212825E
S1131A10138282E00E949B0C01C080E099278823F6
S1131A2031F40E945409089581E00E9454090895F4
S1131A30EF92FF920F931F93E82F88E060307807AE
S1131A4090F4F1E048305F0770F481E00930180742
S1131A5050F4CA01800F911F8950914020F4809165
S1131A602402882319F080E090E040C0E09324022F
S1131A70E091D303EE2329F085E99CE20E94C4029D
S1131A8033C03093540220935302109367010093A0
S1131A906601709304026093030250936C044093B4
S1131AA06B04F092D603E092D503809140029091AA
S1131AB041026817790719F4E093F90113C0809182
S1131AC04302909144026817790721F481E08093DE
S1131AD0F90108C09E2F8091F901882309F491E04F
S1131AE09093F9010E94451081E090E01F910F91BD
S1131AF0FF90EF9008950F931F93CF93282F809119
S1131B0024021092240299278430910509F434C1E7
S1131B10853091055CF48230910509F4C7C08330A7
S1131B2091050CF002C1019749F032C1873091054B
S1131B300CF415C109970CF02BC11BC1C091130201
S1131B4010921302C15080919F02C817A1F4809192
S1131B50F7039091F803A091F903B091FA03009769
S1131B60A105B10511F0222321F4822F0E94CC0E8D
S1131B7002C00E94E706C33009F00AC190911D0219
S1131B8090FD66C080910D0295E0899FA00111240B
S1131B904F5F5F4F80911302882319F080E090E03B
S1131BA005C084E08093130281E090E0009779F10E
S1131BB0809113028150833019F48FEF97E00EC0A7
S1131BC09927FC01EE0FFF1FEE0FFF1FE80FF91F0F
S1131BD0ED51FC4F818192818150984F20E030E09B
S1131BE062E070E00E94B2139927882311F09927CC
S1131BF004C08093960280E090E09927882311F036
S1131C00992704C08093130280E090E09927282F3D
S1131C103327222309F0BCC080911D028B7F80935F
S1131C201D0280911E0240910D0499278130910577
S1131C3059F0823091051CF4892B21F0A9C0029738
S1131C4029F0A6C061E028C061E029C061E02AC093
S1131C5080911E02282F3327F901EE0FFF1FEE0F8C
S1131C60FF1FE20FF31FED51FC4F408180910D04E3
S1131C70481709F057C09B7F90931D02213031050E
S1131C8069F0223031051CF4232B29F081C0223065
S1131C90310539F07DC060E080E005C060E081E09E
S1131CA002C060E082E00E94C00C72C00091D503C3
S1131CB01091D603C091130210921302C150809167
S1131CC09F02C817C1F41093140300931303809167
S1131CD0F7039091F803A091F903B091FA030097E8
S1131CE0A105B10511F0222321F4822F0E94CC0E0C
S1131CF002C00E94E706C33009F04AC020911D02C9
S1131D00216020931D0230E080910B0290910C021F
S1131D100817190709F031E0330F822F8D7F832BC9
S1131D2080931D020E94D51333C090911302109228
S1131D301302915080919F02981751F58091F703F7
S1131D409091F803A091F903B091FA030097A105CB
S1131D50B105D9F02223C9F00E94E70619C0909179
S1131D60130210921302915080919F02981781F4EC
S1131D700CC0109213020CC0909113021092130223
S1131D80915080919F02981719F4822F0E94CC0ED3
S1131D90CF911F910F910895CF92DF92EF92FF920E
S1131DA00F931F93813009F02CC18091270199274B
S1131DB08430910509F489C0853091051CF403979A
S1131DC049F01CC18730910509F4ACC0089709F4A7
S1131DD0FDC014C18091130380935E0180911303AD
S1131DE090911403892F992780935F0160919F023A
S1131DF0E62FFF27EE0FFF1FEE0FFF1FE352FE4FEC
S1131E008081809360012081318142815381BB278D
S1131E10A52F942F832F80936101CA01AA27BB2782
S1131E2080936201852F9927AA27BB27809363019A
S1131E3081EB809364018CE08093650184E080935E
S1131E40270180911302882319F080E090E005C0F7
S1131E506F5F6093130281E090E0009791F18091AD
S1131E6013028150833019F460E070E00CC09927AC
S1131E70FC01EE0FFF1FEE0FFF1FE80FF91FED51DE
S1131E80FC4F61817281EE24FF2408E010E02EE50E
S1131E9031E040E051E083E00E94180D9927882347
S1131EA011F0992704C08093960280E090E099276E
S1131EB0882311F0992704C08093130280E090E0F6
S1131EC09927882309F0A1C09CC085E0809327014D
S1131ED090919F0280911302882319F080E090E092
S1131EE005C09F5F9093130281E090E00097B1F0EA
S1131EF086E00E940C109927882311F0992704C0CA
S1131F008093960280E090E09927882311F0992726
S1131F1004C08093130280E090E09927882309F09D
S1131F2074C06FC080916401813B09F04DC0809101
S1131F3065018C3009F048C060919F02E62FFF27AD
S1131F40EE0FFF1FEE0FFF1FE352FE4F8091600163
S1131F50282F332744275527809161019927AA27E1
S1131F60BB27BA2FA92F982F8827282B392B4A2B28
S1131F705B2B809162019927AA27BB27DC01992753
S1131F808827282B392B4A2B5B2B809163019927B7
S1131F90AA27BB27B82FAA2799278827282B392BAC
S1131FA04A2B5B2B20833183428353831092270176
S1131FB069017A0100E010E020E030E040E050E008
S1131FC088E00E94A30621C082E015C080915E01D2
S1131FD0282F332780915F019927982F8827282B52
S1131FE0392B80911303909114038217930711F4F2
S1131FF080E001C083E00E942E0807C084E19CE2D7
S113200002C088E19CE20E94C4021F910F91FF90DC
S1132010EF90DF90CF900895982F80912402882329
S113202019F080E090E00895909324028091D30306
S1132030882319F085E99CE213C080914202982F0D
S1132040927081FD03C09093F9010FC08091450205
S113205081FD04C081E08093F90107C081E99CE21D
S11320600E94C40281E090E008958091F9019927CB
S1132070FC01EE0FFF1FE80FF91FEE5BFD4F80819F
S1132080877E80830E944510EDCF0F931F9340916C
S1132090F901842F9927FC01EE0FFF1FE80FF91FA8
S11320A0DF01A05CBD4F20910302309104028D91A9
S11320B09C9111972817390709F0D4C05091240234
S11320C0852F992784309105B1F08530910564F40A
S11320D08230910509F471C0833091050CF091C0F0
S11320E0019709F458C0E8C08730910574F1099745
S11320F00CF0E2C035C080916B0490916C04813087
S1132100910599F08130910518F0029749F0D4C0F7
S113211086E080939E0200E010E040E061E8C9C0E0
S1132120EE5BFD4F808184608083842F9927FC01BE
S1132130EE0FFF1FE80FF91FEE5BFD4F80818260F9
S1132140808381E00E947B0DB7C0EE5BFD4F8081F0
S113215081FF06C0869586958695837009F08FC0A9
S1132160842F9927FC01EE0FFF1FE80FF91FEE5B88
S1132170FD4F808181FF7BC0573011F0553029F429
S113218081E99CE20E94C40297C010922402852F28
S11321900E940C1091C0809153029091540290932C
S11321A011048093100480916601909167019093CB
S11321B026028093250281E009C0809166019091F6
S11321C06701909326028093250282E080939E0209
S11321D0442311F064ED01C066ED20916B0430914D
S11321E06C04842F9927FC01EE0FFF1FE80FF91FE1
S11321F0EE5BFD4F80818170890120E030E042E098
S113220059C0809153029091540290931104809389
S11322101004809166019091670190932602809347
S1132220250283E080939E02EE5BFD4F8081857ED4
S11322308083442311F064E801C067E820916B04B3
S113224030916C04842F9927FC01EE0FFF1FE80FD7
S1132250F91FEE5BFD4F80818170890120E030E041
S113226040E028C0EE5BFD4F808181FD03C00E94E9
S1132270851322C0869586958695837021F0842FD8
S11322800E94F91219C080912402843019F42D930C
S11322903C93FDCE85E080939E02442311F063E5D8
S11322A001C065E500E010E02091030230910402D2
S11322B040E081E00E945F111F910F9108950F93F8
S11322C01F93782F862F642FA80180932603C901BA
S11322D0880F892F881F990B919580932703220FCC
S11322E0852F9927282B20932803409329036C5F7B
S11322F060932802772339F08091AF03882319F083
S11323000E94881102C00E941A131F910F91089510
S1132310CF9381E0809314029598DB9887ED0E9417
S1132320CF110E948C01282F84E088BF89B7846074
S113233089BF959882E090E0000000000000000052
S11323400000000000000000019718161906A4F30D
S1132350829B05C089B78B7F89BFC0E001C0C1E003
S1132360822F0E948A01CC23C1F480919E0288307E
S113237061F4959A95980000000080E090E08299BD
S113238002C081E090E08093B20381E08093200258
S1132390DB9A89E99CE20E94C402CF9108950F93CD
S11323A01F93082F10E00E948C01982F82B3877D21
S11323B082BB07FD939A959A8299106882BB06FDA9
S11323C0939A959A8299106482BB05FD939A959A83
S11323D08299106282BB04FD939A959A8299106146
S11323E082BB03FD939A959A8299186082BB02FD81
S11323F0939A959A8299146082BB01FD939A959A57
S11324008299126082BB00FD939A959A8299116019
S1132410892F0E948A01812F99271F910F91089576
S11324208091140220919E02882309F44AC090915D
S11324304502892F8E7F8093450230914202832F7B
S11324408E7F809342021092AF03109214022830C0
S113245039F52091B20380910602222359F099277D
S1132460FC01EE0FFF1FE80FF91FEE5BFD4F8081AB
S1132470877E9FC09927FC01EE0FFF1FE80FF91F0D
S1132480EE5BFD4F9081892F8695869586958370A6
S1132490823010F49D7F4BC081E08093D30326C02B
S11324A0387111F4987151F02750223038F080E0DF
S11324B0332309F481E00E94F91208950E941A134B
S11324C00895822F992784309105B1F085309105C4
S11324D01CF401975CF00CC08630910509F46BC0C4
S11324E0863091050CF44BC0079729F180E001C0B8
S11324F081E00E947B0D089581E08093AF03809179
S1132500F9019927FC01EE0FFF1FE80FF91FEE5B9D
S1132510FD4F90819360892F86958695869583706B
S11325208F5F8370880F880F880F937E982B90831A
S11325300E944510089588E080939E0281E0809374
S1132540AF03809106029927FC01EE0FFF1FE80FED
S1132550F91FEE5BFD4F8081816080838AE090E00B
S11325600000000000000000000000000000000067
S1132570019718161906A4F30E948811089581E0A2
S11325808093AF038091F90199279C01220F331F97
S1132590280F391FF901E05CFD4F809103029091EF
S11325A0040280839183F901EE5BFD4F8081836097
S11325B08B7F8083BDCF41E04093AF038091F901CD
S11325C099279C0102C0220F331F4A95E2F7280F76
S11325D0391FF901E05CFD4F8091030290910402E0
S11325E080839183F901EE5BFD4F80818660808357
S11325F07FCF0F931F93282F87E080939E02209311
S11326000602822F9927FC01EE0FFF1FE80FF91F26
S1132610E05CFD4F222311F060E601C061E600E0BA
S113262010E02081318140E081E00E945F111F9120
S11326300F910895CF92DF92EF92FF920F931F9321
S1132640CF93DF9390E0C92EC6E2EC2EC3E0FC2EBC
S113265080912802C82FDD270091D5031091D6035D
S1132660D92E9598DB9882E0D816A9F4ECE8F0E02E
S11326709127990FF11DE90FF11DC895302F202DD9
S11326803196C89530258901219749F53093D603B1
S11326902093D50329C0DD2081F4F701C1907F0187
S11326A02197E9F4D0909E02E0901004F090110478
S11326B0C0912502D091260212C0F1E0DF1631F458
S11326C0F70191937F01219751F40EC0F3E0DF16D7
S11326D059F4209749F0F701C1907F0121978C2D7F
S11326E00E94CF11982FBFCF81E080932002DB9A04
S11326F089E99CE20E94C402DF91CF911F910F915E
S1132700FF90EF90DF90CF9008950F931F9384E094
S113271080939E024091F901242F3327C901880F29
S1132720991F820F931FDC01A05CBD4FFC01EE5B7F
S1132730FD4F808182FF06C0442311F068E807C082
S113274069E805C0442311F063E801C066E800E0CD
S113275010E02D913C9140E081E00E945F111F91B7
S11327600F910895EF92FF920F931F938A017901BD
S1132770452B71F482E0809324023093D603209396
S1132780D50381E99CE20E94C40281E090E008C084
S113279020E030E0AB01BC0182E00E94180D9927D3
S11327A01F910F91FF90EF900895EF92FF920F9376
S11327B01F9320911D0221FD06C090911502809166
S11327C00D02981709F580911E029927FC01EE0F5E
S11327D0FF1FEE0FFF1FE80FF91FED51FC4F108292
S11327E02B7F20931D0240910D048130910509F443
S11327F076C08230910524F4892B09F46DC076C02B
S1132800029709F46FC072C085E0989FA00111245B
S11328104D5F5F4F9F5F9093150290911E02989FAA
S1132820900111242D513C4F80911302882319F0FB
S113283080E090E005C084E08093130281E090E0A2
S1132840009781F1809113028150833019F46FEF66
S113285077E00EC09927FC01EE0FFF1FEE0FFF1F5C
S1132860E80FF91FED51FC4F618172816150784F7F
S1132870EE24FF2405E010E081E00E94180D992762
S1132880882311F0992704C08093960280E090E099
S11328909927882311F0992704C08093130280E0BC
S11328A090E09927282F3327222301F580911D02D8
S11328B08B7F80931D0280911E0240910D04992705
S11328C08130910561F0823091051CF4892B21F04F
S11328D00DC0029739F00AC061E080E005C061E0F4
S11328E0862F02C061E082E00E94C00C1F910F910C
S11328F0FF90EF900895EF92FF920F931F936091D2
S11329004D02262F33278CE090E0289FF001299F69
S1132910F00D389FF00D1124E65DFC4F8285992758
S1132920AA27BB27EE24FF2487019C01AD0188E080
S11329300E94BC05882341F420E032E040E050E0EE
S113294061E082E00E940A0B1F910F91FF90EF90CB
S11329500895909163048CE0989FF0011124E65D42
S1132960FC4F20915F0430916004409161045091C8
S1132970620480819181A281B381281739074A07B3
S11329805B0749F492858781981729F4992319F0F4
S113299084E080931504089520E030E0D9018CE0B0
S11329A0289FF0011124E65DFC4F878192858917E9
S11329B0D1F02093470290939A024FEF50E0E5E55F
S11329C0F4E085E090E0419301976FEF8F3F960725
S11329D0D1F7A20FB31FA653BE4F84E08C93C90155
S11329E00E940B1508952F5F3F4F15962330310534
S11329F0B4F28FEF8093470280939A022FEF30E076
S1132A00E5E5F4E085E090E0219301974FEF8F3FF7
S1132A109407D1F708959C01833091059CF4FC013F
S1132A20EE0FFF1FEE0FFF1FE80FF91FE80FF91F4E
S1132A30EB53FE4F8481893029F089E08483C901F6
S1132A400E9423150895CF92DF92EF92FF920F9385
S1132A501F9375ECC72E71E0D72E7C01EE0CFF1C82
S1132A60EE0CFF1CE80EF91EE80EF91E87010C0D92
S1132A701D1DF8018481282F33272150304081E027
S1132A8090E0A0E0B0E004C0880F991FAA1FBB1F0C
S1132A902A95D2F780839183A283B3830E949315EE
S1132AA09C0144275527F80180819181A281B3813B
S1132AB00197A109B109282339234A235B230196ED
S1132AC0A11DB11D820F931FA41FB51F8083918385
S1132AD0A283B383F701E653FE4F80818E7F808308
S1132AE00E94BF158C0181E00E94F41571E0F80189
S1132AF0EE0FFF1FEE0FFF1FE00FF11FE00FF11F9E
S1132B00EC0DFD1D80819181A281B3819C01AD01F9
S1132B10672F872F0E940A0B1F910F91FF90EF9050
S1132B20DF90CF900895EF92FF92CF93DF930E94AE
S1132B308C01282FC091F403D091F5037E018F2DD1
S1132B40881F8827881FCC0FDD1F882321F08BE086
S1132B5090E1C827D9272196D093F503C093F403B5
S1132B608091090290910A02C827D927822F0E94D6
S1132B708A01CE01DF91CF91FF90EF9008950F93DA
S1132B801F93CF93DF93C0E0D0E061E070E005E0F5
S1132B9010E0D801A60FB71FAB53BE4FFE01EE0FD6
S1132BA0FF1FEE0FFF1FEC0FFD1FEC0FFD1FEB537C
S1132BB0FE4F2D913D914D915C9180819181A28137
S1132BC0B381281739074A075B0708F4EB016F5FE5
S1132BD07F4F0B5F1F4F63307105DCF2CE01DF9135
S1132BE0CF911F910F910895EF92FF920F931F932E
S1132BF08B3008F04AC091E0E92EF12C012D112D03
S1132C0004C0EE0CFF1C001F111F8A95D2F780919F
S1132C104E0490914F04A0915004B09151048E2120
S1132C209F21A023B1230097A105B10571F10E9452
S1132C308C01E094F0940095109520914E0430910D
S1132C404F0440915004509151042E213F214023C0
S1132C50512320934E0430934F04409350045093D7
S1132C6051040E948A0180914E0490914F04A091D6
S1132C705004B09151040097A105B10519F481E005
S1132C808093240381E090E002C080E090E01F91F3
S1132C900F91FF90EF9008950E94CC1481E00E9460
S1132CA0B50481E090E00E940B1582E090E00E9460
S1132CB00B150895DF92EF92FF920F931F93CF931A
S1132CC0DF93D82E7B01042FE90110914D041123C9
S1132CD021F581E080934D044E3130F489EB9CE280
S1132CE00E94C402882319F410934D0416C0D09393
S1132CF02202C09321020883EE82FF82D886E091EB
S1132D002102F0912202809122018187812F815F2B
S1132D108D32E8F381E090E002C080E090E0DF9142
S1132D20CF911F910F91FF90EF90DF9008951F9323
S1132D30CF93C1E010E00E948C01282F80911204EF
S1132D40882391F580916E04992781FF08C081EB57
S1132D5093E090934A028093490280E41AC082FF70
S1132D600FC0E091D701F091D801F0934A02E093AB
S1132D70490282E48093DC01808199270A960DC080
S1132D8083FF12C08AEF91E090934A028093490234
S1132D908FEF8093DC0181E090E09093FE018093BB
S1132DA0FD011C2FC0931204822F0E948A0111235B
S1132DB009F10E948C01109269011092680126E0C9
S1132DC030E030930E0320930D030E948A018EE7B6
S1132DD00E94FF16C82F813069F00E948C01982F41
S1132DE088E080931204892F0E948A018BE197E185
S1132DF00E94C4028C2F9927CF911F9108951F938D
S1132E00CF93C82F0E948C011091AE0391E0909350
S1132E10AE030E948A01112319F080E090E008C0FB
S1132E200E948C01CCB95E9A0E948A0181E090E0F4
S1132E30CF911F910895CF93C1E00E948C01982FE8
S1132E4080911204883019F4C0E0C0931204892FD1
S1132E500E948A018091DC01803449F40E948C0133
S1132E6090916E0422E0922790936E0419C00E9400
S1132E708C01282F80916E0494E0892780936E043E
S1132E80822F0E948A018091D7019091D8016C2FE2
S1132E900E9456170E948C011092D8011092D701FB
S1132EA00E948A010E949716CF910895FC01109206
S1132EB04D0480859927823A910591F0833A9105D2
S1132EC044F48A30910509F448C0813A9105A9F186
S1132ED044C0833A910589F0843A910571F13DC06B
S1132EE08091DB018530C9F580911804815080936D
S1132EF0180480E00E94B01730C020913F01822F57
S1132F00869586958695E82FFF27E257FD4F277013
S1132F1081E090E002C0880F991F2A95E2F7982F6C
S1132F20909580818923808322E030E040E050E066
S1132F3061E083E00E940A0B10C010922801809186
S1132F40DB0199278230910519F0049721F005C01F
S1132F500E94D10402C00E941F1981E090E00895EC
S1132F60882359F00E94931590709C01442755279B
S1132F70205F3F4F4F4F5F4F0BC00E9493158F77D9
S1132F8090709C014427552720583F4F4F4F5F4F67
S1132F9061E083E00E940A0B0895EF92FF920F9381
S1132FA01F937B018C010E948C01982FE0921602E2
S1132FB0F0921702009318021093190281E0809393
S1132FC04C04892F0E948A018FEFE816F104010551
S1132FD0110521F018F064E08FEF02C064E08E2D3B
S1132FE00E94F91781E090E01F910F91FF90EF90FC
S1132FF008951F93CF93182FC62F683018F080E0E0
S113300090E01DC0C8600E948C01982F15BC87B742
S11330108F7787BF87B78F7B87BFC0939902109341
S11330200C0314BC13BD86B7806886BF87B780685D
S113303087BFC5BD892F0E948A0181E090E0CF91AE
S11330401F910895DF92EF92FF920F931F93D090F8
S1133050470200910802202F33278CE190E0289F3B
S1133060F001299FF00D389FF00D1124EA5AFD4F0D
S1133070838114819927AA27BB27BC01CD0120E5B0
S113308034E040E050E00E94E8339B01AC0187E16A
S1133090189FC0011124AA27BB27280F391F4A1FD4
S11330A05B1F205F3F4F4F4F5F4F8CE1089FC00174
S11330B01124855A9D4F67E1E62EF12C8C016D2D6C
S11330C086E00E94BC059927882311F480935B0451
S11330D01F910F91FF90EF90DF9008954F925F92B0
S11330E06F927F928F929F92AF92BF92CF92DF9214
S11330F0EF92FF920F931F93CF93C82F2A013B01A6
S1133100470158016701780189019A01AB016C2FCD
S113311081E00E94A306282F8823D9F0730162015D
S1133120C80CD91CEA1CFB1CEC2FFF27EE0FFF1F59
S1133130EE0FFF1FE352FE4F80819181A281B38184
S11331408C159D05AE05BF0520F4C082D182E282B4
S1133150F382822F9927CF911F910F91FF90EF90C7
S1133160DF90CF90BF90AF909F908F907F906F90A3
S11331705F904F900895EF92FF920F931F93982FB3
S113318080912701882319F080E090E007C0909394
S11331909F0282E08093270181E090E0882319F464
S11331A080E090E047C090919F02809113028823B1
S11331B019F080E090E005C09F5F9093130281E0D6
S11331C090E0009779F1809113028150833019F4D3
S11331D060E070E00CC09927FC01EE0FFF1FEE0FBA
S11331E0FF1FE80FF91FED51FC4F61817281EE243E
S11331F0FF2487019701A80184E00E94180D9927F4
S1133200882311F0992704C08093960280E090E00F
S11332109927882311F0992704C08093130280E032
S113322090E09927882321F488E19CE20E94C4025B
S113323081E090E01F910F91FF90EF9008958091AD
S1133240DB018430B1F580912801882309F05FC047
S113325081E08093280185E00E94B5048091A40256
S11332609091A50290933C0180933B0180910001D1
S11332709091010190933E0180933D01809147021A
S113328080934101282F33278CE090E0289FF001A0
S1133290299FF00D389FF00D1124E65DFC4F8481C9
S11332A095819093400180933F0180919A0280938D
S11332B042018091DB01853051F580911F02882302
S11332C031F080E00E94B01710921F02089580919F
S11332D01804882321F481E00E94B504089546E08F
S11332E050E065E574E083E491E00E9488198091E0
S11332F03B0190913C0121E331E04EE0BC0182EAC4
S11333000E945A169927882311F40E94B017089531
S11333109C01D901FB01415050408FEF4F3F5807AA
S113332041F081918D93415050408FEF4F3F5807AA
S1133330C1F7C90108950F931F93CF930E943E04D0
S11333400E94A91A0E948C011092AE030E948A0165
S113335001E010E00E948C01282F1092FD031092CE
S1133360AD031092940210924C028BE194E090937E
S113337018038093170310921B04822F0E948A0162
S11333800E948C01482F209100013091010181E5B8
S113339097E3289FB001299F700D389F700D112469
S11333A0CB018F5A984C9093F5038093F403909338
S11333B068048093670485E89FE0289FB001299FF3
S11333C0700D389F700D1124CB018B57904F909343
S11333D00A0280930902842F0E948A0180910001CD
S11333E0909101019093140480931304C0E00E940F
S11333F08C01982F80912901882319F400932901C5
S1133400C02F892F0E948A01CC2319F480E090E018
S113341091C000930C04BB98BA9AB99AD69AD59ADB
S1133420B89A16988E988C98BF980E948C01B99A75
S1133430BB98BA9A709A6C9A6B986A9869986898CB
S11334406E9A0E948A010E943E040E948C01282FD9
S113345084E0809355028FEF90E090936A04809308
S11334606904822F0E948A0180E098EF9093B6034A
S11334708093B50382EE92E09093B8038093B703F0
S113348080E095E09093BA038093B90380E890EECE
S11334909093BC038093BB038FE097EA9093BE03A1
S11334A08093BD03809103019927806E9066909369
S11334B0C0038093BF0385EE92E19093C20380938F
S11334C0C10386E59AE09093C4038093C30390916B
S11334D0020185E0989FC0011124825D9E4F906493
S11334E09093C6038093C50384EC91E09093C80342
S11334F08093C7031092CA031092C9031092CC039D
S11335001092CB038FE792E09093CE038093CD0388
S11335101092D0031092CF030E948C01982F82E066
S113352080932901892F0E948A0182E29EE20E94EF
S1133530C402C80110924D0410921A041092190486
S113354010929C0210929B029927CF911F910F9188
S113355008950E948C01682F80E090E04AE651E0D3
S11335609C01F901E80FF91FE952FC4F448355838C
S113357012821382118201962B5F3F4F435D5F4F8E
S11335808230910574F31092120410920E0310927B
S11335900D031092FE011092FD0110926901109228
S11335A068011092D8011092D70110920B04109266
S11335B0B0031092160410921B0210921A02109279
S11335C03F0210923E028091DB039091DC039093C2
S11335D0FF038093FE03862F0E948A0108950F93B0
S11335E01F93CF93DF93CDB7DEB725970FB6F8942B
S11335F0DEBF0FBECDBF8E010F5F1F4F45E050E011
S1133600B80180EE9FE00E948504809100019091B2
S1133610010189839A83809122018B8363E0C8012D
S11336200E94AF0B9C018C819D818217930749F006
S11336302C833D8345E050E0B80180EE9FE00E947A
S11336402C1B25960FB6F894DEBF0FBECDBFDF91BD
S1133650CF911F910F910895CF92DF92EF92FF9235
S11336600F931F93CF93DF938A01EC016B01840FB7
S1133670951F8150904118F080E090E016C0EE2430
S1133680FF24E416F50668F4F60161916F01CE019A
S11336900E94DD3321960894E11CF11CE016F1062A
S11336A098F3E199FECF81E090E0DF91CF911F91F3
S11336B00F91FF90EF90DF90CF9008950F931F9399
S11336C0CF93C82F062F8A3080F40E948C01182FC4
S11336D00E947B1BEC2FFF27E75EFC4F0083812FAA
S11336E00E948A0181E090E002C080E090E0CF91E6
S11336F01F910F9108950E948C01282F80916F04CF
S1133700882361F480E090E0E9E1F3E0819301969D
S11337108A309105DCF381E080936F04822F0E944C
S11337208A0108950E947B1B84E086B93698349AF6
S1133730339A379881E090E008950F931F93CF93C5
S11337400E94A91A109290008FE089B982E08BB987
S113375086E08093950088ED8AB900E00E948C0190
S1133760C82F8091FD03882359F489E79DE20E94C4
S1133770C402882329F001E081E090E08093FD03F6
S11337808C2F0E948A01112728EE33E040E050E09C
S113379060E084E00E940A0BC82F10924D040E943E
S11337A0810B002319F08C2F992702C080E090E050
S11337B09927CF911F910F9108950F931F93CF9342
S11337C0DF93182FEB010E948C01282F10920C0418
S11337D0C0981FB9779BFECF0FB11F3040F08D2FDB
S11337E099278FB9779BFECFCFB9779BFECF81E026
S11337F080930C04822F0E948A01C09A802F9927FB
S1133800DF91CF911F910F9108951F93182F0E945C
S11338108C01C0981FB9779BFECF1FB10E948A010B
S1133820C09A812F99271F91089578941F920F921F
S11338300FB60F9211242F933F934F935F936F937F
S11338407F938F939F93AF93BF93CF93EF93FF9304
S11338500E948C01982F80912A02882369F080911C
S11338600F038093FC03886080930F0383BF8091D0
S11338703B0281BF10922A02892F0E948A010E9472
S11338808C01C82F8091100390911103892B21F48E
S113389086E09BE20E94C40221B7809110039091BC
S11338A01103820F911D01969093110380931003CD
S11338B08C2F0E948A01FF91EF91CF91BF91AF911C
S11338C09F918F917F916F915F914F913F912F9134
S11338D00F900FBE0F901F901895CF93C82F0E9482
S11338E08C01982FEC2FFF27E75EFC4F808187B96E
S11338F08081883019F4C83009F4AA9A379A369A24
S1133900892F0E948A0181E090E0CF910895FF926F
S11339100F931F93CF93DF93FF240E948C01482FB2
S113392080910104882311F011E0F12E2091B3035A
S11339303091B4032115310541F48091090390912C
S11339400A03892B11F4C1E0FC2E232B11F41092ED
S113395030018091090390910A03892B19F481E0C5
S113396080933001842F0E948A01FF2009F0E7C070
S113397000913001002309F469C0C0910E02D09176
S11339800F02C230D10591F1C330D10530F4209734
S113399059F0219709F4D3C059C0C330D10509F4B3
S11339A0CEC0249709F052C081E090E090930F02BA
S11339B080930E021D9A159AA898A0988AE00E94F6
S11339C0F4150E948C0111E0109301040E948A01F5
S11339D0109230012AE030E040E050E0612F8AE0AC
S11339E00E940A0B811709F4AAC06BC00E948C01C3
S11339F011E0109301040E948A010E948C01082F97
S1133A002091500230915102C9018C239D23892BAE
S1133A1011F01F2D12C0C22BD32BD0935102C0938F
S1133A205002232B51F481E090E090937104809331
S1133A307004812F0E946D1C182F802F0E948A0110
S1133A40113009F071C01092300179C0002309F0DF
S1133A5070C0C0910E02D0910F02C230D10589F01E
S1133A60C330D10530F4209761F0219709F467C081
S1133A7060C0C330D10509F462C0C430D10531F14E
S1133A8058C083E090E090930F0280930E021D983B
S1133A901598A89AA09A8AE00E94F4150E948C01B5
S1133AA011E0109301040E948A01109330012AE06E
S1133AB030E040E050E0612F8AE00E940A0B811759
S1133AC0F1F110920F0210920E022EC00E948C018E
S1133AD011E0109301040E948A010E948C01F82EC7
S1133AE02091500230915102C9018C239D23892BCE
S1133AF011F0102F12C0C22BD32BD0935102C093BC
S1133B005002232B51F482E090E09093710480934F
S1133B10700482E00E946D1C182F8F2D0E948A0170
S1133B20812F9927813049F087E89CE10E94C402E3
S1133B3006C080E0002309F481E080933001DF9126
S1133B40CF911F910F91FF900895CF930E948C0104
S1133B5010927104109270041092080410920704D9
S1133B6010925102109250020E948A010E94921BEC
S1133B70C82F6EE187E00E945E1B882319F08C2F0A
S1133B80992702C080E090E09927CF9108950F9380
S1133B901F93CF930E948C01C09105020E948A0159
S1133BA0CC2319F511E00E948C01082F20915002BA
S1133BB03091510227FF02C01C2F12C0C901806836
S1133BC09093510280935002232B51F487E090E0AC
S1133BD0909371048093700487E00E946D1C182FE9
S1133BE0802F0E948A01112319F480E090E00BC019
S1133BF00E948C01982F81E080930502892F0E94F6
S1133C008A0181E090E0CF911F910F9108951F9355
S1133C10CF93DF93182F0E948C01282F10920C044D
S1133C20C09810641FB9779BFECF8FB11FB8779BE4
S1133C30FECF8FB1C82FDD271FB8779BFECFDC2FB7
S1133C40CC278FB19927C82BD92BC09A81E08093B8
S1133C500C04822F0E948A01CE01DF91CF911F9123
S1133C600895882319F08EB5806402C08EB58F7BC9
S1133C708EBD86B7806286BF0895EF92FF920F9340
S1133C801F93CF93DF938C017B019CE0899FE0011C
S1133C901124C65DDC4F80912801282F332722236D
S1133CA009F04EC0809100019091010190933C0174
S1133CB080933B0182E080933D01922F8091040424
S1133CC0882309F491E090933E018DE594E00E94ED
S1133CD0A71E882361F42FEF30E0EDE5F4E089E0DE
S1133CE090E0219301974FEF8F3F9407D1F74AE07B
S1133CF050E06DE574E08FE391E00E948819CE01F5
S1133D000E94930B882329F48FEF9FEF8C839D836C
S1133D100E834CE050E0BE0189E491E00E948819D2
S1133D2083E0EBE3F1E0828F21E331E04CE1B70182
S1133D3081EA0E945A169927813011F48093280150
S1133D40DF91CF911F910F91FF90EF9008950F9302
S1133D501F93CF93DF93EC0100E010E068E00E9432
S1133D60AF0B9C01888599858217930729F0888178
S1133D7099818F5F9F4F11F401E010E0C801DF913A
S1133D80CF911F910F91089580919E02883061F424
S1133D90959A95980000000080E090E0829902C016
S1133DA081E090E08093B20381E080932002DB9A6B
S1133DB089E99CE20E94C40281E090E008957F9228
S1133DC08F929F92AF92BF92CF92DF92EF92FF9227
S1133DD00F931F93CF93DF937C01209100013091C7
S1133DE0010180919B0290919C02019690939C0208
S1133DF080939B02F70181A5813009F0C1C29185AE
S1133E0080912201981709F0BBC286819781FFEF48
S1133E108F3F9F0721F08217930709F0B1C2F70182
S1133E20908580E0815F8D32E8F3892F9927823A6B
S1133E30910509F4B3C1833A910544F480329105A4
S1133E4071F0813A910509F478C09AC2833A9105D8
S1133E5009F40EC2843A910509F46AC291C20E941F
S1133E608C01C82FD7011A96F7018285809324010B
S1133E7010922D0110922C01992782309105D1F1D5
S1133E808330910534F4009709F44DC0019739F05B
S1133E9050C08330910511F1049789F14AC02091F3
S1133EA0090430910A042130310509F042C080919F
S1133EB02A0190912B01892BE1F530932B0120935A
S1133EC02A0112968D919C911397AA27BB279C01D6
S1133ED0AD0160E087E00E940A0B2BC080910904C9
S1133EE090910A04029729F581E090E090930A04E6
S1133EF0809309040E94A51D0E94C71D1AC08091C9
S1133F00090490910A040197A1F410922B011092D4
S1133F102A0182E090E090930A04809309040E94AD
S1133F20A51D0E94C71D87E00E94F41588E00E9429
S1133F30F4158C2F0E948A0123C2E7012A968C88EB
S1133F4068E1A62EB12CAE0CBF1C77248A81823086
S1133F5009F016C2C7010E960E94A71E882309F411
S1133F600FC280919502813009F00AC28CE0889ECC
S1133F7080011124065D1C4F4B81442349F14330D9
S1133F8079F0F50124813581F80184819581281720
S1133F903907B9F4F5019285F8018285981789F4F7
S1133FA0882D9927F701628573850E943D1E2C8117
S1133FB03D8180915D0490915E042817390741F496
S1133FC0DFC1443029F42E96CE010E94CF21D8C1FE
S1133FD02C813D8180915D0490915E0428173907FE
S1133FE0C1F12F5F3F4FA9F18A85833090F599275E
S1133FF00E940B158C819D8120915D0430915E049B
S1134000821B930B1816190624F5CE0104964AE078
S113401050E0BC018DE594E00E9488194AE050E02C
S11340206DE574E086EE9FE00E942C1B8091630492
S1134030882321F484E08093150402C00E94A9140B
S11340408B81823031F4882D9927688179810E948F
S11340503D1E5EE0C52ED12CCC0EDD1EC6010E9495
S1134060930B882309F48CC19090950241E0941637
S113407009F086C1882051F48B81823009F080C117
S1134080888199818E37910509F07AC1F5012481DF
S11340903581F801848195812817390721F1FFEFD3
S11340A08F3F9F0759F04FEF2F3F340709F46EC03D
S11340B0281B390B121613060CF068C0C6010E94A7
S11340C0CF218FEF8093470280939A022FEF30E045
S11340D0E5E5F4E085E090E0219301974FEF8F3F11
S11340E09407D1F753C0F5013285F80122852317CF
S11340F050F5882D9927FC01EE0FFF1FEE0FFF1FCF
S1134100E80FF91FE80FF91FE653FE4F10811695CB
S1134110E9F50990D881C02D8091DB018130B1F59A
S113412080914702881591F584E00E94B504D093EC
S1134130A502C093A4029092180410931F02892D23
S11341400E94B01723C0882D9927321780F4FC01F0
S1134150EE0FFF1FEE0FFF1FE80FF91FE80FF91F07
S1134160E653FE4F80818170846080830FC0FC0120
S1134170EE0FFF1FEE0FFF1FE80FF91FE80FF91FE7
S1134180E653FE4F808181608083792C772009F08B
S1134190F7C0882D99270E940B15F2C0E7012A96D3
S11341A08091DB01882309F4EBC01E81133008F0F1
S11341B0E7C00F81602F812F0E940322F70122851F
S11341C0338580910001909101012817390709F086
S11341D0D7C0212F33278CE090E0289FF001299F3E
S11341E0F00D389FF00D1124E65DFC4F24813581DC
S11341F08C819D818217930709F0C2C082850817BC
S113420008F0BEC02091DB01213061F0822F825082
S11342108230B0F480912302181791F480914904FC
S1134220081771F4D7015296EEE8F2E0AF014B5F44
S11342305F4F80819D91892B81934E175F07CCF747
S1134240213009F09DC082E00E94B504109323023E
S1134250009349048A819B818E37910511F08FEF79
S11342609FEF9093A5028093A4020E94D10488C07A
S1134270E7012A968091DB01882309F481C08A81B1
S1134280833008F07DC06B810E9403224A81242F71
S113429033278CE090E0289FF001299FF00D389F90
S11342A0F00D1124E65DFC4F24813581F7018285F0
S11342B093858217930709F063C0809147024817DA
S11342C009F05EC09B8180919A02981709F058C04A
S11342D02C81822F869586958695E82FFF27EB5AA9
S11342E0FB4F80819927277002C0959587952A9561
S11342F0E2F780FF45C090915B04923008F040C023
S11343008091080289279CE1899FC00111248A5A5F
S11343109D4F4CE150E0BE010E94881980915B04DE
S11343208F5F80935B04813059F50E94221828C066
S1134330E7012A96888D998D8E37910519F08F5F44
S11343409F4FF1F4809128018823D1F430935401D4
S11343502093530148E150E064E071E08BE391E085
S11343600E948819888D998D21E331E04AE1BC01CE
S113437084EA0E945A169927813011F48093280107
S1134380C701DF91CF911F910F91FF90EF90DF90C4
S1134390CF90BF90AF909F908F907F900895FC0135
S11343A080915202823019F080E090E00895868175
S11343B080934D02882311F483E001C084E080934C
S11343C0520290914D028CE0989FC0011124865DA9
S11343D09C4F4CE050E0BF010E94881980914D022F
S11343E0282F33278CE090E0289FF001299FF00DBF
S11343F0389FF00D1124E65DFC4F12860E94E10BFC
S113440081E090E00895282F9091DB01892F82505C
S11344108230C0F480912302281730F0281711F558
S1134420809149046817F0F481E00E94B504EEE835
S1134430F2E085E090E0119201972FEF8F3F920711
S1134440D1F708959450923068F480914702281768
S113445030F0281739F480919A02861718F081E019
S113446080931F0208951F920F920FB60F9211248A
S11344702F933F934F935F936F937F938F939F9368
S1134480AF93BF93CF93EF93FF93809194028823CC
S113449071F18091FD03853051F580914C0488239E
S11344A031F10E948C01982F10924C0487B78F77BA
S11344B087BF892F0E948A010E9493159C012F7344
S11344C030702F5F3F4FC90173E0880F991F7A95B1
S11344D0E1F7820F931F820F931F855B9F4FAA27DB
S11344E097FDA095BA2FBC01CD010E94CD1780E0A5
S11344F090E0B79981E0892B19F40E94A42212C09C
S11345000E948C01C82F8FE19EE20E94C40288237E
S113451021F089B78F7B89BF02C00E94A4228C2F0F
S11345200E948A01FF91EF91CF91BF91AF919F912A
S11345308F917F916F915F914F913F912F910F9048
S11345400FBE0F901F9018951F9389B78F7B89BF5B
S11345508FE30E94071E18E0812F0E94051C812F03
S11345600E94051C0E948C0110924C020E948A0138
S11345700E948C01982F8AB780628ABF8AB78F7E87
S11345808ABF89B7806489BF892F0E948A011F91DD
S113459008950F931F93CF93DF9380E090E0B79932
S11345A081E0892B11F40E9B93C00E948C01182F7B
S11345B0C0914C02CC2349F08FE19EE20E94C402D8
S11345C0882331F40E94A42203C081E080934C022A
S11345D0812F0E948A01CC2309F07AC0009117032D
S11345E0109118030E948C01982F80912303882333
S11345F011F0C1E003C081E080932303892F0E945E
S11346008A01CC2309F04FC00E948C01282FC0934B
S11346101C021093EA010093E901C0988FE78FB957
S1134620779BFECF8FB11FB8779BFECF8FB180935E
S11346306D04882321F1E091E901F091EA0180837E
S113464080916D048F5F80936D048A3218F089E243
S113465080936D0491E080916D04981780F41FB8E5
S1134660779BFECFE091E901F091EA01E90FF11D9A
S11346708FB180839F5F80916D04981780F381E0F0
S113468080931C02822F0E948A01C09A8CE29EE2CF
S11346900E94C402C82F882349F40E948C01C0934D
S11346A023030E948A0180E090E002C081E090E050
S11346B0C82FDD27CC2361F40E948C01C0934C02E7
S11346C00E948A018FE19EE20E94C402882311F4B1
S11346D00E94A422DF91CF911F910F9108950F930F
S11346E01F930E948C01982F82E08093FD03009118
S11346F0F2031091F303F80180818B508083892F9A
S11347000E948A0161E0C8010E9456171F910F910F
S113471008950E948C01982F82E08093FD03892FD5
S11347200E948A01E091F203F091F30380818B509F
S113473080838091F2039091F30360E00E94561706
S1134740089578941F920F920FB60F9211242F930D
S11347503F934F935F936F937F938F939F93AF9305
S1134760BF93EF93FF930E948C01282F80910B033A
S1134770882381F080914802809355028860809359
S113478048028EBD8091690490916A049BBD8ABDE4
S113479010920B03822F0E948A01FF91EF91BF9127
S11347A0AF919F918F917F916F915F914F913F91C5
S11347B02F910F900FBE0F901F9018951F93CF93BA
S11347C0DF93EC018091FD0399278330910519F063
S11347D0049799F176C00E948C01182F87B78F7DBA
S11347E087BF86B7806286BF80E00E94311E86B78D
S11347F0846086BF8EB58F7E8EBD8EB5877F8EBD5D
S113480087B7806287BF812F0E948A01849907C07D
S113481087B78F7D87BF86B7806286BF03C084E079
S11348208093FD03E091F203F091F303C3A7D4A7AF
S11348308091FD03843009F44AC086E08093FD032F
S113484087B78F7D87BF86B7806286BF0E948C0141
S1134850182F87B78F7D87BF86B7806286BF81E0B8
S11348600E94311E86B7846086BF8EB58F7E8EBD52
S11348708EB5877F8EBD87B7806287BF812F0E94E8
S11348808A0180919402882399F0E091F203F091D7
S1134890F303868197818F5F9F4F51F082E080936D
S11348A010026BE470E080E090E00E94CD1704C039
S11348B08FE693E20E94C402882349F40E9489236C
S11348C006C0E0911703F0911803C3A7D4A706B656
S11348D001FE03C086B7846086BFDF91CF911F912C
S11348E0089578941F920F920FB60F9211242F936C
S11348F03F934F935F936F937F938F939F93AF9364
S1134900BF93CF93DF93EF93FF930E948C01982F73
S11349108091F801882359F0809154048860809331
S1134920540485BD80910C0383BD1092F801892F36
S11349300E948A010E948C01C0911602D091170234
S11349400E948A01CF3FD10508F041C087B78F7715
S113495087BF0E948C0110924C040E948A010E941D
S11349608C01C091FD030E948A0180911002992755
S11349708130910581F0823091051CF4892B21F05E
S11349803DC0029759F03AC081E195E20E94C40209
S11349908823A1F519C00E947B2530C0C63071F56B
S11349A00E948C01982FE091F203F091F30312A678
S11349B087E08093FD03892F0E948A018FE693E2AA
S11349C00E94C4028823D1F40E94892317C0CD2FEA
S11349D0DD270E948C01282FCE01AA27BB278093B4
S11349E0160290931702A0931802B0931902822F13
S11349F00E948A0164E08C2F0E94F917FF91EF91C5
S1134A00DF91CF91BF91AF919F918F917F916F91E2
S1134A105F914F913F912F910F900FBE0F901F9078
S1134A201895EF92FF921F93CF9389E00E94051C83
S1134A30882309F459C0C091C401CF5FE090F20308
S1134A40F090F30310E00E948C01982F8091EB0109
S1134A50882311F011E003C081E08093EB01892FDA
S1134A600E948A011123C9F50E948C01382F1093EA
S1134A701C02C093FB03F0923D02E0923C02C098FA
S1134A808EE38FB9779BFECF1FB190E02091FB039B
S1134A90921778F4E0913C02F0913D0281918FB934
S1134AA0F0933D02E0933C02779BFECF9F5F921709
S1134AB088F381E080931C02832F0E948A01C09AAC
S1134AC083E29EE20E94C402C82F882349F40E9414
S1134AD08C01C093EB010E948A0180E090E002C047
S1134AE0812F9927882311F40E948923CF911F9144
S1134AF0FF90EF9008951F930E948C011091FD0385
S1134B000E948A01153009F0A2C080E090E0B799B4
S1134B1081E0892B21F40E9902C00E94A422869B75
S1134B205CC00E948C01982F83E08093FD03892F41
S1134B300E948A0115E0812F0E94051C80E00E94DA
S1134B40051C86958695869580FF1CC00E948C0165
S1134B50182F87B78F7D87BF86B7806286BF81E0B5
S1134B600E94311E86B7846086BF8EB58F7E8EBD4F
S1134B708EB5877F8EBD87B7806287BF812F0E94E5
S1134B808A0165C00E948C011093FD030E948A0172
S1134B900E9493158F73907001969C01A3E0220FDD
S1134BA0331FAA95E1F7280F391F280F391F81E019
S1134BB0809310022115310529F462E070E080E051
S1134BC090E005C0C901AA27BB27BC01CD010E9402
S1134BD0CD1799278823D9F538C08091EC01982FF7
S1134BE081508093EC01992361F40E94A42288E00F
S1134BF08093EC0181E195E20E94C402882339F597
S1134C0024C00E9493158F73907001969C01F3E069
S1134C10220F331FFA95E1F7280F391F280F391F88
S1134C2081E0809310022115310529F462E070E0DF
S1134C3080E090E005C0C901AA27BB27BC01CD01D3
S1134C400E94CD179927882311F40E9489231F916C
S1134C5008950F931F93082F80910B049927823096
S1134C60910509F46BC0833091052CF4009759F039
S1134C70019781F1B3C18330910509F49AC0049777
S1134C8009F455C1ABC10E3709F0AAC18091B00334
S1134C909927FC01EE0FFF1FEE0FFF1FE80FF91F0E
S1134CA0E80FF91FE952FC4F82819381009709F0C4
S1134CB097C1118290933F0280933E0290931B020E
S1134CC080931A02848195819093FF038093FE035D
S1134CD081E081C10E3709F483C18091B003992723
S1134CE0FC01EE0FFF1FEE0FFF1FE80FF91FE80F87
S1134CF0F91FE952FC4F008380913E0290913F02DC
S1134D00ECE8F0E0202F2927220FF11DE20FF11D1E
S1134D10C895982F802D3196C895902590933F0281
S1134D2080933E02802F99278134910529F08234A3
S1134D30910509F44FC152C182E04DC10E3709F407
S1134D404DC18091B0030D3779F49927FC01EE0F22
S1134D50FF1FEE0FFF1FE80FF91FE80FF91FE952BD
S1134D60FC4F80E281833CC19927FC01EE0FFF1FB9
S1134D70EE0FFF1FE80FF91FE80FF91FE952FC4F70
S1134D8021812027218380913E0290913F02ECE80B
S1134D90F0E02927220FF11DE20FF11DC895982F8D
S1134DA0802D3196C895902590933F0280933E02C2
S1134DB011C180911A0290911B028932910508F069
S1134DC0B8C00D3711F484E006C10E3709F079C07C
S1134DD0029708F45AC080911A0281500E94F52764
S1134DE0A091FE03B091FF03FD01E80FF11D808146
S1134DF09927182F002780911A0290911B02A80F5F
S1134E00B91F12978C910E94F5279927082B192B0B
S1134E1010933F0200933E028091B0039927FC0156
S1134E20EE0FFF1FEE0FFF1FE80FF91FE80FF91F2A
S1134E30E952FC4F80911A0290911B0202978283DF
S1134E40938380E49FE20E94C4028091B0038F5F49
S1134E5081708093B0039927FC01EE0FFF1FEE0FC2
S1134E60FF1FE80FF91FE80FF91FE952FC4F828179
S1134E709381892BD9F4848195819093FF03809346
S1134E80FE0381E080930B0413C08091B003992743
S1134E90FC01EE0FFF1FEE0FFF1FE80FF91FE80FD5
S1134EA0F91FE952FC4F12821382118210920B04F3
S1134EB010923F0210923E0210921B0210921A02AC
S1134EC08FC080911A020E94F527E091FE03F091B1
S1134ED0FF03E80FF11D008340911A0250911B0259
S1134EE042305105E8F020913E0230913F02E091BA
S1134EF0FE03F091FF03E40FF51F32978081ECE885
S1134F00F0E08327880FF11DE80FF11DC895322FBB
S1134F10202D3196C895302530933F0220933E02D0
S1134F204F5F5F4F50931B0240931A0259C00E37D4
S1134F30D1F410923F0210923E0210921B02109282
S1134F401A028091B0039927FC01EE0FFF1FEE0FA8
S1134F50FF1FE80FF91FE80FF91FE952FC4F1282F7
S1134F60138211823BC080E2082780911A020E94BA
S1134F70F527E091FE03F091FF03E80FF11D008394
S1134F8040911A0250911B0242305105E8F02091E1
S1134F903E0230913F02E091FE03F091FF03E40FE3
S1134FA0F51F32978081ECE8F0E08327880FF11D2C
S1134FB0E80FF11DC895322F202D3196C895302564
S1134FC030933F0220933E024F5F5F4F50931B028A
S1134FD040931A0283E080930B0402C010920B04E6
S1134FE081E090E01F910F910895843010F48A5F5E
S1134FF006C0843019F480E090E008958B5F99270F
S113500008951F930E948C011091AE031092AE0379
S11350100E948A01112309F4C2C0809112048730CE
S113502031F4109212048BE197E10E94C40221E052
S11350308091120499278430910509F48CC085303D
S1135040910554F48230910561F1833091050CF09F
S113505076C0019749F09AC08630910509F48FC053
S113506006970CF481C092C082E0809312042091D0
S11350706801309169018091DC01ECE8F0E083275C
S1135080880FF11DE80FF11DC895322F202D3196A0
S1135090C895302530936901209368018091DC0123
S11350A072C08091DC0120916801309169014CE863
S11350B050E0E0914902F0914A0260910D03709131
S11350C00E03803411F0E60FF71F6081762FFA018A
S11350D07327770FF11DE70FF11DC895922F802DCF
S11350E03196C895902590936901809368018091C9
S11350F00D0390910E03019690930E0380930D037C
S11351000A9721F410920E0310920D0380910D035F
S113511090910E03019731F48AE090E090930E038E
S113512080930D0320910D0330910E038091FD01B6
S11351309091FE012817390798F084E00FC0809100
S1135140480490E289270E94FF16282F8091F603D5
S1135150809312041BC06091680185E0809312045F
S1135160862F0E94D32811C0809168019091690113
S1135170292F332786E080931204822FF2CF87E011
S1135180809312048EE70E94FF16282F213039F0F5
S113519088E0809312048BE197E10E94C40281E0CD
S11351A090E01F910895CF93C82F8D57823070F4EB
S11351B00E948C01909112049093F60393E09093D3
S11351C01204C09348040E948A01CDE78C2F0E94E8
S11351D0FF169927CF910895EF92FF920F931F9393
S11351E0CF93DF937C010E948C01182F809170046F
S11351F0C82FDD2721E030E00C2E02C0220F331F20
S11352000A94E2F78091070490910804822393237F
S1135210892B69F4379820953095809150029091AC
S11352205102822393239093510280935002409120
S11352305002509151024115510511F12091700411
S1135240309171042F5F3F4F2C30310511F0C901AB
S113525002C080E090E09C0181E090E0022E02C058
S1135260880F991F0A94E2F784239523892B51F31D
S11352703093710420937004809170040E946D1C1B
S1135280812F0E948A01C230D10509F442C0C33083
S1135290D10524F4C130D10531F09AC0C730D1050D
S11352A009F46FC095C00E948C01109201042091F2
S11352B0B3033091B4032230310518F022303105A4
S11352C021F01092B4031092B3030E948A0187E87C
S11352D09CE10E94C4020E948C01182FF0920102EA
S11352E0E09200020E948C011092B4031092B30366
S11352F00E948A0180912C0190912D010196909336
S11353002D0180932C01029709F05DC08EE89AE28A
S113531058C00E948C01109201042091090330911D
S11353200A032230310518F02230310521F01092A1
S11353300A03109209030E948A0187E89CE10E94F3
S1135340C4020E948C01182FF0921603E0921503F8
S113535080912C0190912D01019690932D018093C1
S11353602C01029721F48EE89AE20E94C402812F54
S11353700E948A010E948C0110920A031092090370
S113538023C00E948C01F0920F04E0920E040E944C
S11353908A0184EB9FE20E94C402182F8823B1F48F
S11353A00E948C01109305020E948A010E948C01C4
S11353B0182F8FEF9FEF90934B0480934A0485E15D
S11353C09AE20E94C402812F0E948A0101E001C076
S11353D000E011270E948C01682F0023D1F441E0E2
S11353E050E002C0440F551FCA95E2F7209107040C
S11353F030910804C90184239523892B51F03798EF
S1135400CA0180959095282339233093080420936A
S11354100704862F0E948A0181E090E0DF91CF91FA
S11354201F910F91FF90EF900895CF930E948C01EC
S1135430C82F8091000482FF08C00E948C01982F1D
S1135440D89A809100048B7F07C00E948C01982F0A
S1135450D89880910004846080930004892F0E946E
S11354608A018C2F0E948A010E948C01282F10929D
S11354702D0110922C01809112029DE2899FF0016E
S11354801124E35AFC4F81E08083809109049091B8
S11354900A048130910511F082E090E087839087BF
S11354A080912E0190912F018383948380914A04EB
S11354B090914B048187928710920102109200020E
S11354C0109216031092150381E090E08583968371
S11354D0809100019091010181839283822F0E9427
S11354E08A01909112028DE2989FC00111248D5A75
S11354F09C4F9C014FE060E070E08AE00E945A16E5
S1135500882351F00E948C019091120221E092278D
S1135510909312020E948A01CF9108951F930E94D2
S11355208C01182F8091000481FF08C00E948C0117
S1135530982FD99A809100048D7F07C00E948C0116
S1135540982FD99880910004826080930004892F59
S11355500E948A01812F0E948A010E948C01482F97
S113556010922D0110922C0120912E0130912F01C7
S11355702F5F3F4F30932F0120932E018091120211
S11355801DE2819FF0011124E35AFC4F10828091A7
S11355900002909101028783908780911503909176
S11355A01603818792872383348310920102109219
S11355B00002109216031092150382E090E0858396
S11355C09683809100019091010181839283842FBD
S11355D00E948A0180911202819FC00111248D5A78
S11355E09C4F9C014FE060E070E08AE00E945A16F4
S11355F0882351F00E948C019091120221E092279D
S1135600909312020E948A011F9108959F92AF9273
S1135610BF92CF92DF92EF92FF920F931F93CF939B
S1135620DF9381E0809324030E948C01C0901003D7
S1135630D090110310921103109210030E948A015A
S113564080914E0490914F04A0915004B091510464
S11356500097A105B10509F495C09924C6EAD2E0E2
S1135660AA24BB24F1E0EF2EF12C012D112D0A2CDC
S113567004C0EE0CFF1C001F111F0A94D2F7809186
S11356804E0490914F04A0915004B09151048E2186
S11356909F21A023B1230097A105B10509F469C096
S11356A09601442755278D819E81AF81B885821B41
S11356B0930BA40BB50B8D839E83AF83B88703979D
S11356C0A105B1050CF055C088EE9FE20E94C4020A
S11356D0882309F445C08881882389F48D819E81BB
S11356E0AF81B88529813A814B815C81820F931FF8
S11356F0A41FB51F8D839E83AF83B8871AC0A801EA
S11357009701209530954095509580914E04909145
S11357104F04A0915004B091510482239323A423F5
S1135720B52380934E0490934F04A0935004B093F8
S1135730510480915C048A3019F48FEF80935C04E7
S113574090915C049F5F90935C04809129028F5F29
S113575080932902E92FFF27E351FE4F908209C06D
S11357608091D4039927AA27BB278D839E83AF8377
S1135770B88793940894A11CB11C29968AE08915D2
S113578008F070CF0E948C01C0901003D0901103D8
S11357900E948A01CD2811F40E949001DF91CF91DB
S11357A01F910F91FF90EF90DF90CF90BF90AF903B
S11357B09F90089587B799278C7F009719F080E010
S11357C090E01AC06F9918C0379B03C088E090E03E
S11357D013C087B7992783709070892B59F081B7CC
S11357E092B7891B803118F48CE190E005C088E100
S11357F090E002C080E190E0382F8093DA0125B771
S1135800237E8C3121F0883111F008C0000080B76C
S1135810992787709070892BC9F7237E232B25BF86
S113582085B7806285BF089580E00E942E080895A0
S113583081E00E942E080895EF92FF920F931F9328
S113584080911D0280FD66C080911302882319F0A7
S113585080E090E005C084E08093130281E090E052
S1135860009799F1809113028150833019F46FEFFE
S113587077E00EC09927FC01EE0FFF1FEE0FFF1F0C
S1135880E80FF91FED51FC4F618172816150784F2F
S1135890EE24FF2403E010E02BE032E0A70181E0D6
S11358A00E94180D9927882311F0992704C080932A
S11358B0960280E090E09927882311F0992704C08C
S11358C08093130280E090E09927282F3327222326
S11358D019F580911D028B7F80931D0280911E0219
S11358E040910D0499278130910561F08230910532
S11358F01CF4892B21F010C0029739F00DC061E02F
S1135900822F05C061E0862F02C061E082E00E9420
S1135910C00C02C00E94D5131F910F91FF90EF900D
S1135920089581E00E947B0D089580E00E947B0D24
S1135930089580912002882321F0109220020E9471
S1135940101208950E94C41E089584E080935202A8
S11359500E94E10B089582E0809352029091170413
S113596080916304981711F40E94A9140E94CC1426
S11359700895CF92DF92EF92FF921F93CF93DF931C
S1135980CDB7DEB722970FB6F894DEBF0FBECDBFFA
S1135990E0902102F0902202F701868197818E37F0
S11359A09105C9F411E00E948C0190916E0492FD5E
S11359B008C0946090936E04F092D801E092D701ED
S11359C001C010E00E948A01113019F40E94971658
S11359D0182F612F78C00E948C011091FD030E9442
S11359E08A01123009F06CC088E0F701828380914B
S11359F09402882311F081E202C081E0F7018183DF
S1135A008FEF9FEFF701848395832681378181E0AF
S1135A1089831A8240E050E089819A81813091051E
S1135A2009F4AC01452B19F4C32ED22E01C069012F
S1135A30F701C682D7828081855F80838091AD0320
S1135A408F5F8093AD03838313A614A68081825055
S1135A508093C401F092F303E092F20388E0809310
S1135A60EC010E9493158F70907001969C01B3E035
S1135A70220F331FBA95E1F7280F391F280F391F5A
S1135A80109210022115310529F462E070E080E0E3
S1135A9090E005C0C901AA27BB27BC01CD010E9423
S1135AA0CD179927882361F00E948C01982F85E0F7
S1135AB08093FD03892F0E948A0181E090E002C057
S1135AC080E090E0682F662331F480912102909168
S1135AD022020E94561722960FB6F894DEBF0FBE1C
S1135AE0CDBFDF91CF911F91FF90EF90DF90CF90CA
S1135AF00895EF92FF920F931F93CF9300E00E94BB
S1135B008C019091FD03913019F40093FD03092F4A
S1135B100E948A01013009F08CC00E948C01C0915E
S1135B20FD030E948A01CC2309F083C00E948C01EA
S1135B30982F8AE08093FD03C093EC01E091170352
S1135B40F0911803C083892F0E948A010E948C015E
S1135B50C0934C040E948A011C2F0E948C01982F30
S1135B6080912901823021F483E080932901102F50
S1135B70892F0E948A01112309F45BC00E948C01C1
S1135B80E0906904F0906A04109155020E948A0121
S1135B90177018600E948C01982FCFBD87B78F7E35
S1135BA087BF87B78B7F87BF87B78F7D87BF1DBCB4
S1135BB01CBCFBBCEABC86B7806186BF1EBD892FB6
S1135BC00E948A01DD9A88E592E00000000000004E
S1135BD000000000000000000000019718161906DC
S1135BE0A4F3DE9800000000DE9A0000000068E1E3
S1135BF070E08DE10E94DD1B11E00E948C01109386
S1135C009D020E948A0180B39927C6E096958795E4
S1135C10CA95E1F7817090708093460221E030E0EC
S1135C2040E050E0612F86E00E940A0B812F0E9421
S1135C30051CCF911F910F91FF90EF9008950E9442
S1135C40C922089508950E948C011092EB010E94CC
S1135C508A010E947B2508958F929F92AF92BF92F2
S1135C60CF92DF92EF92FF920F931F93CF93DF9324
S1135C70CDB7DEB722970FB6F894DEBF0FBECDBF07
S1135C80882499240E948C01E0906D04A090E9017D
S1135C90B090EA01109223030E948A010E948C01B1
S1135CA01091FD030E948A01C401B79981E0892BF8
S1135CB011F40E9B71C0EE2009F46EC089E28E15BA
S1135CC008F46AC0B0921803A0921703809194025A
S1135CD0882309F44AC0163009F047C0F5018181D0
S1135CE0992787709070029709F03FC09381809143
