S01800006275696C642F6D6963617A2F6D61696E2E73726563E5
S11300000C9449000C94DE040C94E8040C94F2045F
S11300100C94FC040C9406050C9410050C94C30A6F
S11300200C941A050C9468000C9468000C94351513
S11300300C94CD0B0C94A8040C94BE040C942405CD
S11300400C9497040C94010E0C9468000C946800B2
S11300500C9468000C9468000C9468000C9468007C
S11300600C94B3040C9468000C9468000C9468001D
S11300700C9468000C9468000C9468000C9468005C
S11300800C9468000C9468000C94680000081C1818
S1130090141011241FBECFEFD0E1DEBFCDBF11E09D
S11300A0A0E0B1E0E4EEF1E300E00BBF02C0079092
S11300B00D92AE30B107D9F712E0AEE0B1E001C065
S11300C01D92A034B107E1F70E9461130C94F1185A
S11300D00C9400008FB7F894992708958FBF089562
S11300E09FB7F894282F332720FF02C0DA9801C065
S11300F0DA9A21FF02C0D99801C0D99A22FF02C01E
S1130100D89801C0D89A892F99278FBF0895FC01E8
S113011082819927582F442781819927482B592B6D
S1130120CA01892F992786958695837090708230AD
S1130130910559F08330910559F0892B19F420E089
S113014030E008C02CE93FEF05C022E030E002C0F7
S113015028E030E0CA0184E0989F812D992711247A
S11301608230910559F08330910559F0892B19F4A7
S113017080E090E008C08CE99FEF05C082E090E049
S113018002C088E090E0280F391F2A5F3F4FCF015B
S1130190820F931F0895282F9FB7F894662349F080
S11301A0E82FFF27EE56FE4F8081882311F021E0CF
S11301B006C0E22FFF27EE56FE4F608320E0892F12
S11301C099278FBF822F99270895E82F8FB7F89426
S11301D0282F332790E0FF27EE56FE4F80818617A5
S11301E009F491E02FBF892F99270895882311F0EE
S11301F06E9A08956E980895882311F06F9A089561
S11302006F98089580E00E94F600BA9ABB98B99A54
S1130210B89A6C9A80E00E94FC006B986A9881E01E
S11302200E94F600709A8DB18C7F8DB908950F935A
S11302301F93CF93DF93182F8FB7F894C82FDD2720
S11302400C2F61E080E00E94CB00882321F0CFBF17
S113025085E090E024C0809105018823A1F4809179
S11302601401823081F409C082E080931401109259
S113027005010E940201B89AC0981093020180E01F
S11302800FBF99270CC080911401882369F38FB79D
S1130290F8949927109292018FBF81E0F1CFDF91FA
S11302A0CF911F910F910895282F9FB7F894E82FAD
S11302B0FF27E85CFE4F80818F3F81F4E0913E028E
S11302C0E21771F40BC02093FC0104C0FF27E85C23
S11302D0FE4F208320933E0220E007C025E005C0A6
S11302E08091FC018F3F91F7EECF892F99278FBF23
S11302F0822F992708951F93182F81E00E94F600FA
S11303001FB9779BFECF8FB199271F9108958F92C4
S11303109F92AF92BF92CF92DF92EF92FF920F9390
S11303201F93CF93DF938FB7F8949927C09005025A
S1130330D09006028090890190908A01C091710149
S1130340D091720120911D0130911E01EAE0AE2E80
S1130350B12CAC0EBD1E2A153B0508F459018FBF04
S11303607401EC0EFD1E86010C0F1D1F14C0C11478
S1130370D10419F0F801808101C080E00E947B0162
S11303808114910411F0F701808321960894E11CF3
S1130390F11C0F5F1F4FC5010197C817D90738F328
S11303A081E00E94FC009FB7F894C114D10431F09D
S11303B0CC0EDD1EF60180818FB901C01FB8D09329
S11303C07201C0937101892F99278FBF80E090E05B
S11303D0DF91CF911F910F91FF90EF90DF90CF901D
S11303E0BF90AF909F908F9008952FB7F8943327C4
S11303F050931E0140931D019093060280930502C1
S113040070938A01609389011092720110927101B4
S11304102FBF452B29F08FB10E948701992708959A
S113042089E00E94540180E090E008958FB7F89429
S11304309927109294018FBF089580E88093360124
S1130440109250011092FF011092FB0110924D0185
S11304500895CF93DF93FC0115A6DC019E96ED0170
S11304601B821A82198280E886A7DF91CF910895B2
S11304702F923F924F925F926F927F928F929F92B0
S1130480AF92BF92CF92DF92EF92FF920F931F939E
S1130490CF93DF93CDB7DEB728970FB6F894DEBFBE
S11304A00FBECDBF209056013090570140905801A7
S11304B050905901662477248824BEE4AB2EA3E827
S11304C0BA2ECC24DD24EE24FF2400E010E0222DFB
S11304D0332D442D552D662D772D882D90E00E94C7
S11304E0D31629833A834B835C836D837E838F8306
S11304F09887822E932EA42EB52E2401350100E276
S11305000E94D117A22EB32EC42ED52EC301B20140
S113051096958795779567956A0D7B1D8C1D9D1D16
S113052097FF05C09F776F5F7F4F8F4F9F4F6093FB
S1130530560170935701809358019093590128965E
S11305400FB6F894DEBF0FBECDBFDF91CF911F91E0
S11305500F91FF90EF90DF90CF90BF90AF909F905E
S11305608F907F906F905F904F903F902F90089561
S11305708FB7F89460917501709176012CB53DB5F3
S113058006B602FE04C06F5F7F4F2CB53DB59927B8
S11305908FBF88279927CB017727662744275527BC
S11305A0622B732B842B952B0895EF92FF920F935C
S11305B01F930E94B8027B018C012091600130914D
S11305C06101409162015091630180915B019091BE
S11305D05C01A0915D01B0915E01820F931FA41F85
S11305E0B51FE216F3060407150730F082179307C8
S11305F0A407B50758F005C082179307A407B507E9
S1130600E0F5E816F9060A071B07B8F59C01AD01E9
S11306102E193F09400B510B213060E8360760E08A
S1130620460760E0560768F180E090E8A0E0B0E09B
S1130630E80EF91E0A1F1B1FE0926001F09261018F
S1130640009362011093630180E090E8AFEFBFEF85
S1130650E80EF91E0A1F1B1F20503048404050402E
S113066020935B0130935C0140935D0150935E01E4
S113067020E030E840E050E014C020E030E040E00A
S113068050E08093600190936101A0936201B09364
S1130690630110925B0110925C0110925D01109253
S11306A05E01A901B7012CB53DB5C9018E199F0999
S11306B003968417950720F0B9016D5F7F4F02C040
S11306C0640F751F6115710511F461E070E06150EC
S11306D070407BBD6ABD80E186BF87B7806187BFFC
S11306E01F910F91FF90EF9008950F931F930FB7F1
S11306F0F894112760936001709361018093620103
S11307009093630120935B0130935C0140935D01FE
S113071050935E010E94D5020FBF1F910F9108955F
S113072097B79F7D97BF90E296BF882319F08EB547
S1130730806402C08EB58F7B8EBD87B7806287BF11
S113074080E090E008957FB7F89462B7209120018B
S113075030912101409122015091230106B601FEFE
S11307600FC081B792B7280F311D411D511D2F5F56
S11307703F4F4F4F5F4F290F311D411D511D04C085
S1130780260F311D411D511D872F99278FBFCA0187
S1130790B9010895DF92EF92FF920F931F938FB7E1
S11307A0F894282F3327D22E91B782B746B79817DB
S11307B011F041FF02C02FBF6AC0809170018823ED
S11307C0E1F10E94A303E0908E01F0908F0100916B
S11307D090011091910120913201309133014091A7
S11307E03401509135016E197F09800B910B62170A
S11307F073078407950720F01092700171E01EC002
S11308002E0D3F1D401F511F809120019091210109
S1130810A0912201B0912301281B390B4A0B5B0BD9
S1130820273E31054105510540F4822F223010F056
S113083070E005C070E082E002C070E086EE682FD0
S1130840615000B601FCFDCF82B7681709F46F5FF1
S113085020912001309121014091220150912301E6
S1130860DA01C9010196A11DB11D860F911DA11DBB
S1130870B11D82179307A407B50710F4622F609582
S113088061BFDFBE772319F080E00E9454011F91FD
S11308900F91FF90EF90DF900895AFB7F894BB27C6
S11308A0E1E0E093700160938E0170938F01809377
S11308B0900190939101209332013093330140933E
S11308C0340150933501AFBF0E94CA030895AF921B
S11308D0BF92CF92DF92EF92FF920F931F93CF9329
S11308E0DF93CDB7DEB728970FB6F894DEBF0FBEFF
S11308F0CDBF20E070E0E0910001F091010132E110
S11309004DE65CE46FE4809101019E2F28960FB6BA
S1130910F894DEBF0FBECDBFDF91CF911F910F9131
S1130920FF90EF90DF90CF90BF90AF9008951F920B
S11309300F920FB60F9211248F9383B783BF00B623
S113094000FCFDCF8F910F900FBE0F901F90189554
S113095078941F920F920FB60F9211240F900FBE2E
S11309600F901F90189578941F920F920FB60F92C4
S113097011240F900FBE0F901F90189578941F921A
S11309800F920FB60F9211242F933F938F939F933F
S11309902FB7F894332780917501909176010196D1
S11309A090937601809375012FBF9F918F913F9112
S11309B02F910F900FBE0F901F9018951F920F92BA
S11309C00FB60F9211240F900FBE0F901F90189521
S11309D01F920F920FB60F9211240F900FBE0F901B
S11309E01F9018951F920F920FB60F9211240F901B
S11309F00FBE0F901F9018951F920F920FB60F9273
S1130A0011240F900FBE0F901F9018951F920F92F4
S1130A100FB60F9211240F900FBE0F901F901895D0
S1130A201F920F920FB60F9211240F900FBE0F90CA
S1130A301F9018951F920F920FB60F9211240F90CA
S1130A400FBE0F901F9018951F920F920FB60F9222
S1130A5011242F933F934F935F936F937F938F93BF
S1130A609F93AF93BF93EF93FF9383B783BF00B676
S1130A7000FCFDCF81B799270196AA27BB272091B7
S1130A802001309121014091220150912301280F2E
S1130A90391F4A1F5B1F209320013093210140938B
S1130AA022015093230178940E94CA03FF91EF918D
S1130AB0BF91AF919F918F917F916F915F914F9172
S1130AC03F912F910F900FBE0F901F9018951F9379
S1130AD080911301882309F048C0109102011F3F3F
S1130AE009F043C060E00E94E5008823F1F181E051
S1130AF08093A101809137018823D1F11092A10143
S1130B0085E090E03BC0809114018230A9F5C09A41
S1130B108091030120E030E08F3F11F421E030E0C8
S1130B20232BD9F48F3F19F42FEF30E00DC0282F79
S1130B303327F901E15AFE4F8081809303018F3FEF
S1130B4011F48093040110832093050181E08093C4
S1130B5014018AE00E94540104C01093050110920C
S1130B60140180E00E94F60007C081E090E006C016
S1130B7080910501882339F280E090E01F91089567
S1130B801F93CF93DF939FB7F894C92FDD271C2FB2
S1130B9090910201981721F0CFBF81E090E03AC014
S1130BA08FEF80930201309113013323F1F48FB757
S1130BB0F8949927109292018FBF0E946705CFBFC6
S1130BC011C02093020181E090E002C0880F991FB8
S1130BD04A95E2F7809538233093130188E00E9408
S1130BE054011FBF80E090E015C080E065E0E32F72
S1130BF0FF270E946818292F492F5527CF01042E5B
S1130C0002C0959587950A94E2F780FDDACF822F8A
S1130C108F5FEFCFDF91CF911F9108950F931F93B3
S1130C20182F0FB7F89461E080E00E94CB0088236E
S1130C3041F51093020180910501882379F5809193
S1130C401401823059F588E006C081E080931401D4
S1130C50109205018AE00E9454012AC080915F012C
S1130C608F3F31F5E0910401EE2311F11CC0109285
S1130C70030104C0FF27E15AFE4F108210920401C1
S1130C8017C081E090E002C0880F991F1A95E2F71F
S1130C9020911301282B209313010AC08091140181
S1130CA08823E1F6D2CF809103018F3F19F7DFCF7C
S1130CB0802F99278FBF80E090E01F910F910895B6
S1130CC01F9383E00E9417019927182F882319F096
S1130CD083E00E940E06812F99271F910895FF92A9
S1130CE00F931F93CF93DF93F82E8B018FB7F89454
S1130CF0C82FDD2760E080E00E94E500882321F012
S1130D00CFBF80E090E00CC0CFBF8F2D0E947B014D
S1130D10812F99270E947B01802F0E947B019927B4
S1130D20DF91CF911F910F91FF9008951F931FB7EB
S1130D30F89480914C01882319F460E070E009C0B4
S1130D4060E080910402882309F461E081E068276F
S1130D50772780915301882319F480E090E00AC03A
S1130D6090E080919701882309F491E081E098272D
S1130D70892F9927762F6627770F770F770FE4E06F
S1130D80880F991FEA95E1F7826E9262682B792B9E
S1130D9081E10E946F06812F99278FBF1F910895CB
S1130DA08FB7F89499276091A0018FBF85E0689F61
S1130DB0B0011124625D7E4F706488E10E946F0669
S1130DC00895EF92FF921F93CF93DF93E090540125
S1130DD0F0905501F70182A59927182F882309F46B
S1130DE01FE1C09880914B01811749F0612F77274B
S1130DF06F717070606E706885E10E946F06109369
S1130E004B01F70110818FB7F894C82FDD2760E0FC
S1130E1080E00E94E500882311F0CFBF12C0CFBF4D
S1130E208EE390E090936901809368018EE30E94C1
S1130E307B011150412F552760E070E0C7010E94EB
S1130E40F501DF91CF911F91FF90EF9008950F93DB
S1130E501F93CF93DF93EC010FB7F89411270E94EF
S1130E608700FC018FE380830FBF1092020210926F
S1130E70010261E082E00E94CB00882319F085E042
S1130E8090E072C08091A2018F5F8093A201815093
S1130E908B838FB7F894082F112762E081E00E94BA
S1130EA0E500882329F40FBF0E94160281E05BC08D
S1130EB08FB7F894992724E0209393018FBFD093A0
S1130EC06F01C0936E010FBFFE01319681812981AC
S1130ED09927982F88273327822B932B80729C7C09
S1130EE08983892F992781832981982F88273327FC
S1130EF02164822B932B8983892F992781831CA6B4
S1130F0018A619A619AA18AA1FA680E88EA761E038
S1130F106093960140916E0150916F018FB7F894E0
S1130F20282F33278091150190911601883091055F
S1130F3011F0019711F02FBF15C082E090E090935B
S1130F4016018093150160933F025093550140931D
S1130F50540110921F012FBF0E946006882311F4D0
S1130F600E94E10680E09927DF91CF911F910F91B4
S1130F700895CF93DF93DA01422F2D3118F082E0E8
S1130F8090E05EC0ED018B876E83872F99278F8356
S1130F902FB7F894332780915101909152012FBFBC
S1130FA0FD018483892F992785832FB7F8943327EC
S1130FB080910601909107012FBF8887892F992777
S1130FC089873196818129819927982F882733270A
S1130FD020643868822B932B8983892F99278183F6
S1130FE0435F4C934D5080910901882359F010922E
S1130FF00901642FCD010E9427079927282F8823F0
S1131000A9F417C0842F992790936D0180936C01E4
S1131010B0931A01A09319018CE00E9454018091AD
S11310200901882349F489E090E00AC08FEF809396
S11310300901822F992704C010925A0180E090E0A0
S1131040DF91CF910895CF93DF93FB01DB011696D7
S11310508683892F9927ED01898386E08387809190
S1131060730190917401892B19F085E090E02BC0F5
S11310707093740160937301435F40834D5080917A
S11310800C01882319F480E090E01DC08385ED01F4
S113109069817727762F662726813327622B732B66
S11310A010920C01242FAF010E94B9079927282F11
S11310B0882339F081E080930C011092740110921E
S11310C07301822F9927DF91CF910895CF93DF93F6
S11310D0DC01EC018CA5882339F010920E0180917B
S11310E08B010E9470001AC0FD01319621813327C3
S11310F0322F2227ED01898199278062282B392BF1
S11311002983232F3327218346E0BD0180E090E02B
S11311100E942308882311F010920E01DF91CF91D1
S113112008950F931F93CF93DF93182FEB01042F90
S1131130E82FFF27EE0FFF1FED58FE4F118210829C
S113114010920C01E0917301F0917401309721F039
S11311508091000280FF0EC081E080930C0103C0E7
S11311608EE00E9454011123B9F4602FCE010E9435
S1131170660812C020812D50332767817727762F88
S1131180662786819927682B792BAF0183850E9476
S1131190B907882341F3E4CFDF91CF911F910F91D9
S11311A008959B0180910C01882349F46091730197
S11311B0709174016217730711F40E9491080895E5
S11311C0AF92BF92CF92DF92EF92FF920F931F9351
S11311D05B016C0160917F0161FF20C02091770168
S11311E0309178014091790150917A01E0907B012E
S11311F0F0907C0100917D0110917E01D601C50122
S1131200821B930BA40BB50B8E159F05A007B1078A
S113121028F0E7E7F1E0A0E0B0E022C0E0E8F1E088
S11312206091880161FF6EC020918001309181013D
S11312304091820150918301E0908401F0908501F6
S11312400091860110918701A21AB30AC40AD50A33
S1131250AE14BF04C006D10608F454C0A1E0B0E047
S113126060FF04C080858D7F808708C02E0D3F1DE0
S1131270401F511F2083318342835383AA2309F0E3
S113128041C020918B0130918C012F5F3F4F3093EF
S11312908C0120938B0180910E01882399F5809114
S11312A000019091010180931402892F9927809362
S11312B0130282E08093150283E380931602209345
S11312C01802832F9927809317022091090233274C
S11312D0322F22278091080299278062282B392BEC
S11312E020930802232F33272093090246E067E066
S11312F072E080E090E00E942308882319F481E0E2
S113130080930E0181E00E9454011F910F91FF9080
S1131310EF90DF90CF90BF90AF900895CF92DF927F
S1131320EF92FF920F931F93CF93DF938C01F62ECE
S11313306A01E22E8FB7F894C82FDD2760E080E0C1
S11313400E94E500882321F0CFBF80E090E01EC01A
S1131350CFBF0F0D111D802F80680E947B01F82ED6
S113136016950795802F807C0E947B010E2D0AC064
S1131370EE2DFF27E01BF109EC0DFD1D80810E947D
S11313807B0101500023A1F78F2D9927DF91CF9185
S11313901F910F91FF90EF90DF90CF900895CF931E
S11313A0DF93CDB7DEB72C970FB6F894DEBF0FBE30
S11313B0CDBF8FB7F894282FAE014F5F5F4FDA018E
S11313C0E8E9F1E088E001900D928150E1F7809125
S11313D05101909152018987892F99278A87809199
S11313E06401909165018B87892F99278C872FBF82
S11313F02CE060E080E691E00E948E092C960FB606
S1131400F894DEBF0FBECDBFDF91CF9108951F9337
S1131410CF93DF93182F8FB7F894C82FDD2760E0A0
S113142080E00E94E500882321F0CFBF80E090E0B7
S113143005C0CFBF812F0E947B019927DF91CF91F7
S11314401F910895EF92FF920F931F93CF93DF9311
S1131450182F7B01042F8FB7F894C82FDD2760E085
S113146080E00E94E500882321F0CFBF80E090E077
S113147014C0CFBF1064812F992790936901809382
S113148068010E947B01182F402F5527B70180E087
S113149090E00E94F501812F9927DF91CF911F9150
S11314A00F91FF90EF900895C09860911B01709187
S11314B01C0141E08FE30E94220A089582E090E03B
S11314C0909348018093470181E08093500120E08C
S11314D030E080910201843011F421E030E0232BCC
S11314E029F484E00E941701882319F40E94540A05
S11314F0089584E00E940E0608951F93CF93DF930E
S11315008FB7F894C82FDD271C2F80914701909145
S11315104801892B29F484E00E94C005CFBF1EC076
S11315201092500180914D01882311F0B79904C0A5
S11315300E9908C0882319F0815080934D010E94B0
S11315405E0A0BC081E090E09093480180934701CC
S113155010924D0184E00E94C0051FBFDF91CF911E
S11315601F9108950E941D02C09AC09888E00E94AD
S1131570070A88E00E94070AC09A84E00E94C00516
S11315800E947D0A08951F920F920FB60F921124A4
S11315902F933F934F935F936F937F938F939F9377
S11315A0AF93BF93EF93FF938091470190914801CC
S11315B0019749F482E090E09093480180934701B9
S11315C00E945E0A05C080914D018F5F80934D019A
S11315D0FF91EF91BF91AF919F918F917F916F9107
S11315E05F914F913F912F910F900FBE0F901F90DD
S11315F018951F93182F81E090E090931601809323
S11316001501109237010E9467058FB7F894992746
S113161010930F018FBF84E00E9454011F9108951D
S113162061E081E00E94CB008823E9F48FB7F8944D
S1131630282F33278091100190911101892B11F0EB
S11316402FBF20C081E090E090931101809310019E
S11316502FBFDD9A0E94B80224E130E040E050E060
S11316600E9475030FC062E081E00E94E5008823B8
S113167019F089E090E0089561E081E00E94E500BE
S1131680882319F080E090E0089585E090E00895C3
S1131690CF92DF92EF92FF920F931F93CFB6F894FD
S11316A0DD240E943802DC01CB0166E470E00E9474
S11316B07418EBE0EE2EF12CE80EF91EF0923C02C9
S11316C0E0923B020E94B80200271127A80197016B
S11316D00E947503CFBE1F910F91FF90EF90DF9092
S11316E0CF9008951F93CF93DF938FB7F894C82FAB
S11316F0DD271C2F80911501909116010897C9F4DC
S113170089E00E94070A83E00E94C005C09A81E034
S113171090E090931601809315018FB7F894992760
S113172023E020930F018FBF84E00E945401CFBFB8
S113173030C0C09880913F02882311F085E001C039
S113174084E00E94070A83FD09C080E00E94070A22
S113175083FF04C085E090E020E003C083E090E0D4
S113176021E09093160180931501C09A1FBF222394
S113177041F010921F0183E00E94C0050E94480BB3
S113178008C00E94B80220E431E040E050E00E942A
S11317907503DF91CF911F91089578941F920F9252
S11317A00FB60F9211241F932F933F934F935F9380
S11317B06F937F938F939F93AF93BF93EF93FF9315
S11317C087B78F7E87BF78941FB7F89480915B01A9
S11317D090915C01A0915D01B0915E010097A1051B
S11317E0B10509F051C08091150190911601853021
S11317F0910561F18630910530F48330910549F00B
S1131800049781F51AC087309105F1F0089751F5D6
S113181014C0869B0FC084E090E0909316018093DF
S113182015010E94B80227E030E040E050E00E9439
S1131830750318C00E94480B15C00E9460068823D7
S113184089F40E94720B0EC080E00AC089E00E94F5
S1131850070A81E00E94900383E00E94C00587E0AC
S11318600E94F90A8091100190911101019771F47D
S113187082E090E09093110180931001DE98DE9A4B
S113188080E00E940E0602C00E94D502812F992793
S11318908FBFFF91EF91BF91AF919F918F917F91F6
S11318A06F915F914F913F912F911F910F900FBEB8
S11318B00F901F901895EF92FF920F931F93CF9361
S11318C0DF938B01809168019091690186FF40C18B
S11318D08F7B8F3309F08EC1C0911B01D0911C0105
S11318E05881509349018091470190914801853076
S11318F0910509F443C08630910509F48AC0029722
S113190009F01FC185E090E090934801809347015E
S113191040913601852F99270196242F33272817C4
S113192039074CF1B79906C00E9904C0451B4150C4
S113193040933601409149014A32E8F44423A1F02E
S1131940BE016F5F7F4F483018F047E050E007C09A
S113195086E090E09093480180934701552780E00A
S113196090E00E94F50146C110925001C09A84E0B3
S11319700E94C005E3C00E94B20A3CC186E090E028
S1131980909348018093470180915301882309F47F
S113199039C0809197018823A9F5898185FF32C0D8
S11319A08F814E812FB7F894332760916401709131
S11319B065012FBF9927982F88275527842B952BAE
S11319C08617970759F08F812E819927982F88279A
S11319D03327822B932B8F5F9F4FA1F489818770CC
S11319E0813081F4C09AC0988AE00E94070AC09AA4
S11319F0C0984091490147502896BE018FE30E9448
S1131A00220AF8C040914901475055272896BE0143
S1131A10A6CFC09A80914D01882339F484E00E94B6
S1131A20C00580914D01882311F0B7990AC00E9B1F
S1131A3008C09091FB01992321F0809149018B30DA
S1131A4038F480911B0190911C010E9429023DC031
S1131A50913001F5E091FF01FF27EE0FFF1FEE0F1C
S1131A60FF1FE955FE4F2081318142815381E0916E
S1131A701B01F0911C0121ABBB27A52F942F832FB1
S1131A8080ABCA01AA27BB2787A7252F3327442762
S1131A90552726A78091FF019927019668E070E0F9
S1131AA00E9488188093FF018091FB0181508093EC
S1131AB0FB01882351F080911B0190911C010E942D
S1131AC029021092FF011092FB0180914901FE014D
S1131AD0E80FF11D808187FF31C0012B79F1698105
S1131AE06770E0911B01F0911C01623019F5A0911F
S1131AF05401B0915501109709F18091150190910D
S1131B0016010797D9F4ED019B8183819817B1F4ED
S1131B1087B78F7E87BF908181E08CA7E90FF11D85
S1131B208291319688A780818F7789A780E00E946F
S1131B30F90A04C0613011F48BE02AC00E947D0AC6
S1131B4059C010925001C09A84E00E94C00552C04E
S1131B508E3309F04FC0C09A8091150190911601FF
S1131B600897C9F4C09889E00E94070AC09A83E0E4
S1131B700E94C00581E090E09093160180931501C6
S1131B808FB7F894992723E020930F018FBF84E047
S1131B900E9454012FC080913F02882349F484E0BD
S1131BA090E090931601809315010E94720B22C05D
S1131BB083E00E94C00583E090E090931601809337
S1131BC015010E943802DC01CB0166E371E00E943A
S1131BD07418FBE0EF2EF12CE80EF91EF09231019F
S1131BE0E09230010E94B80200271127A801970152
S1131BF00E947503DF91CF911F910F91FF90EF9099
S1131C0008951F920F920FB60F9211242F933F93B2
S1131C104F935F936F937F938F939F93AF93BF93F0
S1131C20EF93FF932FB1E0918901F0918A013097EE
S1131C3039F08091710190917201E80FF91F2083AE
S1131C408091710190917201019690937201809339
S1131C50710180E00E94FC0040911D0150911E0121
S1131C6080917101909172018417950718F40E9474
S1131C7087011CC06091890170918A0180910502DD
S1131C809091060210928A01109289011092060224
S1131C901092050210921E0110921D011092720101
S1131CA0109271012FB120E00E945B0CFF91EF9123
S1131CB0BF91AF919F918F917F916F915F914F9160
S1131CC03F912F910F900FBE0F901F901895AF92D8
S1131CD0BF92CF92DF92EF92FF920F931F93CF9315
S1131CE0DF93CDB7DEB7A8970FB6F894DEBF0FBE6B
S1131CF0CDBF873009F4ACC1883098F4833009F43F
S1131D002EC1843038F4813009F45BC0823008F08D
S1131D10DBC024C0853009F47AC1863008F092C152
S1131D2025C18B3009F4BFC28C3038F4893009F4F2
S1131D3085C28A3008F0A5C2C4C18D3039F08D3017
S1131D4008F439C48E3009F08EC480C48091000236
S1131D50882309F488C490E011E056C480914A01B4
S1131D60882361F52091A3013091A4014091A5013C
S1131D705091A601EFB7F894FF2760918E017091FE
S1131D808F018091900190919101E0903201F09047
S1131D90330100913401109135016E0D7F1D801FB8
S1131DA0911FEFBF2093A3013093A4014093A50199
S1131DB05093A60110924A010E944D040E94A3036D
S1131DC06EC00E94A3035B016C018FB7F89499273E
S1131DD0109270018FBF80917F0181FF25C0809197
S1131DE0770190917801A0917901B0917A01A601CF
S1131DF09501281B390B4A0B5B0BE0907B01F0909B
S1131E007C0100917D0110917E01E21AF30A040B1A
S1131E10150B3FEFE3163FEFF3063FEF03073FE7F2
S1131E20130711F061E009C05FEFE52E5FEFF52EB7
S1131E305FEF052F5FE7152F60E08091880181FF38
S1131E4024C08091800190918101A0918201B09180
S1131E508301A6019501281B390B4A0B5B0BDA01A0
S1131E60C9012091840130918501409186015091EE
S1131E708701281B390B4A0B5B0B2E153F054007C6
S1131E8051071CF479018A0103C0662309F4EBC3EA
S1131E901E141F04100611062CF0C601B5010E9481
S1131EA0E008E1C3E092A301F092A4010093A5012C
S1131EB01093A60181E080934A01A8019701C6010D
S1131EC0B5010E944D04CFC30FB7F894112781E0E8
S1131ED00E94900341E0E42EF12CF0921601E0926E
S1131EE01501109217011092370110924B010FBF88
S1131EF00FB7F89411270E941D02F0924801E09256
S1131F0047011092500189B78F7B89BF80E488BF55
S1131F108AB780628ABF8AB78F7E8ABF89B7806496
S1131F2089BF0FBF8FB7F894082F11278091100134
S1131F3090911101049719F483E00E94070A0FBFDE
S1131F400FB7F8941127C09A80E00E94C0050FBF14
S1131F508FB7F894992722E02093930105C08FB797
S1131F60F8949927109293018FBF7DC38FB7F8948B
S1131F709927F0900F018FBF63E081E00E94E50094
S1131F80882359F10FB7F894112710921601109273
S1131F90150187B78F7E87BF87B78F7D87BF83E0A3
S1131FA00E94C005C09A0FBF0FB7F8941127109272
S1131FB04801109247010E941D02C09A89B78F7B85
S1131FC089BF0FBF1092110110921001DE98DD98A5
S1131FD0DE9A83E00E94540107C08FB7F8949927D2
S1131FE022E0209393018FBF00916E0110916F0145
S1131FF00E9416028091010290910202892B09F03D
S113200032C38FEF809309014F2DB801F4C28FB70B
S1132010F894282F3327122F80913D02882301F54D
S113202081E080933D028091100190911101049709
S113203021F481E00E940E0603C086E00E94540150
S11320401FBF11C38FB7F894992710923D028CCF0C
S11320508FB7F894282F332780911201882311F029
S11320602FBF01C32FBF80B3992736E0969587957C
S11320703A95E1F7182F11709091660180916701EC
S11320808917D9F01917C9F484E090E090931101ED
S1132090809310018FB7F894992721E020931201BF
S11320A08FBF60E070E08DE10E946F060E94CF094F
S11320B0C09AC09882E00E9454011093670187E09F
S11320C06DC08FB7F8949927109102018FBF123019
S11320D009F467C0133030F4112359F0113009F0BA
S11320E0C2C248C0133009F476C0143009F0BBC230
S11320F0A2C0C0988FB7F894082F112780911001BF
S1132100909111010297A1F583E090E09093110161
S11321108093100168E170E08DE10E946F0681E018
S1132120809366011092120180B3992726E0969558
S113213087952A95E1F7817090708093670187E015
S11321400E94540181E00E94070A6FE772E08CE16B
S11321500E946F060E94D0060E94960666E57AE207
S113216087E10E946F066FEF70E885E10E946F06B9
S11321700FBF79C2C09886E00E94070A0E94D00669
S11321800E9496060E94CF09C09AC09883E00E94DC
S1132190070AC09A81E00E94C00586E00E945401AB
S11321A062C2C0988FB7F894082F112760E080E0CE
S11321B00E94E500882311F00FBF0AC00FBF83E51A
S11321C00E947B0180E00E947B0180E00E947B01F1
S11321D0C09A82E02DC08FB7F894992720911501F9
S11321E08FBF243039F0283041F0223001F50E94AD
S11321F0E10639C20E94720B36C2C09889E00E947F
S1132200070AC09A83E00E94C0058FB7F894992703
S113221021E030E030931601209315018FBF8FB772
S1132220F894992710930F018FBF84E0B7CF83E010
S11322300E94C00518C20E94540A15C20FB7F89430
S1132240112740911D0150911E01609189017091E7
S11322508A01809105029091060210928A011092DF
S11322608901109206021092050210921E0110922A
S11322701D01109272011092710120E00E945B0C0A
S113228077CF0FB7F894112782E0809314010E944E
S113229002010FBF80910501882309F0E4C1B89AB7
S11322A0C09888E07BCFA0911B01B0911C01DC9009
S11322B09D012D0D311DF9018081881F8827881FFC
S11322C0FD0183A7F90180818F77FD0181A721504A
S11322D03040F9018081FD0180A7A0911B01B091DC
S11322E01C01FD0132818FB7F894992720914C018C
S11322F08FBF222309F490C0832F99279695879541
S113230096958795837090708230910541F5878109
S113231046812FB7F8943327609164017091650169
S11323202FBF9927982F88275527842B952B8617FD
S1132330970719F481E090E06CC0FD018781268144
S113234040E050E09927982F88273327822B932B3E
S11323508F5F9F4F11F441E050E0CA015AC00397C8
S113236009F020C19E012F5F3F4F48E951E088E00A
S1132370FA010190AF01F90101929F018150C1F767
S11323809E012F5D3F4FAE014F5F5F4F88E0FA0122
S11323900190AF01F90101929F018150C1F79E01A3
S11323A0275F3F4FAE014F5D5F4F88E0FA01019018
S11323B0AF01F90101929F018150C1F79E012F5E87
S11323C03F4FAE01475F5F4F88E0FA010190AF01D4
S11323D0F90101929F018150C1F79E01275E3F4F91
S11323E0AE014F5E5F4F88E0FA010190AF01F90141
S11323F001929F018150C1F748E050E0BE01675E41
S11324007F4FCD0106960E945418892B09F0CAC04B
S113241003C0882309F4C6C0FCE0FD1508F0C2C05F
S1132420E0901B01F0901C01F7012281822F992773
S113243036E0969587953A95E1F7039719F468E0A5
S113244070E002C062E070E0822F9927969587952C
S11324509695879583709070039719F488E090E0BF
S113246002C082E090E026E030E0E20EF31E40E09D
S113247050E020E030E0F701E80FF91F8AEF9FEF0A
S1132480E80EF91E05C08191480F511D2F5F3F4F83
S113249026173707C4F3F70163818FEF8093030294
S11324A08FB7F894782F20E030E0E4E2F1E0808107
S11324B091818417950729F48281861731F120933D
S11324C003022F5F3F4F33962430310581F77FBFDE
S11324D0909103023FB7F8949F3F21F08091180137
S11324E08917A9F420911801822F9927FC01EE0F76
S11324F0FF1FE80FF91FEC5DFE4F51834083628399
S11325002F5F2370209318010EC07FBF47C0892F0F
S11325109927FC01EE0FFF1FE80FF91FEC5DFE4F3A
S1132520518340836283832F99278FBF0FB7F89419
S11325301127C7010E948700FC0190810FBFF7019A
S113254083A5882359F19F3349F5878146812FB7A5
S1132550F894332760910601709107012FBF9927E2
S1132560982F88275527842B952B8617970759F082
S1132570878126819927982F88273327822B932BAD
S11325808F5F9F4F59F4F70183858A3039F4F2E164
S1132590DF1621F4F70185850E947000F0921C017A
S11325A0E0921B018FB7F8949927109250018FBFC6
S11325B00E947D0A58C090915A0180910901981790
S11325C009F451C0909309019923D1F400911901A0
S11325D010911A0160916C01C8010E942707482FCD
S11325E05527442309F43FC08FEF8093090160917C
S11325F0190170911A01F80183850E94D10833C032
S11326008FEF809309012FC020910002812F822334
S1132610C1F0E92FFF27EE0FFF1FED58FE4F408159
S1132620518111821082812F8095282320930002EA
S1132630992339F463E0CA010E946608110F91E0FE
S1132640E3CF9F5F983078F4110FDECF80910C01B7
S1132650E82FFF27EE0FFF1FED58FE4F60817181B9
S113266041E00E949108A8960FB6F894DEBF0FBE11
S1132670CDBFDF91CF911F910F91FF90EF90DF902D
S1132680CF90BF90AF9008958091FC018F3FB1F03F
S1132690282F3327F901E85CFE4F80818093FC01E9
S11326A08F3F11F480933E028FEF80832F3F31F0F0
S11326B0822F0E94670E81E090E0089580E090E010
S11326C00895CFECD0E1DEBFCDBF1FB7F8944FE043
S11326D050E06FEF70E088E391E00E9461188FEFA3
S11326E08093FC0180933E0281E08EBD88E080BF30
S11326F083E083BF8CB59DB54AE72CB53DB528175B
S1132700390708F44150442311F0C901F6CF92B7B8
S113271082B78917E9F32CB53DB592B782B789170B
S1132720E9F38CB59DB5821B930B409665E09695B5
S113273087956A95E1F79093FE018093FD0113BE9E
S113274083B78EBD8EB580BF12BE1DBC1CBC8FEF7F
S113275086BF86B780937C0080B799278770907076
S1132760892BD1F7D29AD19AD09ADA9AD99AD89A4F
S113277015BA8FEF84BBD498DC981DBC1CBC87B7FA
S1132780846087BF8EB5887F84608EBD0E944413A9
S11327908823E1F78FEF80934E01E4E2F1E08FEFBD
S11327A09FEF918380831282339621E0E033F20716
S11327B0C1F70E9438026093A201809100019091B8
S11327C001010196AA27BB278093560190935701D4
S11327D0A0935801B093590187EC91E090931C01A8
S11327E080931B018E98B89A8C988FEF80935F0129
S11327F010929201109293011092940110929501FB
S1132800B89AD69AD59A8FB7F89499272091060149
S1132810309107018FBF30936501209364010E94BA
S1132820670429A73AA74BA75CA76DA77EA78FA724
S113283098ABDE019196FE01B99688E001900D9265
S11328408150E1F7DE015196FE01B19688E00190D6
S11328500D928150E1F7DE015996FE01719688E0F0
S113286001900D928150E1F7A8E9B1E0FE0179965B
S113287088E001900D928150E1F780910801992739
S113288090935201809351018FE180938D018AE1ED
S11328908093A0010E94670429A73AA74BA75CA7CD
S11328A06DA77EA78FA798ABDE019196FE01B9961E
S11328B088E001900D928150E1F7DE011196FE014E
S11328C0B19688E001900D928150E1F7DE011996EE
S11328D0FE01319688E001900D928150E1F7A8E95C
S11328E0B1E0FE01399688E001900D928150E1F744
S11328F0A8E9B1E0FD0137969C9180818D93908386
S1132900319781E0EB39F807B9F781E080934C0106
S113291010920402809353011092970180B788604B
S113292080BF8BE083BF86EE81BF87B7826087BF9D
S11329300E94CA030E9444138823E1F7812F992738
S11329408FBF789410920E0110928C0110928B011B
S11329500E94100B0E94A303609377017093780187
S11329608093790190937A0180E092E0A0E0B0E056
S113297080937B0190937C01A0937D01B0937E01B1
S113298080917F018E7F826080937F0181E00E942D
S113299054018FB7F894482F55274CC087B799270F
S11329A083709070892B19F4E5E0F0E013C080B7D0
S11329B0992787709070892BD1F781B792B7891BBB
S11329C08C3030F082B7853F18F4E3E0F0E002C0C9
S11329D0E2E0F0E087B7887BC1F480917D008B7FD3
S11329E0A1F46E9912C08AB190919A00892B8871D2
S11329F061F48091740082FD08C0379B03C081E0BC
S1132A0090E005C085E090E002C080E090E025B74A
S1132A108E1708F4E82FFF27E457FF4FC895E02DE1
S1132A20237E2062E22BE5BF78948895F89485B7DD
S1132A308F7D85BF8091FC018F3F09F4AFCF282F94
S1132A403327F901E85CFE4F80818093FC018F3FBE
S1132A5011F480933E028FEF80832F3F09F49ECFC1
S1132A604FBF822F0E94670E94CF78941F920F92CB
S1132A700FB60F9211242F923F924F925F926F9252
S1132A807F928F929F92AF92BF92CF92DF92EF92FA
S1132A90FF920F931F932F933F934F935F936F93E3
S1132AA07F938F939F93AF93BF93CF93DF93EF93D2
S1132AB0FF93C6B5D7B58FB7F894282E0E94B802F5
S1132AC09B012C1B3D0B442755272B013C01421A2B
S1132AD0530A640A750A8091150190911601853094
S1132AE0910521F0069709F0E0C0BFC086E090E0B0
S1132AF0909316018093150131E0332E30924F01EB
S1132B001092170180E00E949003E0915401F0912B
S1132B10550141AABB27A72D962D852D80ABC30156
S1132B20AA27BB2787A7872D9927AA27BB2786A76C
S1132B30E0915401F091550185A5882309F484C0DE
S1132B406081655077274F01860E971EF40120811E
S1132B50E1808281A3809927AA27BB27BA2FA92FB6
S1132B60982F8827332744275527522F4427332764
S1132B702227FF24002711278701FF24EE242E2972
S1132B803F29402B512BBB24CC24DD242A293B296B
S1132B904C295D29822B932BA42BB52B84199509E1
S1132BA0A609B7098383292F3A2F4B2F5527228350
S1132BB09D014427552721838B2F9927AA27BB27BB
S1132BC08083C09824E0A40180E090E00E948E09F4
S1132BD0C09AF4012081E1808281A3809927AA27E9
S1132BE0BB27BA2FA92F982F882733274427552787
S1132BF0522F442733272227FF2400271127870138
S1132C00FF24EE242E293F29402B512BBB24CC2416
S1132C10DD242A293B294C295D29822B932BA42BC3
S1132C20B52B840D951DA61DB71D8383292F3A2F1F
S1132C304B2F552722839D014427552721838B2F12
S1132C409927AA27BB278083E0915401F09155016D
S1132C50818185FF02C03092370183E00E94C00564
S1132C6087B78F7E87BF84997AC010924F0181E025
S1132C700E949003E0915401F0915501818185FFF8
S1132C800FC087E090E090931601809315010E9495
S1132C90B80220E031E040E050E00E94750303C038
S1132CA080E00E94F90A849B5AC08091170188230E
S1132CB091F580914F01882371F511E010934F0134
S1132CC00E94900380B32091FB01283098F4E09196
S1132CD0FF01E20FFF27E770F070EE0FFF1FEE0F0A
S1132CE0FF1FE955FE4F40825182628273822F5F3B
S1132CF02093FB0110931701D0936B01C0936A01D9
S1132D0084992DC0992774E0969587957A95E1F773
S1132D10182F117001C010E080914F018130F9F437
S1132D2010924F010E949003109217011123B9F4DD
S1132D3080916A0190916B01C81BD90B2A9778F492
S1132D408091FB01882319F081508093FB018091CD
S1132D50540190915501009711F00E9429022FBE51
S1132D60FF91EF91DF91CF91BF91AF919F918F919F
S1132D707F916F915F914F913F912F911F910F918F
S1132D80FF90EF90DF90CF90BF90AF909F908F9087
S1132D907F906F905F904F903F902F900F900FBE59
S1132DA00F901F901895ACE2B0E0E9EDF6E10C94B9
S1132DB0BA18222E332E442E552E662E772E882EA8
S1132DC0992EFE013196A8E01192AA95E9F729827D
S1132DD03A824B825C826D827E828F829886FE016B
S1132DE03996B8E01192BA95E9F7A986BA86CB86E6
S1132DF0DC86ED86FE860F87188B89819A81AB81EC
S1132E00BC8189A79AA7ABA7BCA77C018D018FEFD2
S1132E109FEFA0E0B0E0E822F9220A231B2389A552
S1132E209AA5ABA5BCA51D014424552489859A8582
S1132E30AB85BC858DA39EA3AFA3B8A75C016D0130
S1132E408FEF9FEFA0E0B0E0A822B922CA22DB22D4
S1132E508DA19EA1AFA1B8A53D0188249924C801E4
S1132E60B701A60195010E949B1869A37AA38BA3BD
S1132E709CA3C801B701A40193010E949B187B0184
S1132E808C01C201B101A60195010E949B185B014E
S1132E906C01C201B101A40193010E949B183B0182
S1132EA04C01EA0CFB1C0C1D1D1D89A19AA1ABA1B0
S1132EB0BCA19D01442755272E0D3F1D401F511FC6
S1132EC02A153B054C055D0540F480E090E0A1E047
S1132ED0B0E0680E791E8A1E9B1ECA01AA27BB2772
S1132EE0860D971DA81DB91D8D8F9E8FAF8FB8A31A
S1132EF0A9013327222789A19AA1ABA1BCA1A07063
S1132F00B070280F391F4A1F5B1F298F3A8F4B8FD0
S1132F105C8FA98CBA8CCB8CDC8CED8CFE8C0F8DE9
S1132F2018A1FE01719698E011929A95E9F7ED8A3D
S1132F30FE8A0F8B188F2D813E814F8158856DA19C
S1132F407EA18FA198A50E949B183B014C012D8561
S1132F503E854F85588969A57AA58BA59CA50E94B5
S1132F609B182D893E894F89588D260F371F481F7E
S1132F70591F260D371D481D591D2D8B3E8B4F8B18
S1132F80588F6D887E888F88988C2A2D3B2D4C2DE8
S1132F905D2D662D772D882D992DE2E1AC960C944C
S1132FA0D618A0E1B0E0E7EDF7E10C94BA18222EB0
S1132FB0332E442E552E662E772E882E992E0023DE
S1132FC009F466C088E0FE01319611928A95E9F70A
S1132FD029833A834B835C836D837E838F829887B6
S1132FE0E0E2E01B1E16CCF52D813E814F81588511
S1132FF0602F772767FD7095DA01C901062E04C09A
S1133000B695A795979587950A94D2F78D879E874D
S1133010AF87B88B04C0220F331F441F551FEA9596
S1133020D2F789819A81AB81BC8104C0B695A795FA
S1133030979587956A95D2F7282B392B4A2B5B2BCA
S113304029873A874B875C8729843A844B845C843C
S11330506D847E848F8498881BC01D861E861F867F
S1133060188A2E2F332727FD3095309521953F4F11
S11330708D819E81AF81B88504C0B695A79597953B
S113308087952A95D2F789879A87AB87BC87DCCF47
S1133090222D332D442D552D662D772D882D992DD8
S11330A0E2E160960C94D618FB01DC0104C08D911A
S11330B00190801921F441505040C8F7881B990BA6
S11330C00895DC0101C06D9341505040E0F708952C
S11330D0991B79E004C0991F961708F0961B881F66
S11330E07A95C9F780950895AA1BBB1B51E107C0C7
S11330F0AA1FBB1FA617B70710F0A61BB70B881F84
S1133100991F5A95A9F780959095BC01CD01089512
S113311097FB092E07260AD077FD04D0E5DF06D0F9
S113312000201AF4709561957F4F0895F6F79095F5
S113313081959F4F0895629FD001739FF001829FF4
S1133140E00DF11D649FE00DF11D929FF00D839F32
S1133150F00D749FF00D659FF00D9927729FB00DCF
S1133160E11DF91F639FB00DE11DF91FBD01CF01E2
S1133170112408952F923F924F925F926F927F9203
S11331808F929F92AF92BF92CF92DF92EF92FF9273
S11331900F931F93CF93DF93CDB7DEB7CA1BDB0B1F
S11331A00FB6F894DEBF0FBECDBF09942A883988C4
S11331B048885F846E847D848C849B84AA84B984CB
S11331C0C884DF80EE80FD800C811B81AA81B981D7
S11331D0CE0FD11D0FB6F894DEBF0FBECDBFED01EB
S10731E00895FFCF7C
S11131E40100FFFFFFFF010022FFFFFF0100BB
S9030000FC
